:020000040800F2
:10000000801D00207D0400087702000879020008A6
:100010007D0200088102000885020008000000003F
:10002000000000000000000000000000890200083D
:100030008B02000800000000731D00088D020008FC
:10004000970400089704000897040008910200082C
:1000500097040008970400088F020008970400081E
:100060002118000897040008970400089704000866
:1000700097040008970400089704000897040008F4
:1000800097040008970400089704000897040008E4
:1000900097040008970400089704000897040008D4
:1000A00097040008970400089704000897040008C4
:1000B00097040008970400089704000897040008B4
:1000C00097040008970400089704000897040008A4
:1000D000970400083B1600087916000897040008EA
:1000E0009F17000897040008970400089704000869
:1000F0009704000897040008970400089704000874
:100100009704000897040008970400089704000863
:100110009704000897040008970400089704000853
:100120009704000897040008970400089704000843
:1001300000F002F800F090F80AA090E8000C824469
:100140008344AAF10107DA4501D100F085F8AFF246
:10015000090EBAE80F0013F0010F18BFFB1A43F0A5
:1001600001031847F864000018650000103A24BF26
:1001700078C878C1FAD8520724BF30C830C144BF0C
:1001800004680C607047000000230024002500264E
:10019000103A28BF78C1FBD8520728BF30C148BFEA
:1001A0000B6070476E2904F02F85702904F06F866C
:1001B000662906F06581652906F06281672906F0E7
:1001C0005F816129AFF3008003681B0A28BF41F0FB
:1001D0008001692904F0DE84642904F0DB84752938
:1001E00004F0D8846F2904F0FD85782904F03B865B
:1001F000E92904F09985E42904F09685F52904F0AD
:100200009385EF2904F0FA85F82904F03A8603680B
:10021000DB0928BF41F08001632905F007827329BB
:1002200005F00C82E32905F01782F32905F01C8202
:10023000002070471FB505F01FFC040000200021BE
:1002400006F008F9401C60600020002106F0ECF880
:10025000E0601FBD10B510BD05F0E0FB1146FFF7D3
:10026000E9FF01F009FB05F0B7FC03B4FFF7F2FF6B
:1002700003BC05F0FBFC704700BFFEE700BFFEE7D4
:1002800000BFFEE700BFFEE770477047704770474A
:10029000704700000CB50020019000906C48006889
:1002A00040F480306A49086000BF6948006800F483
:1002B000003000900198401C0190009818B90198F6
:1002C000B0F5A06FF1D16248006800F4003010B1C1
:1002D0000120009001E0002000900098012843D107
:1002E0005C48006840F010005A4908600846006801
:1002F00020F0030008600846006840F00200086033
:10030000534840685249486008464068486008467B
:10031000406840F4806048600846406820F47C10E3
:1003200048600846406840F4881048600846006805
:1003300040F08070086000BF4548006800F0007021
:100340000028F9D04248406820F003004049486046
:100350000846406840F00200486000BF3C484068E2
:1003600000F00C000828F9D10CBD10B5FFF792FF82
:1003700010BD10B53648006840F0010034490860EF
:1003800008464068344908403149486008460068DA
:10039000324908402E4908600846006820F4802051
:1003A00008600846406820F4FE0048604FF41F00D3
:1003B0008860FFF7DAFF4FF000602949086010BD40
:1003C00010B5002100200022214B5B6803F00C01D6
:1003D00021B1042906D0082928D107E0214B224C5D
:1003E000236027E0214B204C236023E0184B5B68FF
:1003F00003F47010164B5B6803F48032022303EBA6
:10040000904022B91A4B4343174C23600DE0104B28
:100410005B6803F4003323B1164B4343124C236053
:1004200003E0124B4343104C236003E00D4B0E4C92
:10043000236000BF00BF064B5B68C3F303130E4C81
:10044000E15C094B1B68CB40074C236010BD0000EA
:1004500000100240002002400000FFF8FFFFF6FEFF
:1004600008ED00E000127A0000000020001BB70039
:1004700000093D00808D5B00040000200948804792
:1004800009480047FEE7FEE7FEE7FEE7FEE7FEE776
:10049000FEE7FEE7FEE7FEE704480549054A064B8E
:1004A0007047000073030008310100088015002028
:1004B000801D00208019002080190020314901434F
:1004C000314A1160704770B5002100230F22C478B3
:1004D00004B32D4C246804F4E064C4F5E064210AFC
:1004E000C1F10403CA40447804FA03F1847814404B
:1004F00021430901254C0678A155047804F01F0515
:100500000124AC4005786D11AD0005F1E025C5F87A
:10051000004109E0047804F01F050124AC401C4DA3
:100520000678761145F8264070BD1A4A0A40024303
:10053000154B1B1F1A60704739B1134A121D126800
:100540000243114B1B1D1A6006E00F4A121D126870
:1005500082430D4B1B1D1A607047042808D14FF0D1
:10056000E021096941F004014FF0E022116107E048
:100570004FF0E021096921F004014FF0E022116100
:10058000704700000000FA050CED00E000E400E018
:1005900080E100E080FFFF1F10B50446CC48844294
:1005A00008D10121042000F02DFB0021042000F0DF
:1005B00029FB46E0C748844208D10121082000F009
:1005C00021FB0021082000F01DFB3AE0C2488442D4
:1005D00008D10121102000F015FB0021102000F0AF
:1005E00011FB2EE0BD48844208D10121202000F0FB
:1005F00009FB0021202000F005FB22E0B8488442DE
:1006000008D10121402000F0FDFA0021402000F037
:10061000F9FA16E0B348844208D10121802000F0A5
:10062000F1FA0021802000F0EDFA0AE0AE488442A1
:1006300007D10121801500F0E5FA0021A01500F096
:10064000E1FA10BD10B50121084600F0DBFA0021E7
:10065000012000F0D7FA10BD2DE9F0410246002537
:100660000026002000230024002791F803C00CF08E
:100670000F0591F803C00CF0100CBCF1000F03D073
:1006800091F802C04CEA050591F800C0BCF1000FDA
:1006900031D0146800202BE04FF0010C0CFA00F36D
:1006A000B1F800C00CEA03069E4220D183004FF04F
:1006B0000F0C0CFA03F7BC4305FA03FC4CEA0404E4
:1006C00091F803C0BCF1280F06D14FF0010C0CFAD1
:1006D00000FCC2F814C00AE091F803C0BCF1480F56
:1006E00005D14FF0010C0CFA00FCC2F810C0401C00
:1006F0000828D1D31460B1F800C0BCF1FF0F34DD7D
:10070000546800202EE000F1080C4FF0010808FAB0
:100710000CF3B1F800C00CEA03069E4221D183001D
:100720004FF00F0C0CFA03F7BC4305FA03FC4CEA3C
:10073000040491F803C0BCF1280F05D100F1080CA6
:1007400008FA0CF8C2F8148091F803C0BCF1480F05
:1007500007D100F1080C4FF0010808FA0CF8C2F8B4
:100760001080401C0828CED35460BDE8F0814FF6BD
:10077000FF710180022181700421C170704702461F
:10078000002093680B400BB1012000E0002070476F
:100790000146886880B2704702460020D3680B404B
:1007A0000BB1012000E0002070470146C86880B20C
:1007B000704701617047416170470AB1016100E013
:1007C00041617047C16070474FF480320A438261D3
:1007D0008161826182698269704702460020434BD1
:1007E00018684FF68073184040EA021008433F4BE8
:1007F000186070473E49C8617047F0B50A4600234B
:1008000000240021002500F00046B6F1004F02D17F
:10081000364EF16901E0354E7168C0F3034583B28D
:1008200000F44016B6F5401F08D121F070612F4E3C
:10083000766826F070662D4F7E6012E000F4801618
:10084000B6F5801F06D1032606FA05F4A14341F050
:10085000706106E0460D360103FA06F6B14341F039
:10086000706122B1460D360103FA06F6314300F0FD
:100870000046B6F1004F02D11C4EF16101E01B4E63
:100880007160F0BD30B500228B071C0F0F2303FAF7
:1008900004F2164B08338C1053F824309343134C56
:1008A00008348D1044F8253023468C1053F824303A
:1008B0008C07240F00FA04F423430C4C08348D10E9
:1008C00044F8253030BD0A49DC310860704700002B
:1008D00000080140000C01400010014000140140DC
:1008E00000180140001C01400020014000000140B0
:1008F00000002042DF48006840F00100DD49086048
:1009000008464068DC490840DA4948600846006803
:10091000DA490840D74908600846006820F480207A
:1009200008600846406820F4FE0048604FF41F004D
:1009300088607047CF49096821F48031CD4A116041
:100940001146096821F480211160B0F5803F03D081
:10095000B0F5802F0ED106E0C649096841F4803118
:10096000C44A116007E0C349096841F4A021C14AA3
:10097000116000E000BF00BF704710B501460022C3
:10098000002300204A11012A02D1BA4C236806E054
:10099000022A02D1B74C236A01E0B64C636A01F027
:1009A0001F02012494401C400CB1012000E00020F3
:1009B00010BD38B5002000900024002500BF312074
:1009C000FFF7DBFF05460098401C00900098B0F54B
:1009D000A06F01D0002DF2D03120FFF7CEFF08B17B
:1009E000012400E00024204638BD01460020A14A31
:1009F000106820F0F80040EAC10010607047A0497C
:100A000008607047024600209A4B586820F47C101A
:100A100042EA01031843974B5860704798490866AB
:100A2000704701460020934A506820F003000843B5
:100A3000506070478F48406800F00C0070470146D6
:100A400000208C4A506820F0F00008435060704746
:100A500001460020874A506820F4E0600843506057
:100A6000704701460020834A506820F4605040EAF5
:100A7000C1005060704729B17E4A527A02437D4BD3
:100A80005A7204E07B4A527A82437A4B5A72704718
:100A90007B49D8310860704701460020754A50688C
:100AA00020F440400843506070470021714A2032D2
:100AB0001170704A82F82010012802D004280AD14F
:100AC00004E001216B4A2032117005E00521694ADA
:100AD0002032117000E000BF00BF70476949086014
:100AE00070476449096A0143624A11627047654967
:100AF00044390860704730B50021002200240023EB
:100B00005C4D6D6805F00C0121B1042905D0082960
:100B100023D105E05C4D056022E05C4D05601FE0DF
:100B2000544D6D6805F47012524D6D6805F48034B3
:100B3000022505EB92421CB9554D554305600BE06B
:100B40004C4D6D6805F400351DB1524D554305609F
:100B500002E04E4D5543056002E04B4D056000BF7D
:100B600000BF444D6D6805F0F00109094A4D6B5C0A
:100B70000568DD4045603F4D6D6805F4E061090A98
:100B8000454D6B5C4568DD4085603A4D6D6805F408
:100B90006051C90A404D6B5C4568DD40C560354D0C
:100BA0006D6805F44041890B3C4D6B5CC568B5FB35
:100BB000F3F5056130BD29B12E4A526902432D4B30
:100BC0005A6104E02B4A526982432A4B5A617047AA
:100BD00029B1284A92690243264B9A6104E0254ACA
:100BE00092698243234B9A61704729B1214AD269A5
:100BF0000243204BDA6104E01E4AD26982431D4B56
:100C0000DA61704729B11B4AD2680243194BDA6096
:100C100004E0184AD2688243164BDA60704729B163
:100C2000144A12690243134B1A6104E0114A126913
:100C30008243104B1A61704712494039086070476F
:100C40000F49C86470470B49C87170470948406A2A
:100C500040F0807007494862704701460020054A0D
:100C600092680A400AB1012000E000207047014963
:100C700088727047001002400000FFF8FFFFF6FE88
:100C8000000042428004424200127A00001BB7007A
:100C900000093D00808D5B0014000020240000202E
:100CA00010B50446FB48844209D101218803FFF7AF
:100CB000A9FF00214FF48040FFF7A4FF32E0F6487F
:100CC000844209D101214804FFF7A9FF00214FF414
:100CD0000030FFF7A4FF25E0F048844209D101214C
:100CE0008804FFF79CFF00214FF48020FFF797FF57
:100CF00018E0EB48844209D10121C804FFF78FFFB7
:100D000000214FF40020FFF78AFF0BE0E548844202
:100D100008D101210805FFF782FF00214FF4801060
:100D2000FFF77DFF10BD2DE9F04786B005460E4662
:100D30000024A24600BFA1460027B08900B100BF31
:100D40002F462C8A4CF6FF700440F08804432C8216
:100D5000AC894EF6F3100440B0883189084371899C
:100D600008430443AC81AC8A4FF6FF400440B0898D
:100D70000443AC8201A8FFF7BEFEC648874202D1F9
:100D8000DDF810A001E0DDF80CA0A88900F4004017
:100D900040B10AEBCA0000EB0A1031684900B0FB11
:100DA000F1F807E00AEBCA0000EB0A10316889008D
:100DB000B0FBF1F86420B8FBF0F0040120096421D5
:100DC00001FB1089A88900F4004040B1322000EBFB
:100DD000C900B0FBF1F000F00700044308E0322046
:100DE00000EB09106421B0FBF1F000F00F000443A8
:100DF0002C8106B0BDE8F0874FF416510160002148
:100E00008180C18001810C21418100218181704755
:100E100010B502460020108A4FF2FF0318400B88DD
:100E20004C8823438C882343CC8823431843108267
:100E300010BD0021018041808180C180704721B1B7
:100E4000828942F40052828104E082894DF6FF7368
:100E50001A4082817047F0B5034600240026002521
:100E6000002040F66A17B94200D100BF1846C1F30E
:100E7000421401F01F06012707FA06F5012C01D1E3
:100E80000C3004E0022C01D1103000E014301AB113
:100E900007682F43076002E00768AF430760F0BDB3
:100EA0001AB1838A0B43838202E0838A8B43838255
:100EB0007047028A4FF6F0731A400282028A0A4390
:100EC0000282704782894FF2FF731A4082818289C1
:100ED0000A438281704721B1828942F002028281F5
:100EE00004E082894FF6FD731A4082817047028ABE
:100EF0004FF6DF731A400282028A0A430282704769
:100F000021B1028A42F48042028204E0028A4BF656
:100F1000FF731A4002827047C1F308028280704753
:100F200001468888C0F308007047818941F00101BB
:100F300081817047028BD2B20283028B42EA012286
:100F400002837047028B02F47F420283028B0A43C2
:100F50000283704721B1828A42F02002828204E03B
:100F6000828A4FF6DF731A408282704721B1828AEB
:100F700042F01002828204E0828A4FF6EF731A4038
:100F80008282704721B1828A42F00802828204E0A4
:100F9000828A4FF6F7731A408282704721B18289A4
:100FA00042F40042828103E08289C2F30E02828110
:100FB000704721B1828A42F40062828204E0828A10
:100FC0004FF2FF731A4082827047828A4FF6FB739A
:100FD0001A408282828A0A438282704721B1828AC1
:100FE00042F00202828204E0828A4FF6FD731A40C8
:100FF0008282704702460020B1F5007F00D100BF19
:1010000013880B400BB1012000E00020704701F471
:101010000072B2F5007F00D100BFCA430280704762
:1010200070B50246002400230025002040F66A1611
:10103000B14200D100BFC1F3421501F01F030126E8
:1010400006FA03F3012D02D19689334006E0022D02
:1010500002D1168A334001E0968A33400C120126F1
:1010600006FA04F41688344013B10CB1012000E0F4
:10107000002070BD10B50022002340F66A14A14282
:1010800000D100BF0A1201249440A3B2DC430480C3
:1010900010BD0000003801400044004000480040FE
:1010A000004C004000500040002044490860091DE9
:1010B0000860091D0860091D086041483F49143156
:1010C0000860704700213D498279002A3AD00A46DB
:1010D000126803689A430B461A600A1D1268036877
:1010E0009A430B1D1A60027911440A6803681A4377
:1010F0000A60324A0832126803689A432F4B083359
:101100001A601A1D126803689A432C4B0C331A603C
:101110004279102A0ED11A1F126803681A43274B0E
:1011200008331A601A1D126803681A43234B0C33E4
:101130001A600DE02149427911440A6803681A4394
:101140000A6005E0027911440A6803689A430A605C
:1011500070470021016001710C21417100218171F2
:1011600070471649103109680143144A1032116062
:10117000704701460020114A143212680A400AB131
:10118000012000E0002070470C49143108607047CE
:10119000014600200022094B1B6803EA0102074BAD
:1011A00014331B680B4013B10AB1012000E000208A
:1011B0007047024914310860704700000004014084
:1011C000FFFF0F0010B50446012C01D0012000E004
:1011D000002002464FF480615048FFF7EEFA0CB150
:1011E000012000E000204E49C87010BD10B5044633
:1011F000012C01D0012000E0002002464FF4805174
:101200004848FFF7DAFA0CB1012000E00020444919
:10121000887010BD10B50446012C01D0012000E0FB
:10122000002002464FF480713C48FFF7C6FA0CB12B
:10123000012000E000203A49487010BD10B5044676
:10124000012C01D0012000E000200246802133481B
:10125000FFF7B3FA0CB1012000E00020304908701C
:1012600010BD08B501211420FFF7B2FC10208DF845
:1012700003004FF4B060ADF8000003208DF80200C9
:1012800069462648FFF7E8F94FF48050ADF80000B2
:1012900069462448FFF7E0F90020FFF7CFFF002060
:1012A000FFF7B8FF0020FFF7A1FF0020FFF78AFF3C
:1012B00008BD10B500242CE01BA11D4800F071F9F9
:1012C0000120FFF7BBFF4FF4FA7000F069F800202F
:1012D000FFF7B4FF0120FFF79DFF4FF4FA7000F015
:1012E0005FF80020FFF796FF0120FFF77FFF4FF424
:1012F000FA7000F055F80020FFF778FF0120FFF7A3
:1013000061FF4FF4FA7000F04BF80020FFF75AFF2E
:10131000641CB4F57A7FCFDB10BD000000100140E3
:1013200028000020000801406C65640D0A000000E0
:10133000003801404FF0E020006920F004004FF039
:10134000E02108610920364908700846007800EB62
:101350004001C1EBC0104FF6FF7101EAC0003149F6
:1013600008807047002120F07F402D4A12784243C8
:101370004FF0E0235A6100229A6101221A6100BFF6
:101380004FF0E022116901F001021AB101F480323C
:10139000002AF5D000224FF0E0231A619A617047CD
:1013A000002100B9704720F07F401E4A1288424356
:1013B0004FF0E0235A6100229A6101221A6100BFB6
:1013C0004FF0E022116901F001021AB101F48032FC
:1013D000002AF5D000224FF0E0231A619A6100BF85
:1013E000E0E770B50446002600254FF4FA7094FB40
:1013F000F0F0C6B24FF4FA7094FBF0F100FB11402C
:1014000085B205E04FF4FA70FFF7CAFF701EC6B24E
:10141000002EF7D115B12846FFF7C2FF70BD0000BE
:101420002C0000202E00002010B586B004460121BB
:101430000420FFF7CDFB01218803FFF7C9FB18202B
:101440008DF817004FF40070ADF8140003208DF8EC
:10145000160005A9A348FFF7FFF804208DF8170030
:101460000002ADF8140003208DF8160005A99D4870
:10147000FFF7F2F801940020ADF810000C20ADF851
:101480000E000020ADF80C00ADF80A00ADF8080021
:1014900001A99548FFF747FC01219348FFF7CFFCCE
:1014A000012240F225519048FFF7D5FC25208DF808
:1014B000000001208DF8030000208DF801000220BB
:1014C0008DF802006846FEF7FEFF06B010BD10B5AD
:1014D00086B0044601210420FFF77AFB012148046D
:1014E000FFF783FB18208DF817000420ADF81400D7
:1014F00003208DF8160005A97A48FFF7ADF80420FF
:101500008DF817000820ADF8140003208DF81600A0
:1015100005A97448FFF7A0F801940020ADF8100069
:101520000C20ADF80E000020ADF80C00ADF80A005C
:10153000ADF8080001A96D48FFF7F5FB01216B48E4
:10154000FFF77DFC012240F225516848FFF783FC3C
:1015500026208DF8000001208DF8030000208DF872
:1015600001008DF802006846FEF7ADFF06B010BD21
:101570002DE9F04107460C46154600260DE014F80B
:10158000011B3846FFF7C8FC00BF40213846FFF773
:1015900031FD0028F9D0701C86B2AE42EFDBBDE809
:1015A000F0810FB430B5CBB0054601AC50A8009027
:1015B00001A8009A4F9903F0F1F8002000900BE089
:1015C00014F8011B2846FFF7A7FC00BF402128465E
:1015D000FFF710FD0028F9D020780028F0D14BB09B
:1015E00030BC5DF814FB4248008808B90120704700
:1015F0003F4800883E494988884203D100203C4941
:101600000880F4E73A480088394948800120EEE72D
:101610003848008808B901207047364800883549A5
:101620004988884203D1002032490880F4E73148D4
:101630000088304948800120EEE710B540F225517E
:101640002948FFF7EDFCB0B129480088C82802D32B
:101650000020274908802448001D0088C1B2244882
:1016600002880088401C224B1880181D81542021BC
:101670001D48FFF7CCFC10BD10B540F225511B48AA
:10168000FFF7CEFCB0B11B480088C82802D3002069
:10169000184908801548001D0088C1B21548028805
:1016A0000088401C134B1880181D815420210F48BE
:1016B000FFF7ADFC10BD70B504460D46002600BF17
:1016C0000CE014F8011B0948FFF726FC00BF40217D
:1016D0000648FFF78FFC0028F9D0761CAE42F0DBFD
:1016E00070BD000000080140003801400044004087
:1016F000D4000020A00100201FB501211120FFF718
:1017000067FA4FF46050ADF80C0048208DF80F00D8
:1017100003A94E48FEF7A0FF0420ADF80C0003A972
:101720004B48FEF799FF28208DF8000000208DF827
:1017300001008DF8020001208DF803006846FEF7D5
:10174000C2FE08208DF8000000208DF801008DF801
:10175000020001208DF803006846FEF7B4FE0B215D
:101760000220FFF78FF80C210220FFF78BF80D21E4
:101770000220FFF787F802210320FFF783F843F6E2
:101780000400019000208DF808000C208DF809005D
:1017900001208DF80A0001A8FFF794FC1FBD10B5C9
:1017A0004FF40060FFF7F4FC78B180212748FEF782
:1017B000F3FFC0F10100C4B2224680212348FEF7A6
:1017C000FCFF4FF40060FFF7F4FC4FF48050FFF78C
:1017D000DFFC78B180211D48FEF7DEFFC0F101007B
:1017E000C4B2224680211948FEF7E7FF4FF480502B
:1017F000FFF7DFFC4FF40050FFF7CAFC78B18021FF
:101800001248FEF7C9FFC0F10100C4B22246802190
:101810000E48FEF7D2FF4FF40050FFF7CAFC10BD90
:1018200010B50420FFF7B4FC70B180210748FEF723
:10183000B3FFC0F10100C4B2224680210348FEF785
:10184000BCFF0420FFF7B5FC10BD000000100140F4
:101850000014014010B54FF4A060FEF72FFEFFF713
:1018600069FDFFF7FEFC4FF4E130FFF7DDFD4FF4BB
:10187000E130FFF72CFE10BDE2B00024FFF7EAFFD5
:101880001EA12048FFF78DFE36E0FFF7ACFE0028D2
:101890002FD11D4A1DA11B48FFF783FE002407E03E
:1018A0001948025D1CA11748FFF77BFE601C84B23B
:1018B0001548001F4088A042F2DC16A11148FFF72E
:1018C00070FECC212FA803F0D8F8CC220E49091FB6
:1018D0002FA803F039F8BC2233A9684603F079F841
:1018E0002FA80FC800F07BF8CC210748001F03F099
:1018F000A2F8C820FFF736FDC7E700003131310DEF
:101900000A00000000380140D800002062756620FF
:101910003D2025730D0A00002564200070B50546A2
:101920000C46042D06D0052D0ED0062D16D0072D01
:1019300028D11DE0012C03D10120FFF77FFC02E03C
:101940000020FFF77BFC22E0012C03D10120FFF7F0
:1019500061FC02E00020FFF75DFC18E0012C03D1E0
:101960000120FFF743FC02E00020FFF73FFC0EE000
:10197000012C03D10120FFF725FC02E00020FFF736
:1019800021FC04E07EA18348FFF70BFE00BF00BFEF
:1019900070BD13B59DF80000FF281FD19DF8010010
:1019A00001281BD1BDF80200042812D004DC012854
:1019B00007D0022810D10BE008280BD010280BD13B
:1019C00009E09DF805109DF80400FFF7A7FF04E06B
:1019D00003E002E001E000E000BF00BF1CBD0FB467
:1019E00070B586B0002400200390029000260025E8
:1019F0000090019000BF7AE00BA8805D039005AADB
:101A000065A103A802F0DCFE701C81B20E460BA893
:101A1000405C029004AA60A102A802F0D1FE9DF8E9
:101A200010009DF8141000EB0110C0B20590072DB6
:101A30004FD2DFE805F0040B1621313C47009DF83A
:101A400014008DF80000681C85B247E09DF8140072
:101A50008DF801009DF81400204484B2681C85B202
:101A60003CE09DF81400ADF802009DF814002044FD
:101A700084B2681C85B231E0BDF802009DF81410F4
:101A800001EB002080B2ADF802009DF81400204464
:101A900084B2681C85B221E09DF814008DF8040022
:101AA0009DF81400204484B2681C85B216E09DF8AD
:101AB00014008DF805009DF81400204484B2681CC1
:101AC00085B20BE09DF814008DF80600681C85B205
:101AD00004E032A12F48FFF764FD00BF00BF9DF86E
:101AE000142030A12B48FFF75CFD701C86B2BDF8B6
:101AF0002A00B04280DC2046E11704EB1161091294
:101B0000A4EB01218CB29DF80600A04209D027A1C8
:101B10002048FFF746FD4FF0FF3006B070BC5DF87F
:101B200014FB26A11B48FFF73CFD9DF800201DA1DA
:101B30001848FFF736FD9DF801201AA11548FFF758
:101B400030FDBDF8022017A11248FFF72AFD9DF8CD
:101B5000042014A10F48FFF724FD9DF8052011A1D2
:101B60000C48FFF71EFD9DF806200EA10948FFF75F
:101B700018FDDDE90001FFF70CFF0020CDE70000B4
:101B8000706172616D65746572206572726F720D3D
:101B90000A00000000380140257800006572726F6D
:101BA000720D0A0025640D0A000000006461746172
:101BB000206572726F720D0A000000002E2E2E2E0C
:101BC0002E2E2E2E2E2E2E2E2E2E2E2E2E2E2E2E35
:101BD0002E2E2E2E0D0A00004B48802102E0491EB9
:101BE000002204C00029FAD1484A494B1A60002259
:101BF000484B1A807047704770477047704770476E
:101C0000704770B5044610464FF080750560051F9B
:101C100028462C60404E051F28462E604FF0123695
:101C2000051F28462E604FF00336051F28462E60FC
:101C30004FF00236051F28462E607610051F2846F5
:101C40002E60051F284629604FF01136051F2846D3
:101C50002E604FF01036051F28462E604FF00936D3
:101C6000051F28462E604FF00836051F28462E60B7
:101C70004FF00736051F28462E604FF00636051F29
:101C800028462E604FF00536051F28462E604FF07F
:101C90000436051F28462E6070BD7047704710B58A
:101CA0001C480088401C1B49088008460088022800
:101CB00003D30020088002F0ABFC10BD10B500F08B
:101CC00031F8044615480078401C14490870204635
:101CD00000F02CF800F007FB00F0DBF910BD411E0E
:101CE0004FF0E0225161FF210D4A11704FF0E021C9
:101CF000096941F005014FF0E022116111460969BF
:101D000041F00201116170476C020020680400205C
:101D10003000002034000020813F000851000020E6
:101D200023ED00E0EFF3108072B6704780F3108867
:101D30007047204C204D25604FF0000484F3098843
:101D40001E4C4FF0010525701D4C4FF0805525604D
:101D500062B6FEE730B41A4C4FF08055256030BCB7
:101D6000704730B4164C4FF08055256030BC70473A
:101D700000BF72B6EFF3098028B1203880E8F00F79
:101D800010490968086000B50F4880475DF804EB0A
:101D90000E480F490A7802700A480E490A68026024
:101DA000106890E8F00F203080F309884EF0040EA0
:101DB00062B6704720ED00E00000FFFF5E000020EB
:101DC00004ED00E0640000209B1C0008530000208C
:101DD000540000206C0000207CB5002514E069460A
:101DE000284601F0DBFF064666B9F84850F8254062
:101DF00044B1012C06D0D4E9020100EB81006064FB
:101E00000198A064681CC5B23F2DE8D97CBD0024B0
:101E100000BF02E0282002F0C9F8ED480078002851
:101E2000F8D0EC4800686421B0FBF1F0E9490860A3
:101E30000846006828B90020E7490870FF2001F033
:101E4000EDFF00BFFFF76EFF0446E4480068E44979
:101E500008600020E14908602046FFF767FFE0487E
:101E60000068DC490968B0FBF1F0C0F16400DA49B0
:101E70000870FFF7C5FEFFF7AFFF142002F096F8D9
:101E8000E0E700B587B0032000218022D54BCDE9E3
:101E90000132CDE903104FF6FE703E23D24A009086
:101EA000AFF2950001F093FD06AAD0A13E2001F00B
:101EB000F7FE07B000BD002400BF00BFFFF732FFF0
:101EC0000446C6480068401CC44908602046FFF725
:101ED0002DFFFFF793FEF1E700B587B00320002147
:101EE0008022C64BCDE90132CDE903104FF6FF70D9
:101EF0003F23C34A0090AFF2410001F068FD06AAFB
:101F0000C0A13F2001F0CCFE07B000BD04E00022DC
:101F100000F8012B4A1E91B20029F8D1704770B524
:101F20004FF4C871BB48FFF7F1FF00230FE0581CC6
:101F300085B203EB8300B74901EB800405EB850014
:101F400001EB8006002020706660581C83B2132BC2
:101F5000EDD303EB8300AF4901EB80040020207038
:101F600060600846AC49086070BD70B54FF493617D
:101F7000AA48FFF7CBFF4FF480719448FFF7C6FFE4
:101F8000002413E0601CC5B2C4EBC40000EB4000A9
:101F9000A24901EB8003C5EBC50000EB400001EB5B
:101FA00080065E619EA0D864601CC4B20D2CE9D38B
:101FB000C4EBC40000EB4000984901EB8003002013
:101FC000586197A0D86400209649086093489649C4
:101FD000086070BD0021954A1170002004E00021C6
:101FE000934A1154411CC8B20828F8D30021914AE1
:101FF0001170914A1170914A1160914A11607047B5
:1020000000209049086090490870904908709049F4
:1020100008709049087090490860704908607049DC
:1020200008606C4908606A490870704710B5FFF78E
:10203000D3FDFFF7E5FFFFF7CDFFFFF796FFFFF7B3
:102040006EFF00F0EBFE01F0E2F9FFF745FFFFF74E
:1020500018FF02F037FBFFF7CEFD10BD7D4800787A
:10206000012808D178480078FF2804D27648007803
:10207000401C75490870704778496C4A1278885C32
:102080006B49095C754A515C01EBC0016A4A1170E9
:10209000704710B500246F480078012830D1FFF751
:1020A00041FE04466848007820B167480078401E29
:1020B0006549087064480078F8B964480078E0B968
:1020C000FFF7DAFF41485C49097850F821005B4985
:1020D0000860594800785749097888420DD0574818
:1020E0000068806B401C5549096888635A4800683D
:1020F000401C59490860FFF734FE2046FFF716FEE2
:1021000010BD10B5002453480078012811D1FFF705
:1021100009FE04464C48007840B94C480078FF2836
:1021200004D24A480078401C484908702046FFF70E
:10213000FDFD10BD10B50024FFF7F4FD0446424834
:102140000078F8B941480078E0B9FFF795FF1F48DB
:102150003949097850F82100384908603648007834
:102160003449097888420DD034480068806B401C9F
:1021700032490968886338480068401C364908605D
:10218000FFF7E8FD2046FFF7D1FD10BD10B5002494
:102190003048007801286ED1FFF7C4FD04462B4873
:1021A000007880B129480078401E28490870084608
:1021B000007848B92448007838B92046FFF7B6FDC2
:1021C000FFF7B8FF57E053E04EE049E04C0A00202B
:1021D0005000002048000020440000206000002043
:1021E0004C0000204C0600204808002075432F4F6B
:1021F000532D494920537461740000004C0800209D
:10220000480A002075432F4F532D49492049646CDB
:10221000650000006C0400203C0000204C0B0020F6
:102220003F000000700000206800002055000020E2
:102230005600002053000020540000206C000020B5
:10224000640000207C00002051000020520000208B
:102250005F0000205E000020380000208464000839
:102260002046FFF763FD06E02046FFF75FFD02E032
:102270002046FFF75BFD10BD10B5EB48007890B924
:10228000FFF7FAFEE9480078E9490870E948E749AC
:10229000097850F82100E849086008460068E749D5
:1022A0000860FFF746FD10BD10B50024022001F0C4
:1022B0007DFEFFF737FD04460020E1490860204617
:1022C000FFF734FD142001F071FEFFF72BFD0446EB
:1022D000DB480068DB4908600120DB4908702046C4
:1022E000FFF724FD10BD70B50026FFF7D8FCFFF7FF
:1022F00019FD0646D5480068401CD44908603046A0
:10230000FFF714FDC8480078012853D1D048007861
:1023100020B1012804D0022809D103E001250BE0F7
:10232000002509E001250120C949087004E00125C4
:102330000020C749087000BF00BF05B970BDC5487F
:10234000046833E0FFF7EEFC0646E06A50B3E06A4B
:10235000401EE062E06A28BB94F8300000F03700CD
:1023600040B114F8300F00F0C800207001206070F8
:10237000303C02E0002084F8310094F8300000F096
:10238000080078B93434A078B34909780843B249D1
:1023900008702078B149085C6178084314F8341952
:1023A000AE4A505464693046FFF7C0FC94F83200DE
:1023B0003F28C7D100BFC1E74FF492707047704704
:1023C00010B590F8342001F10B039B5C90F8354078
:1023D000A34301F10B04A35423469B5C23B98B7ADE
:1023E00090F83640A3438B7210BD2DE9F04F05469F
:1023F0000F4690469946A87A99490E5C05F10B0064
:10240000805D11F800B00BEBC60000F0FF0A8948B0
:1024100050F82A4000202034E0602760207C20EA29
:102420000800207484F81190207C203C00F0080003
:1024300068B994F8360088490978084386490870D5
:102440008648805D94F835100843844988552946AC
:102450002046FFF7B5FF5046BDE8F08F10B5774A2C
:102460001268D061754A126892F8343000F10B029C
:10247000D25C724B1B6893F835301A436F4B1B6864
:1024800093F8344000F10B031A55827A6B4B1B68AA
:1024900093F836301A438272684A126892F8341000
:1024A0006E4A525C654B1B6893F835309A436B4B10
:1024B0005A541A46525C42B9604A126892F8363051
:1024C000654A12789A43644B1A7010BD0146002287
:1024D0008A72002005E0002301F10B021354421C14
:1024E000D0B20828F7D3704705E011F8013B00F897
:1024F000013B531E9AB2002AF7D1704701460020D3
:1025000002E0491C421CD0B20A78002AF9D1704777
:102510002DE9F84F05460F4690469946DDE90AAB8E
:1025200000200090FFF7FEFB00904E480468002C4E
:1025300075D0183454F8040C4A4908600098FFF725
:10254000F5FB44F8187CA576002020766076606163
:1025500044F814BC44F80CAC44F8108C0C9824F8E3
:10256000080C24F8069C0020E077E810207705F09E
:102570000700E076217F01208840A077E17E0120DE
:102580008840607700206060E060A0602062A06208
:102590006062E0622063AFF278306063183C00262E
:1025A00006E0002104F1500040F82610701CC6B26D
:1025B000002EF6D02046FFF771FB2046FFF71CFBEC
:1025C000FFF7B0FB00901B4840F825402148006809
:1025D00060610020A0611F48006810B11D480068BC
:1025E00084611C4804603434A0781B49097808438E
:1025F0001949087020781949085C6178084314F873
:102600003419164A505418480078401C164908706E
:102610000098FFF78BFB0020BDE8F88FFFE70098DC
:10262000FFF784FB4220F7E75E0000205400002003
:10263000530000204C0A00206C00002064000020A1
:102640006000002048000020500000207C00002096
:10265000740000207000002055000020560000206B
:1026600084640008680000205F0000202DE9F05F0E
:1026700004460F4691461E464FF0000B2078052871
:1026800004D0012030700020BDE8F09F09F0800ADE
:10269000BAF1000F04D029F080094FF0010801E0E1
:1026A0004FF0000800203070FFF73CFB8346B9F183
:1026B000000F2CD0B9F1010F3BD0B9F1020F03D0BC
:1026C000B9F1030F46D111E0208900EA0705BD42A8
:1026D00006D1B8F1010F05D12089A843208101E07E
:1026E000702030705846FFF721FB3AE0208900EA5D
:1026F000070535B1B8F1010F05D12089A843208124
:1027000001E0702030705846FFF710FB29E0208967
:1027100027EA0005BD4206D1B8F1010F05D1208995
:102720002843208101E0702030705846FFF7FEFA00
:1027300017E0208927EA000535B1B8F1010F05D16E
:1027400020892843208101E0702030705846FFF72F
:10275000EDFA06E05846FFF7E9FA00256F203070E1
:1027600000BF00BF28468FE72DE9F04106460D4621
:102770000027FA48007820B1102028700020BDE81A
:10278000F081FFF7CFFA0746F548046884B1006886
:102790004068F349086005202070268100206060B1
:1027A000F0A0E0603846FFF7C1FA0020287004E08E
:1027B0003846FFF7BBFA722028702046DFE730B5B5
:1027C00001464A6808682AB9CC68606028B10025CB
:1027D000456002E0106000B142608B6800255D62D8
:1027E00030BDF0B506460F46B4680020283460605E
:1027F0002780207A00F0DF00207200206072207AAB
:10280000283C88B93434A078D74909780843D64998
:1028100008702078D549085C6178084314F83419A9
:10282000D24A5054012500E000253046FFF7C7FF8B
:102830002846F0BD2DE9F0470446894615464FF07D
:10284000000AC648007820B10F2028702046BDE855
:10285000F0872078052803D0012028702046F6E76D
:10286000FFF760FA8246606808B1012700E00027A0
:10287000B9F1000F03D0B9F1010F3CD119E08FB9C4
:10288000B8A0E06000202070B548006860600020BB
:102890002081B34804605046FFF748FA00202870B2
:1028A000002605E05046FFF741FA492028702646E9
:1028B00028E0D4F8048005E000214046FFF791FFAE
:1028C000D8F80080B8F1000FF6D1A6A0E060002093
:1028D0002070A3480068606000202081A048046048
:1028E0005046FFF723FA012F01D1FFF723FC002008
:1028F0002870002606E05046FFF718FA07202870D7
:10290000264600BF00BF3046A1E72DE9F04105464D
:102910000E46144600279148007820B111202070FF
:102920000020BDE8F081FFF7FDF90746287805286B
:1029300006D03846FFF7FAF9012020700020F0E7B2
:10294000E86830603068FFF7D9FD80463846FFF709
:10295000EDF9002020704046E3E72DE9F0410546FF
:102960000E46144600277D48007818B112202070CA
:10297000BDE8F081FFF7D6F907462878052805D08D
:102980003846FFF7D3F901202070F1E7EE603846B2
:10299000FFF7CCF90020207000BFE9E7F0B514463E
:1029A000059E734F3F6897F8307047F02007DFF8B7
:1029B000C0C1DCF800C08CF830700027DFF8B0C16F
:1029C000DCF800C08CF83170694F3F68FE62684FD8
:1029D0003F6879620C828B74654F3F688F604768EF
:1029E0000F6000274F60C860456805B169604160AD
:1029F0005F4F3F6897F834205C4FBF5CDFF870C1D1
:102A0000DCF800C09CF835C027EA0C07DFF85CC191
:102A10000CF802706746BF5C5FB9554F3F6897F886
:102A200036C0514F3F7827EA0C07DFF83CC18CF8DD
:102A30000070F0BD2DE9F04F89B005460F46914674
:102A40009A46129E002002904448007828B1022045
:102A50003070002009B0BDE8F08F4648007818B10A
:102A60000D2030700020F5E72878052803D00120DC
:102A700030700020EEE709F0800BBBF1000F04D0AE
:102A800009F07F094FF0010801E04FF00008FFF75F
:102A900049F90290B9F1000F4AD0B9F1010F78D08D
:102AA000B9F1020F03D0B9F1030F71D120E02889E9
:102AB00000EA0704BC420FD1B8F1010F02D1288906
:102AC000A04328812A48006804850298FFF72EF960
:102AD000002030702046BDE74B463A4604A9284600
:102AE000CDF800A0FFF75AFF0298FFF71FF978E032
:102AF000288900EA07047CB1B8F1010F02D12889C6
:102B0000A04328811A48006804850298FFF70EF94F
:102B10000020307020469DE74B463A4604A92846DF
:102B2000CDF800A0FFF73AFF0298FFF7FFF858E052
:102B3000288927EA0004BC421ED1B8F1010F02D156
:102B40002889204328810A48006804850298FFF7F5
:102B5000EDF80020307020467CE71AE0510000209C
:102B6000400000203F0000005500002056000020DB
:102B700064000020520000204B463A4604A9284633
:102B8000CDF800A0FFF70AFF0298FFF7CFF828E082
:102B90001FE0288927EA00047CB1B8F1010F02D1B7
:102BA000288920432881B148006804850298FFF7EE
:102BB000BDF80020307020464CE74B463A4604A949
:102BC0002846CDF800A0FFF7E9FE0298FFF7AEF81F
:102BD00007E00298FFF7AAF800246F203070204623
:102BE00038E700BFFFF7A6FAFFF79CF802909F486E
:102BF000006890F8310020B39C48006890F83100DC
:102C0000039000209949096881F8310004A8FFF772
:102C1000D6FD00209549096881F830000298FFF739
:102C200085F800240398012805D0022802D10E203F
:102C3000307003E000BF0A20307000BF00BF2046A4
:102C400008E78A480068048DB8F1010F1ED1B9F178
:102C5000000F0ED0B9F1010F0CD0B9F1020F03D063
:102C6000B9F1030F0AD100E000BF2889A0432881F1
:102C70000BE000BF28892043288106E00298FFF777
:102C800055F86F2030700020E4E600BF0298FFF78F
:102C90004DF8002030702046DCE670B50025FFF7C7
:102CA00041F8054671480068048D2846FFF73EF854
:102CB000204670BD2DE9FC5F0446894692461E46BB
:102CC000002000902078052804D0012030700020DA
:102CD000BDE8FC9FFFF726F80090BAF1000F03D083
:102CE000BAF1010F0AD104E0208920EA090020810D
:102CF0000BE0208940EA0900208106E00098FFF7F8
:102D000015F8712030700020E2E700BF4FF0000B93
:102D1000656855E0A87C40B3012838D0022802D06D
:102D2000032844D111E02089298A00EA0107288A72
:102D3000B84209D139462846FFF753FD8046B8F11D
:102D4000010F01D14FF0010B38E02089298A00EAF8
:102D500001074FB139462846FFF743FD8046B8F1D9
:102D6000010F01D14FF0010B28E0288A218920EAC8
:102D70000107288AB84209D139462846FFF731FDB4
:102D80008046B8F1010F01D14FF0010B16E0288AFF
:102D9000218920EA01074FB139462846FFF721FD76
:102DA0008046B8F1010F01D14FF0010B06E0009809
:102DB000FEF7BCFF6F203070002089E700BF2D6850
:102DC000002DA7D10098FEF7B1FFBBF1010F01D193
:102DD000FFF7B0F9FEF7A6FF009020890190009858
:102DE000FEF7A4FF00203070019871E72DE9F04153
:102DF00004460D4600272078052804D001202870BD
:102E00000020BDE8F081FEF78DFF07462689384691
:102E1000FEF78CFF002028703046F2E72DE9F041E4
:102E200050211348FFF772F800250EE0681C86B2A7
:102E30000F4800EB051400EB0617002020706760B8
:102E4000AFF2E020E060681C85B2042DEED30848A4
:102E500000EB0514002020706060AFF2F820E06005
:102E6000034804490860BDE8F081000064000020C8
:102E7000FC050020400000202DE9F04106460D46EB
:102E80004FF000083078022804D00120287000207C
:102E9000BDE8F081FEF746FF80467468E08A78B1AD
:102EA0002169081D20610F68E08A401EE082A16848
:102EB0002069884201D1606820610020287002E00A
:102EC0001F20287000274046FEF730FF3846DFE716
:102ED0002DE9F04106460F464FF00008F74800780C
:102EE00010B10020BDE8F081FEF71CFF8046F448D9
:102EF0000568006820B1F24800684068F049086041
:102F00004046FEF713FF3DB3FEF70CFF8046ED4849
:102F10000468C4B100680068EA4908604046FEF7EA
:102F200005FF666006EB8700A060E6602661A78269
:102F30000020E08202202870002028816C60284652
:102F4000FFF7C4FA08E0DE4800686860DC48056006
:102F50004046FEF7EBFE00252846C3E72DE9F04783
:102F60000446894615464FF0000A2078022804D00E
:102F7000012028702046BDE8F087D048007818B1BD
:102F80000F2028702046F6E7FEF7CCFE8246A07A96
:102F900010B14FF0010801E04FF00008B9F1000F47
:102FA00003D0B9F1010F45D11FE0B8F1000F15D1E1
:102FB0006668C44800683060C2480660002020701F
:102FC000BF480068606000202081BD480460504612
:102FD000FEF7ACFE00202870002705E05046FEF703
:102FE000A5FE4920287027462BE005E00023042297
:102FF00019462046FFF7F9F9A07A0028F6D166684D
:10300000B04800683060AF48066000202070AC48CF
:103010000068606000202081A94804605046FEF7E7
:1030200085FEB8F1010F01D1FFF784F80020287068
:10303000002706E05046FEF779FE07202870274655
:1030400000BF00BF384696E770B505460026FEF77C
:1030500069FE06466C686068E06060682061002078
:10306000E0823046FEF762FE002070BD2DE9F04799
:103070000746884615464FF000093878022804D0E4
:10308000012028700020BDE8F0878C48007818B136
:10309000022028700020F6E78B48007818B10D2038
:1030A00028700020EFE7FEF73DFE81467C68E08A4D
:1030B00098B12169081D20610E68E08A401EE082F7
:1030C000A1682069884201D1606820614846FEF706
:1030D0002DFE002028703046D5E77C48006890F827
:1030E000300040F004007949096881F83000002080
:1030F0007649096881F8310074480068C0F82C806E
:103100003846FFF7ABF94846FEF710FEFFF712F816
:10311000FEF708FE81466D48006890F8310020B146
:1031200001280DD002280AD105E068480068066A27
:10313000002028700DE000260E20287009E000BF56
:10314000394662480068FFF73BF900260A202870DC
:1031500000BF00BF00205D49096881F830005B496D
:10316000096881F8310059490968C86157490968F7
:1031700008624846FEF7DAFD304684E72DE9F04163
:1031800004460F4615464FF000082078022804D068
:10319000012028700020BDE8F081FEF7C3FD8046C5
:1031A000A07A20B300267FB1012F0CD107E00223C3
:1031B000042200212046FFF718F9701CC6B2A07A3D
:1031C0000028F4D109E000BF022304220021204698
:1031D000FFF70BF9701CC6B200BF00BF4046FEF7F8
:1031E000A5FDFEF7A7FF0E2028703046D3E7404626
:1031F000FEF79CFD0020287000BFCCE72DE9F041D0
:1032000005460E4600272878022802D00120BDE896
:10321000F081FEF787FD0746A87A60B100230422FB
:1032200031462846FFF7E1F83846FEF77FFDFEF706
:1032300081FF0020EBE76C68E08AA18A884204DB0A
:103240003846FEF773FD1E20E1E7E168081DE060E7
:103250000E60E08A401CE082D4E90210884201D16D
:103260006068E0603846FEF761FD0020CFE72DE999
:10327000F04105460E4600272878022802D001209A
:10328000BDE8F081FEF74EFD0746A87A60B1002345
:10329000042231462846FFF7A8F83846FEF746FDD7
:1032A000FEF748FF0020EBE76C68E08AA18A8842BD
:1032B0000EDB3846FEF73AFD1E20E1E75100002004
:1032C0003C00002078000020520000206400002014
:1032D00061682069884201D1A06820612069001FCF
:1032E000206120690660E08A401CE0823846FEF7D3
:1032F0001DFD0020C4E72DE9F04105460F461646A6
:103300004FF000082878022802D00120BDE8F081A3
:10331000FEF708FD8046A87AE8B106F0010050B13A
:1033200005E00023042239462846FFF75EF8A87A14
:103330000028F6D105E00023042239462846FFF78D
:1033400054F84046FEF7F2FC06F0040008B9FEF718
:10335000F1FE0020DAE76C68E08AA18A884204DB8B
:103360004046FEF7E3FC1E20D0E706F0020058B10D
:1033700061682069884201D1A06820612069001F2E
:1033800020612069076009E0E168081DE0600F60C6
:10339000D4E90210884201D16068E060E08A401CF4
:1033A000E0824046FEF7C2FC0020AFE72DE9F0477F
:1033B00005460C464FF0000A2878022802D001206A
:1033C000BDE8F087FEF7AEFC8246A87A207405F1CE
:1033D0000B0804F10809002705E018F8010B09F8AB
:1033E000010B781CC7B2082FF7D36E68F08A18B1AA
:1033F00030690068206001E000202060F08AA08031
:10340000B08AE0805046FEF791FC0020D8E72DE915
:10341000F04178211048FEF779FD00240DE0601C92
:1034200086B204EB44000C4901EBC00506EB4600F4
:1034300001EBC0072F60601C84B2042CEFD304EBB7
:103440004400054901EBC0050020286008460349F7
:103450000860BDE8F0810000E40F00207800002043
:1034600070B5044600262078032801D0002070BDE6
:10347000FEF758FC0646258915B12089401E20819B
:103480003046FEF753FC2846F1E770B505460026A6
:10349000D248007808B1002070BDFEF743FC064614
:1034A000CF480468006820B1CD4800684068CC4926
:1034B00008603046FEF73AFC3CB1032020702581BD
:1034C000002060602046FFF701F82046E4E72DE980
:1034D000F0470446884615464FF000092078032837
:1034E00004D0012028702046BDE8F087BB48007852
:1034F00018B10F2028702046F6E7FEF713FC81462E
:10350000A07A08B1012700E00027B8F1000F03D02E
:10351000B8F1010F35D117E07FB900202070B04815
:103520000068606000202081AD4804604846FEF7D6
:10353000FDFB00202870002605E04846FEF7F6FB5C
:1035400049202870264623E005E000230122194681
:103550002046FEF74AFFA07A0028F6D12070A04846
:1035600000686060002020819D4804604846FEF7A6
:10357000DDFB012F01D1FEF7DDFD002028700026C4
:1035800006E04846FEF7D2FB07202870264600BF1B
:1035900000BF3046A8E72DE9F04105460E46144627
:1035A00000272878032803D001202070BDE8F0818F
:1035B0008A48007810B102202070F7E78948007827
:1035C00010B10D202070F1E7FEF7ACFB074628890B
:1035D00040B12889401E28813846FEF7A7FB00200D
:1035E0002070E3E78048006890F8300040F0010068
:1035F0007D49096881F8300000207B49096881F81D
:10360000310079480068C6622846FEF727FF384631
:10361000FEF78CFBFEF78EFDFEF784FB0746724833
:10362000006890F8310020B1012809D0022806D1A5
:1036300002E0002020700BE00E20207008E000BFA8
:10364000294669480068FEF7BBFE0A20207000BFCB
:1036500000BF00206449096881F8300062490968A8
:1036600081F8310060490968C8613846FEF75EFBA1
:1036700000BF9BE72DE9F04104460F4615464FF089
:1036800000082078032804D0012028700020BDE81D
:10369000F081FEF747FB8046A07A20B300267FB179
:1036A000012F0CD107E00223012200212046FEF762
:1036B0009CFE701CC6B2A07A0028F4D109E000BFBD
:1036C0000223012200212046FEF78FFE701CC6B2A5
:1036D00000BF00BF4046FEF729FBFEF72BFD0E2082
:1036E00028703046D3E74046FEF720FB00202870C4
:1036F00000BFCCE770B5044600252078032801D030
:10370000012070BDFEF70EFB0546A07A60B10023D4
:10371000012219462046FEF768FE2846FEF706FB02
:10372000FEF708FD0020ECE720894FF6FF71884284
:1037300007D22089401C20812846FEF7F7FA002096
:10374000DFE72846FEF7F2FA3320DAE72DE9F04703
:1037500004460D464FF000092078032802D00120CE
:10376000BDE8F087FEF7DEFA8146A07AA87204F180
:103770000B0705F10208002605E017F8010B08F811
:10378000010B701CC6B2082EF7D32089288048464A
:10379000FEF7CCFA0020E3E72DE9F04104460E469F
:1037A000154600272078032803D001202870BDE8A3
:1037B000F081FEF7B7FA074600202870208908B18B
:1037C000268105E0A07A08B9268101E04920287009
:1037D0003846FEF7ABFA00BFE9E7000051000020D1
:1037E0003C00002052000020640000202DE9FF5F13
:1037F0008146884600200090FEF794FA0090F94830
:1038000050F8280030B10098FEF790FA282004B054
:10381000BDE8F09FB9F1FF0F03D1F348006890F8BD
:103820003290F04850F8294024B90098FEF77EFA0B
:103830002920ECE7012C04D10098FEF777FA432009
:10384000E5E74FEAE80708F0070003900120B840D9
:1038500000F0FF0A01210398814001F0FF0B0020D6
:10386000E04941F82900084640F8284014F8346F30
:10387000A07802906078343C0190DC48815D01982A
:103880000140D1B1D948805D01998843D749885515
:103890000846805D28B9D648007802998843D44903
:1038A0000870D348007840EA0A00D1490870CF4830
:1038B000C05D40EA0B00CD49C855E569D5B105F1B9
:1038C0000B00805D0199884305F10B01885508467E
:1038D000805D18B9A87A02998843A872A87A40EA4C
:1038E0000A00A87205F10B00C05D40EA0B0005F16B
:1038F0000B01C85584F8328084F83470039884F83A
:10390000330084F836A084F835B00098FEF70EFA3C
:10391000B8480078012801D1FEF70CFC002076E7BA
:103920002DE9FE4F06460F4690461C464FF0000913
:10393000FEF7F8F98146B048007828B14846FEF70E
:10394000F5F93C20BDE8FE8FA64850F8240060BB86
:103950000120A44941F824004846FEF7E7F9002376
:10396000424639463046FEF74CF982460020009028
:10397000019003460246514602902046FEF7C8FDDC
:10398000054635B99B48007801280CD1FEF7D2FBDB
:1039900009E0FEF7C7F981460020924941F824006A
:1039A0004846FEF7C3F92846CCE74846FEF7BEF97D
:1039B0002820C7E702F0010343B102F002032BB154
:1039C00002E0491E002308C00029FAD170472DE902
:1039D000F04F85B081468A4693461C46DDE90F7854
:1039E000129D00200390FEF79DF903908248007815
:1039F00030B10398FEF79AF93C2005B0BDE8F08F8E
:103A0000784850F8240088BB0120764941F824000A
:103A10000398FEF78BF92A4641463846FFF7CAFF5E
:103A20002B465A4651464846FEF7EBF8049011984B
:103A3000CDE9008002953A4620460E9B0499FEF798
:103A400067FD064636B96B48007801280CD1FEF7B1
:103A500071FB09E0FEF766F903900020614941F827
:103A600024000398FEF762F93046C6E7FFE70398A3
:103A7000FEF75CF92820C0E72DE9F0410546002754
:103A80005D48007810B14020BDE8F0813F2D01D1A4
:103A90003E20F9E7FEF746F90746FF2D03D15248CD
:103AA000006890F832504F4850F8254024B9384605
:103AB000FEF73CF94320E7E7012C04D13846FEF736
:103AC00035F93D20E0E714F8340F4849085C617887
:103AD00088432178454A505414F834091146085C4B
:103AE00030B994F83610424800788843404908704D
:103AF000E06918B12046E169FEF762FC666A16B11A
:103B00003046FEF75CFE0020E06284F8300084F866
:103B100031003A480078FF2804D238480078401C29
:103B2000364908703846FEF701F9FEF748FCFEF703
:103B3000F9F807463148007820B130480078401E37
:103B40002E4908702046FEF758F82D480078401E90
:103B50002B4908700020234941F82500A06930B99D
:103B600000206169886127496069086005E0D4E93F
:103B700005014861D4E90510886123480068606147
:103B80002148046021A0E0643846FEF7CFF81948C8
:103B90000078012801D1FEF7CDFA002074E72DE965
:103BA000F041044600273F2C02D13E20BDE8F081C1
:103BB000FF2C0BD1FEF7B6F807460B48006890F8CB
:103BC00037603846FEF7B2F83046EFE7FEF7AAF85E
:103BD0000746044850F82450D5B93846FEF7A6F8F1
:103BE0004320E3E74C0A0020640000205600002038
:103BF000550000205E0000205100002052000020EF
:103C00005F00002070000020680000203F000000DE
:103C1000012D04D13846FEF789F83D20C6E73F2044
:103C200085F837003846FEF781F80020BEE72DE919
:103C3000F04706460F4614464FF00008D548007876
:103C400020B1112020700020BDE8F087FEF76AF84F
:103C50008046FF2E03D1D048006890F83260CF48EC
:103C600050F8265035B94046FEF760F843202070E2
:103C70000020E9E7012D06D14046FEF757F8432022
:103C800020700020E0E7E86C38603868FEF736FC0A
:103C900081464046FEF74AF8002020704846D3E7A8
:103CA0002DE9F04106460F4614464FF00008B9488A
:103CB000007818B112202070BDE8F081FEF732F8CC
:103CC0008046FF2E03D1B448006890F83260B348B4
:103CD00050F826502DB94046FEF728F843202070B2
:103CE000EAE7012D05D14046FEF720F84320207079
:103CF000E2E7EF644046FEF719F80020207000BFAD
:103D0000DAE770B505460026FEF70CF80646A3482C
:103D100050F8254024B93046FEF708F8462070BD1B
:103D2000012C04D13046FEF701F84320F7E794F860
:103D3000300000F0080060B314F8300F00F0F70016
:103D4000207014F83009F8B9E06AC8B93434A078A2
:103D50009349097808439249087020789149085C92
:103D60006178084314F834198E4A50543046FDF7F0
:103D7000DDFF8D480078012809D1FEF7DBF906E068
:103D80003046FDF7D3FF02E03046FDF7CFFF0020BD
:103D9000C5E73046FDF7CAFF4420C0E72DE9F047EC
:103DA00007460D464FF0000A002028606860FDF7C6
:103DB000B9FF8246FF2F03D17748006890F8327030
:103DC000764850F827402CB95046FDF7AFFF432006
:103DD000BDE8F087012C04D15046FDF7A7FF432032
:103DE000F6E7207C00F0010020B95046FDF79EFF69
:103DF0004520EDE70026D4F80C90D4F80880504612
:103E0000FDF794FF00E0761C58F8041B0029FAD057
:103E10002E60A9EB060068600020D9E72DE9F0418B
:103E200005464FF00008FDF77DFF8046FF2D05D1C8
:103E30005948006890F83250012608E0564800685A
:103E400090F83200A84201D1012600E00026534834
:103E500050F825402CB94046FDF768FF4820BDE8E2
:103E6000F081012C04D14046FDF760FF4320F6E7C6
:103E700094F834704B48C05D94F835108843494934
:103E8000C8550846C05D30B994F8361044480078EB
:103E900088434349087094F8300040F0080084F8E3
:103EA00030004046FDF742FF012E01D1FEF742F9F6
:103EB0000020D4E72DE9F04105460E460027FDF726
:103EC00031FF0746FF2D03D13348006890F8325088
:103ED000324850F825402CB93846FDF727FF2920F5
:103EE000BDE8F081012C04D13846FDF71FFF4320C7
:103EF000F6E7542221463046FEF7F6FA3846FDF73B
:103F000015FF0020ECE72DE9F04704460E46174662
:103F10004FF00009FDF706FF8146FF2C02D11E4835
:103F2000056802E01D4850F8245005F1500050F893
:103F300026804846FDF7FAFE002038704046BDE86E
:103F4000F0872DE9F04704460E46174698464FF095
:103F50000009FDF7E7FE8146FF2C02D10E480568F7
:103F600002E00E4850F8245005F1500040F8267049
:103F70004846FDF7DBFE002088F80000BDE8F0872A
:103F800010B505480068FDF73AFEFF20FFF774FD05
:103F900010BD000051000020640000204C0A0020E9
:103FA00055000020560000205E00002070B5054638
:103FB00000266348007800B170BD6248007800B107
:103FC000FAE71DB3FDF7AEFE06465F48006890F8BD
:103FD00034405E48005D5C49096891F835108843BB
:103FE0005A4908550846005D40B95748006890F89E
:103FF0003610574800788843554908705248006881
:10400000C5623046FDF792FEFEF794F800BFD3E795
:104010002DE9F04104460D4616461F4648480078F3
:1040200010B15520BDE8F0814648007808B1322033
:10403000F8E7B81CC82148434FF47A71B0FBF1F19E
:104040004FF461606043C5EB051200EB8200304421
:1040500000EBC00202EB001001EBC0084046FFF786
:10406000A5FF0020DEE770B5054600263F2D01D3F1
:104070002A2070BDFDF756FE0646364850F825400A
:1040800024B93046FDF752FE4320F2E7012C04D15B
:104090003046FDF74BFE4320EBE7E06A20B930469F
:1040A000FDF744FE5020E4E70020E06294F8300081
:1040B00000F0370040B114F8300F20F037002070C6
:1040C00001206070303C02E0002084F8310094F858
:1040D000300000F00800A8B93434A0781C490978F1
:1040E00008431B49087020781849085C6178084328
:1040F00014F83419154A50543046FDF717FEFEF7F0
:1041000019F802E03046FDF711FE0020B1E770B566
:104110000025FDF707FE05460F4804682846FDF711
:1041200005FE204670BD70B504460025FDF7FAFD7A
:104130000546094804602846FDF7F8FD70BD0000FB
:104140005100002052000020640000205600002092
:10415000550000204C0A00207C000020F848006830
:1041600008B900207047F6480168F54AC868106031
:104170000020C8600861F3480088401CF14A1080A4
:10418000F1480088401EF04A10800846EAE72DE911
:10419000F05F06460F4690469946DDE90ABA0C9D47
:1041A000EA48007820B18B2028700020BDE8F09FFD
:1041B000FDF7A7FFFFF7D2FF04462CB9FDF7E6FF96
:1041C000862028700020F1E7012084F82500A661F0
:1041D000E76184F82480C4F80490C4F808B0BAF108
:1041E000000F02D1DAA0206201E0C4F820A0FDF7A0
:1041F000CDFF002028702046D8E7002180F8251048
:1042000080F82410C161416141608160D0A10162E8
:1042100000210161CA490968C160C9490860C949EA
:104220000988491EC74A1180C7490988491CC64ADE
:104230001180704730B5057D05F00704C54D05EBCD
:10424000C4031D68854205D1C168196039B10025D4
:104250000D6104E00169C268CA6002B11161012503
:1042600080F825500025C56005619D886D1E9D80E4
:1042700030BD70B505460C462878642803D08920E7
:104280002070002070BDB148007818B18B202070DC
:104290000020F7E7FDF735FF95F82500D8B1012894
:1042A0000FD002280ED003281BD12846FFF7C2FFEB
:1042B0002846FFF7A2FFFDF769FF002020700120CC
:1042C000E0E700BF2846FFF798FFFDF75FFF0020FB
:1042D00020700120D6E7FDF759FF872020700020CD
:1042E000D0E7FDF753FF8D2020700020CAE72DE9AD
:1042F000F04105460E4614462878642804D08920EB
:1043000020700020BDE8F0819048007818B111209D
:1043100020700020F6E7FDF7F4FE95F8250098B12F
:10432000012804D0022803D0032813D100BF00BF06
:10433000286A30603068FEF7E1F80746FDF726FF8F
:10434000002020703846DDE7FDF720FF8720207031
:104350000020D7E7FDF71AFF8D2020700020D1E75D
:1043600070B504460D462078642803D08920287053
:10437000002070BD7548007818B18B20287000208F
:10438000F7E7FDF7BEFE94F8250070B301280DD0C5
:10439000022825D003282FD16F4960690968461A81
:1043A000FDF7F4FE002028703046E2E794F8240080
:1043B00001280CD0022809D1A06908B9E66900E0FB
:1043C000A669FDF7E3FE0020287006E000BFA6699D
:1043D000FDF7DCFE0020287000BF00BF3046C8E7B4
:1043E000FDF7D4FE00202870C3E7FFE7FDF7CEFEFF
:1043F000872028700020BCE7FDF7C8FE8D202870BC
:104400000020B6E770B505460C462878642803D02E
:1044100089202070002070BD4C48007818B18B2096
:1044200020700020F7E7FDF76CFE95F8256036B1A7
:10443000012E05D0022E04D0032E06D102E000BFCB
:1044400000BF00BF0020207002E08D20207000BF60
:1044500000BFFDF79BFE3046DDE770B50B46032538
:1044600080F82550012B05D13B4EC569366835448F
:1044700045610CE085692DB9374EC569366835440C
:10448000456104E0344E8569366835444561057DF3
:1044900005F007042F4D05EBC4010D682DB9086028
:1044A0000025C56001258D8006E00A680860C260AD
:1044B00010618D886D1C8D800025056170BD70B503
:1044C00005460C462878642803D0892020700020F7
:1044D00070BD1E48007818B18B2020700020F7E7CF
:1044E000FDF70FFE95F82500E8B1012810D002284D
:1044F0000FD003281DD12846FFF79CFE0021284637
:10450000FFF7ABFFFDF742FE002020700120DFE740
:1045100000BF00212846FFF7A0FFFDF737FE00206F
:1045200020700120D4E7FDF731FE872020700020A5
:10453000CEE7FDF72BFE8D2020700020C8E700009D
:104540009000002082000020800000205100002008
:104550003F000000DC140020840000202DE9F04121
:1045600005460F4690461C462878642804D08920CA
:1045700020700020BDE8F0817848007818B18B20C9
:1045800020700020F6E7FDF7BCFD95F82500002817
:1045900032D001282AD0022827D0032832D1284639
:1045A000FFF748FE00202070B7B1032F02D0042F80
:1045B00013D108E06E681EB12846A968B04701E033
:1045C0008F2020700CE06E681EB141462846B0472F
:1045D00001E08F20207003E002E08420207000BF03
:1045E00000BFFDF7D3FD0120C4E700BFFDF7CEFDFE
:1045F0008E2020700120BDE7FDF7C8FD87202070C8
:104600000020B7E7FDF7C2FD8D2020700020B1E744
:1046100010B553480068FFF76DF80446204610BDFA
:1046200008B500BF00BF6A4600214D480068FEF78C
:10463000B2FFFDF766FD4B480068401C4949086021
:104640000846007800F00708474800EBC8073C68B8
:104650001AE0E668434960690968884213D1204638
:10466000FFF7E8FD94F82400022804D10121204638
:10467000FFF7F3FE02E0022084F82500656815B11B
:104680002046A168A8473446002CE2D1FDF77EFD04
:10469000C9E700B587B0032000218022334BCDE964
:1046A0000132CDE903104FF6FD700B46304A009001
:1046B0003048FFF78CF906AA2FA10020FFF7F0FA87
:1046C00007B000BD2DE9F0414FF420712E48FDF7F1
:1046D0001DFC40212448FDF719FC002515E0681C4D
:1046E00086B205EB8500284901EBC00406EB860085
:1046F00001EBC00764202070002084F82500E760EB
:10470000AFF2B4102062681C85B20F2DE7D305EB21
:1047100085001D4901EBC00464202070002084F84E
:104720002500E060AFF2D810206200200D4908603B
:10473000164908801020164908801348154908605A
:104740000120FEF7A2FE144908600020FEF79DFE3E
:1047500003490860FFF79DFFBDE8F081510000208C
:104760008C00002084000020DC140020DC120020DB
:10477000D81400202146000875432F4F532D494976
:1047800020546D72000000005C10002082000020A8
:104790008000002090000020880000201CB50C46FE
:1047A000064B7B4469460090204600F046FA0446DA
:1047B0000020694600F054FA20461CBDBB040000EE
:1047C0000FB400B58DB010A9099000910B904FF077
:1047D000FF300A9000200C90064878440690064866
:1047E00078446A4607900F9909A800F033FC0DB091
:1047F0005DF814FB97080000AF0800002DE9FF5F8B
:104800001D464FF0FF3B91464FF000085F46D5E94B
:104810000146A96901987F1C8847296A8246884712
:104820000028F6D1BAF1FF3F0CD0002E24F4C0646A
:1048300019DD600614D5BAF12B0F09D0BAF12D0F8E
:104840000ED103E0584604B0BDE8F09F44F4806404
:10485000A96901987F1C8847761E8246002E02DDDA
:10486000BAF1300F03D0B9F1000F26D032E0A969B8
:10487000761E01987F1C44F400748847002E8246FF
:1048800005DDBAF1780F06D0BAF1580F03D0B9F1AF
:10489000000F10D01EE0B9F1000F02D0B9F1100FD7
:1048A00018D1A969761E01987F1C24F400748847EA
:1048B0008246102002E0082000E00A20814609E03C
:1048C000A96908FB0908761E01987F1C44F400744E
:1048D00088478246002E05DD4946504600F0A6FB7B
:1048E0000028EDDAE96901988847A00502D46FF045
:1048F0000100A8E7E00725D1600613D5600502D5C1
:10490000C8F1000000E0404629680A1D2A600968D5
:10491000220501D5087015E0220701D5088011E0B5
:1049200008600FE02868011D29600068210502D594
:1049300080F8008006E0210702D5A0F8008001E0A1
:10494000C0F8008038467EE7032A40F2308010F03D
:10495000030C00F0158011F8013BBCF1020F62441A
:1049600098BF11F801CB00F8013B38BF11F8013BAB
:10497000A2F1040298BF00F801CB38BF00F8013B58
:1049800011F0030300F02580083AC0F0088051F8C8
:10499000043B083A51F804CBA0E80810F5E7121DD3
:1049A0005CBF51F8043B40F8043BAFF30080D207F2
:1049B00024BF11F8013B11F801CB48BF11F8012BBE
:1049C00024BF00F8013B00F801CB48BF00F8012BE1
:1049D000704710B5203AC0F00B80B1E81850203A6B
:1049E000A0E81850B1E81850A0E81850BFF4F5AF8F
:1049F0005FEA027C24BFB1E81850A0E8185044BF19
:104A000018C918C0BDE810405FEA827C24BF51F885
:104A1000043B40F8043B08BF7047D20728BF31F879
:104A2000023B48BF11F8012B28BF20F8023B48BFCA
:104A300000F8012B70474FF000020429C0F01280EB
:104A400010F0030C00F01B80CCF1040CBCF1020F41
:104A500018BF00F8012BA8BF20F8022BA1EB0C0116
:104A600000F00DB85FEAC17C24BF00F8012B00F80C
:104A7000012B48BF00F8012B70474FF0000200B532
:104A8000134694469646203922BFA0E80C50A0E871
:104A90000C50B1F12001BFF4F7AF090728BFA0E81F
:104AA0000C5048BF0CC05DF804EB890028BF40F8EB
:104AB000042B08BF704748BF20F8022B11F0804F2D
:104AC00018BF00F8012B704770477047704770B5EA
:104AD000044685690068C10601D5302600E020261D
:104AE000C00707D070BDD4E9012130469047206A45
:104AF000401C20626D1EF6D570BD70B504468569F8
:104B00000078C00707D170BDD4E90121202090476B
:104B1000206A401C20626D1EF6D570BD09684A05EA
:104B200001D540B27047C905FCD500B2704709688D
:104B30004A0501D5C0B27047C905FCD580B270479F
:104B400070B50C460546012A05D02878800600D5A8
:104B5000EA69002302E0012305E05B1C934202D2D4
:104B6000E05C0028F9D1A869E618C01AA861286A93
:104B7000184428622846FFF7AAFF04E0D5E901217E
:104B800014F8010B9047B442F8D32846FFF7B5FF5D
:104B900070BD00002DE9F04106460024106875291B
:104BA000314615A510D0FFF7B9FF002802DA4042C0
:104BB00012A507E031688A0701D511A502E049076F
:104BC00004D510A5012401E0FFF7B1FF00210A235D
:104BD00006F1240707E0B0FBF3F203FB12003030CC
:104BE00078541046491C0028F5D123462A46304601
:104BF000BDE8F04100F0ACBA000000002D0000005C
:104C00002B0000002000000011680268006A5305B4
:104C100001D508700AE0D30501D5088006E0130627
:104C200003D5C217C1E9000200E008600120704707
:104C300001694A1C02610878704700B58FB0CDE960
:104C400001310021059105497944CDE90310114650
:104C5000684600F027F90FB000BD0000E5FFFFFF38
:104C60000A6802F8010B0A60704700002DE9FF5F37
:104C700015468A460446DFF8AC80F8440027D8E998
:104C800000103E46CDE9001010E03AF816106A46D2
:104C900002A800F0A3FE411C07D02178890603D5A5
:104CA000E269391891420DD80744761C20788006B5
:104CB00002D5E069B84205DDAE42E6DB3AF81600FF
:104CC0000028E2D1A069C01BA0612046FFF7FFFECB
:104CD000D8E90010CDE90010002017E03AF81810CC
:104CE0006A4602A800F07AFEB0F1FF3F81460BD081
:104CF00000250DF1080B05E0D4E901211BF80500A2
:104D000090476D1C4D45F7D308F10100B042804635
:104D1000E4DB206A384420622046FFF7EEFEBDE85F
:104D2000FF9F0000061900002DE9F0418046D21DCA
:104D300022F007020025D2E90002F52914A612D0BC
:104D4000002A06DA0023D0EB030063EB020211A66F
:104D500008E0D8F800108B0701D50FA602E049073C
:104D600001D50EA601251146002408F1240704E010
:104D700000F0A0F930323A55641C50EA0102F7D134
:104D80002B46324621464046BDE8F04100F0E0B9EE
:104D9000000000002D0000002B000000200000009B
:104DA00030B4002100F1240408E002F00705D20825
:104DB000303542EA4372DB086554491C52EA030568
:104DC000F3D10468002310A2250708D504F02004BD
:104DD0000C4304D0C46901230CA2641EC46130BC1E
:104DE00000F0B6B910B5044621461068FFF79FFEE3
:104DF00002462046BDE810400023D1E7D21D22F034
:104E00000701D1E90023CBE70000000030000000DB
:104E1000F0B40D460188090502D5214C7C4402E01E
:104E20001F4C7C440E34002100F1240608E002F0FF
:104E30000F071209E75D42EA03721B097754491C08
:104E400052EA0307F3D102780023120704D5702D2C
:104E500006D009B1022311342246F0BC00F078B923
:104E600001231034F8E770B504460D46214610685A
:104E7000FFF75DFE024629462046BDE8704000234C
:104E8000C6E7D21D22F00703D3E90023C0E7036879
:104E9000126843F0200303600823C3610023B7E7CF
:104EA0006C1700002DE9F05F894604464FF0000AB8
:104EB000DFF874B1FB44C0F820A02046E1688847C1
:104EC000002874D0252806D0D4E901219047206A13
:104ED000401C2062F1E700265F462046E1688847D3
:104EE0002028054607DB312D05D2781910F8200C53
:104EF00008B10643F1E7B00701D526F00406C4F86F
:104F00001CA00027C4F818A02A2D09D0284601F0BB
:104F100083FA38B304EB8708303DC8F8185019E01D
:104F200059F8041B204604EB87029161E168884729
:104F3000012F054618D1E069002820DA26F0200666
:104F40001DE0D8F8180000EB800005EB4000303879
:104F5000C8F818002046E1688847054601F05CFA69
:104F60000028EED1012F0AD02E2D08D12046E1686D
:104F700088477F1C0546022F46F02006C4DBA06947
:104F8000002803DA404246F00106A061F00701D094
:104F900026F010066C2D0BD0682D09D04C2D39D081
:104FA0006A2D35D0742D35D07A2D33D016E038E007
:104FB000E1682F4620468847B842054609D16C2F44
:104FC00026D04FF48060E1680643204688470546B6
:104FD00004E06C2F1AD04FF4807006430DB3A5F196
:104FE0004100192802D8203546F400664A46294671
:104FF000204626604E46FBF7D5F880B101280BD03D
:10500000F61D26F0070000F1080956E74020E4E706
:105010008020D8E70020D6E706F104094DE72846AE
:1050200052E7206ABDE8F09FFC1600003A2800D243
:10503000303820F02002412A01D3A2F13700884203
:1050400001D34FF0FF3070470268114413780160BC
:1050500018467047D1600549794451610449794443
:10506000116200211161114600F002BBEDFFFFFF4C
:10507000DD000000426842B1016811F8013B23B134
:10508000521EC0E90012184670470121C160881EF7
:10509000704742685AB1C368016843B983688B425C
:1050A00005D0491E521CC0E90012002070474FF085
:1050B000FF30704730B5B0F10A024FEA900E71F13F
:1050C00000034EEA817EB0EB0E0061EB91014FEAE6
:1050D000101E4EEA017E10EB0E0041EB11114FEA5B
:1050E000102E4EEA016E10EB0E0041EB11214FEA3B
:1050F000104E4EEA014E10EB0E0041EB11414018EC
:1051000041F100014FEAD00040EA41704FEAD1017D
:1051100010EB80054FEA810444EA907444EB0104EB
:105120006D1944EB0404521BA3414FF0000348BF28
:105130000A3200D530BD401C41F1000130BD10B530
:10514000044600F091FC0068005D00F0010010BD15
:105150002DE9F0470D4699469246044600F1240891
:105160000168880604D5E06921F01001216000E0A3
:105170000120A84201DD471B00E00027A1697A1940
:1051800002EB0900081AA0612078C00602D420466C
:10519000FFF79DFC002608E0D4E901211AF806007B
:1051A0009047206A401C761C20624E45F4DB207834
:1051B000C0060AD52046FFF78AFC06E0D4E90121A3
:1051C00030209047206A401C2062381EA7F101075A
:1051D000F4DC07E0D4E9012118F805009047206AC3
:1051E000401C2062281EA5F10105F3DC2046FFF7D4
:1051F00084FC2078000602D50220BDE8F08701205B
:10520000FBE770472DE9FF4F0C461E464FF0FF3776
:105210008BB0D2E90001DDF860800A908A46C1F3C4
:105220000A5505B93D46002108464FF00000BAF185
:10523000000F00F4400005DA00EB80004FF440015D
:1052400001EA50004FEA9059B9F1010F00DDB9466B
:105250000A9850EA4A000ED044F61050A5F2FF35E5
:1052600045432F14B8F1000F1ED07542291E1EDDD4
:10527000C9F100021CE0B8F1010F4FF0000001D0AD
:10528000302103E0F24305E02154401CB042FBDB37
:1052900030460022002121540B99C1F80880C1E951
:1052A00000200FB0BDE8F08FBD1B6D1CDEE74A4645
:1052B00000DA694206A800F023FC06AB93E8070079
:1052C00003AB83E8070050460A9900F0D6FC8DE84E
:1052D0000700A0F500501F3800900398002D09DD4D
:1052E00042F21F014A46084403A90390684600F0B1
:1052F00035FF08E0A0F500504A461F3803A9039087
:10530000684600F03FFF8DE807000004000C03D062
:105310004FF0FF30410800E01046B8F1000F03D015
:105320000022009215461EE0751E05D4FFF7C2FE4E
:10533000303262556D1EF9D5B3460122084302D0C2
:1053400000227F1C04E02078302801D100227F1E3B
:10535000002A099786D01DE0112D07DAFFF7AAFE73
:10536000303262556D1C50EA0102F5D1084302D07B
:105370000098C8B10EE00021681E05E0235C625C65
:1053800063542254401E491C8142F7DBAB46A81BE4
:10539000401E0990002004F80B000B98099AC0F8F1
:1053A0000880C0E9002B7CE711264FF0000859E780
:1053B0002DE9F04F88460446D21D22F0070191B036
:1053C000D1E90001CDE90A0101F012F802460B987B
:1053D000C00F01D02D2007E02068810701D52B20C8
:1053E00002E0202101EAC000032A099001D0072A27
:1053F00005DB03464146204600F042FB09E12078E8
:10540000800601D5E06900E00620B8F1650F81460D
:1054100006D0B8F1660F18D0B8F1670F70D131E03F
:105420000020B9F1110F009001DB112301E009F117
:1054300001030AAA01A90CA8FFF7E4FEDDE90C703C
:10544000002609F10105834647E001204B46009004
:105450004FF000470AAA01A90CA8FFF7D3FEDDE927
:105460000DB00C995D46002610B909F101000D1828
:10547000B9EB050003D4C0F1FF3609F10105A5EB36
:1054800009002BE0B9F1010F01DA4FF0010900200A
:10549000B9F1110F0090484601DD112300E00346E9
:1054A0000AAA01A90CA8FFF7ADFEDDE90C704D4674
:1054B00000268346207800070AD4AB4500DA5D4613
:1054C00001A8012D04DD411911F8011C302907D074
:1054D0004F4502DA17F1040F04DA012082460FE08B
:1054E0006D1EEEE7002F02DCED1B3E4403E0781C4E
:1054F000A84200DD7D1CB81B00F1010A4FF00047F7
:105500002078000703D4AA4501DB4FF0FF3A0021C1
:10551000B7F1004F0DF143088DF8431022D002205F
:105520002B23002F01DA7F422D234FF00A0C011E9E
:10553000A0F1010000DC47B197FBFCF10CFB1172FC
:105540000F46303208F8012DF1E7A8F10100037091
:105550002188090501D5452100E06521A0F1010858
:1055600000F8011C09980FA9A1EB0807FF1D00B165
:105570000120411901EBEA70A1693844081A401E64
:10558000A0612078C00602D42046FFF7A0FA09984F
:1055900028B1D4E901219047206A401C206220787C
:1055A000C00622D52046FFF792FA1EE0002E04DB4B
:1055B000B34502DD01A8805D00E03020D4E901217F
:1055C0009047206A401C2062761CAAF101005FEA25
:1055D000000A0AD100F050FAC0680168405CD4E9C2
:1055E00001219047206A401C2062281EA5F1010578
:1055F000DCDC07E0D4E9012118F8010B9047206AB0
:10560000401C2062381EA7F10107F3DC2046FFF79B
:1056100074FA022011B045E610B5436913B1AFF337
:10562000008001E0FFF78CFA012010BD127800F134
:1056300024010A7000224A700122EDE711684FF040
:10564000FF32E9E710B5436913B1AFF3008001E021
:10565000FFF70CFB012010BD128800F124018284A9
:105660000022C2840122EDE711684FF0FF32E9E722
:105670002DE9F34F4FF0000A0C4656468DB001203D
:105680000C9001F10C000B9062690B98012190477E
:1056900005002DD0252D2CD0216A8847C0B1626924
:1056A0000B9801219047216A88470028F7D1626949
:1056B000411E0B98904700E0761CA1690D98884721
:1056C000216A88470028F7D1E1690D988847DBE710
:1056D000A1690D988847A842074601D1761CD3E7F7
:1056E000E1690D9888477F1C02D1BAF1000F6FD095
:1056F00068E162690B9800273D46394690472A28A1
:1057000004D162690B98012190470125DFF8C88216
:1057100062690B9801219047A0F130010A290AD251
:105720004745E5DC07EB870100EB4107303FDFD45D
:1057300045F01005ECE7E90601D46FF000476C284E
:105740000AD04C2814D0682815D06A280DD07428A7
:105750001CD07A281AD01DE062690B98012190476D
:105760006C2802D045F0040514E045F002050DE078
:1057700045F020050AE062690B98012190476828EE
:1057800002D045F0080505E045F4006562690B9814
:1057900001219047C4E9015765283DD019DC5828FC
:1057A00077D00CDC452837D004DC252826D04128CA
:1057B0009ED131E046282FD0472899D12CE05B2894
:1057C0007DD0612828D0632879D0642823D157E080
:1057D000F3E06F2845D008DC66281DD067281BD071
:1057E000692821D06E2816D127E0702842D073286E
:1057F00065D0752844D078280DD14AE0A1690D986C
:105800008847252805463FF469AFE1690D98884728
:105810006D1C3FF46AAFD5E00D9923466A466FF0E0
:105820000100AFF30080C2E045F0400023464FF096
:1058300000026060A80733D43BE02068011D2160AE
:105840000068290501D506701EE7290701D50680E5
:105850001AE7A90703D5F117C0E9006114E706604C
:1058600012E745F0400023464FF008026060A807A9
:1058700016D41EE040F60E0125EA0100606016E035
:1058800045F0400023464FF00A026060A80707D4A5
:105890000FE045F040006060A80708D523461022BD
:1058A0000D996FF00100AFF3008080E007E0102257
:1058B00023460D996FF00100FEF7A0FF77E04FF04F
:1058C000000963284F46C8464B46CB4602D05B28AA
:1058D00006D038E0E80601D40120A060012732E0BC
:1058E0006269D4F80CB00B98012190475E2807D16B
:1058F0004FF0010949466269D4F80CB00B98904703
:10590000216939B900210B4603AA42F82130491C0C
:105910000829FADBD8B3216949B308F101086269A3
:105920000B98012190475D28F4D1B9F1000F09D0FF
:10593000002003A951F82020D24341F82020401C28
:105940000828F7DB03AB2069002820794FEA407074
:105950001ED05B462246CDF80080CDE901970D9917
:1059600000286FF0010020DAAFF300801FE0C117BC
:1059700000EBD16203A9531122F01F0201EB830156
:10598000821A0B680120904003430B60C7E719E0BF
:105990000D99224600286FF00100009702DAAFF35C
:1059A000008004E0AFF3008001E0AFF30080002846
:1059B0000ADA401C06D10C9820B14FF0FF300FB02E
:1059C000BDE8F08F5046FAE7E90701D10AF1010A74
:1059D000064400200C9057E6CCCCCC0C70B5164693
:1059E0000C46054600F040F8036893F801010128D1
:1059F00006D0FF2C0FD8185D68B101202C7070BD47
:105A0000D3F807013246214603442846BDE87040DA
:105A100003F2071318474FF0FF3070BD754600F0D2
:105A2000E1F8AE4605006946534620F0070085467A
:105A300018B020B5FAF730FDBDE820404FF0000661
:105A40004FF000074FF000084FF0000B21F0070166
:105A5000AC46ACE8C009ACE8C009ACE8C009ACE8A9
:105A6000C0098D467047000010B500F005F8001D14
:105A700010BD00BFE1090000004870473C15002040
:105A80002DE9F0411F46044603260168072A01F468
:105A9000006004DB08B116A505E016A503E008B117
:105AA00015A500E015A521F010002060A069C01E1A
:105AB000A0610FB1401EA0612046FFF708F84FB16A
:105AC000D4E9012138469047206A401C2062C01C5E
:105AD000206206E0206AFAE7D4E9012115F8010BFB
