:020000040800F2
:10000000601D00207D0400087702000879020008C6
:100010007D0200088102000885020008000000003F
:10002000000000000000000000000000890200083D
:100030008B020008000000004F3C00088D02000801
:10004000970400089704000897040008910200082C
:1000500097040008970400088F020008970400081E
:100060003127000897040008970400089704000847
:1000700097040008970400089704000897040008F4
:1000800097040008970400089704000897040008E4
:1000900097040008970400089704000897040008D4
:1000A00097040008970400089704000897040008C4
:1000B00097040008970400089704000897040008B4
:1000C00097040008970400089704000897040008A4
:1000D0009704000857240008952400089704000896
:1000E000AF2600089704000897040008970400084A
:1000F0009704000897040008970400089704000874
:100100009704000897040008970400089704000863
:100110009704000897040008692E00088D2E000837
:100120009704000897040008970400089704000843
:1001300000F002F800F090F80AA090E8000C824469
:100140008344AAF10107DA4501D100F085F8AFF246
:10015000090EBAE80F0013F0010F18BFFB1A43F0A5
:10016000010318478C820000AC820000103A24BFC3
:1001700078C878C1FAD8520724BF30C830C144BF0C
:1001800004680C607047000000230024002500264E
:10019000103A28BF78C1FBD8520728BF30C148BFEA
:1001A0000B6070476E2906F00784702906F04785BA
:1001B000662908F02580652908F02280672908F063
:1001C0001F806129AFF3008003681B0A28BF41F03C
:1001D0008001692906F0B683642906F0B383752986
:1001E00006F0B0836F2906F0D584782906F01385D0
:1001F000E92906F07184E42906F06E84F52906F0F9
:100200006B84EF2906F0D284F82906F01285036882
:10021000DB0928BF41F08001632907F0C4807329FE
:1002200007F0C980E32907F0D480F32907F0D980CB
:10023000002070471FB507F025F9040000200021B9
:1002400007F00EFE401C60600020002107F0F2FD68
:10025000E0601FBD10B510BD07F0E7F81146FFF7CD
:10026000E9FF03F01FFC07F0BDF903B4FFF7F2FF4D
:1002700003BC07F001FA704700BFFEE700BFFEE7CE
:1002800000BFFEE700BFFEE770477047704770474A
:10029000704700000CB50020019000906C48006889
:1002A00040F480306A49086000BF6948006800F483
:1002B000003000900198401C0190009818B90198F6
:1002C000B0F5A06FF1D16248006800F4003010B1C1
:1002D0000120009001E0002000900098012843D107
:1002E0005C48006840F010005A4908600846006801
:1002F00020F0030008600846006840F00200086033
:10030000534840685249486008464068486008467B
:10031000406840F4806048600846406820F47C10E3
:1003200048600846406840F4881048600846006805
:1003300040F08070086000BF4548006800F0007021
:100340000028F9D04248406820F003004049486046
:100350000846406840F00200486000BF3C484068E2
:1003600000F00C000828F9D10CBD10B5FFF792FF82
:1003700010BD10B53648006840F0010034490860EF
:1003800008464068344908403149486008460068DA
:10039000324908402E4908600846006820F4802051
:1003A00008600846406820F4FE0048604FF41F00D3
:1003B0008860FFF7DAFF4FF000602949086010BD40
:1003C00010B5002100200022214B5B6803F00C01D6
:1003D00021B1042906D0082928D107E0214B224C5D
:1003E000236027E0214B204C236023E0184B5B68FF
:1003F00003F47010164B5B6803F48032022303EBA6
:10040000904022B91A4B4343174C23600DE0104B28
:100410005B6803F4003323B1164B4343124C236053
:1004200003E0124B4343104C236003E00D4B0E4C92
:10043000236000BF00BF064B5B68C3F303130E4C81
:10044000E15C094B1B68CB40074C236010BD0000EA
:1004500000100240002002400000FFF8FFFFF6FEFF
:1004600008ED00E000127A0000000020001BB70039
:1004700000093D00808D5B00040000200948804792
:1004800009480047FEE7FEE7FEE7FEE7FEE7FEE776
:10049000FEE7FEE7FEE7FEE704480549054A064B8E
:1004A0007047000073030008310100086015002048
:1004B000601D0020601900206019002031490143AF
:1004C000314A1160704770B5002100230F22C478B3
:1004D00004B32D4C246804F4E064C4F5E064210AFC
:1004E000C1F10403CA40447804FA03F1847814404B
:1004F00021430901254C0678A155047804F01F0515
:100500000124AC4005786D11AD0005F1E025C5F87A
:10051000004109E0047804F01F050124AC401C4DA3
:100520000678761145F8264070BD1A4A0A40024303
:10053000154B1B1F1A60704739B1134A121D126800
:100540000243114B1B1D1A6006E00F4A121D126870
:1005500082430D4B1B1D1A607047042808D14FF0D1
:10056000E021096941F004014FF0E022116107E048
:100570004FF0E021096921F004014FF0E022116100
:10058000704700000000FA050CED00E000E400E018
:1005900080E100E080FFFF1F10B50446CC48844294
:1005A00008D10121042000F02DFB0021042000F0DF
:1005B00029FB46E0C748844208D10121082000F009
:1005C00021FB0021082000F01DFB3AE0C2488442D4
:1005D00008D10121102000F015FB0021102000F0AF
:1005E00011FB2EE0BD48844208D10121202000F0FB
:1005F00009FB0021202000F005FB22E0B8488442DE
:1006000008D10121402000F0FDFA0021402000F037
:10061000F9FA16E0B348844208D10121802000F0A5
:10062000F1FA0021802000F0EDFA0AE0AE488442A1
:1006300007D10121801500F0E5FA0021A01500F096
:10064000E1FA10BD10B50121084600F0DBFA0021E7
:10065000012000F0D7FA10BD2DE9F0410246002537
:100660000026002000230024002791F803C00CF08E
:100670000F0591F803C00CF0100CBCF1000F03D073
:1006800091F802C04CEA050591F800C0BCF1000FDA
:1006900031D0146800202BE04FF0010C0CFA00F36D
:1006A000B1F800C00CEA03069E4220D183004FF04F
:1006B0000F0C0CFA03F7BC4305FA03FC4CEA0404E4
:1006C00091F803C0BCF1280F06D14FF0010C0CFAD1
:1006D00000FCC2F814C00AE091F803C0BCF1480F56
:1006E00005D14FF0010C0CFA00FCC2F810C0401C00
:1006F0000828D1D31460B1F800C0BCF1FF0F34DD7D
:10070000546800202EE000F1080C4FF0010808FAB0
:100710000CF3B1F800C00CEA03069E4221D183001D
:100720004FF00F0C0CFA03F7BC4305FA03FC4CEA3C
:10073000040491F803C0BCF1280F05D100F1080CA6
:1007400008FA0CF8C2F8148091F803C0BCF1480F05
:1007500007D100F1080C4FF0010808FA0CF8C2F8B4
:100760001080401C0828CED35460BDE8F0814FF6BD
:10077000FF710180022181700421C170704702461F
:10078000002093680B400BB1012000E0002070476F
:100790000146886880B2704702460020D3680B404B
:1007A0000BB1012000E0002070470146C86880B20C
:1007B000704701617047416170470AB1016100E013
:1007C00041617047C16070474FF480320A438261D3
:1007D0008161826182698269704702460020434BD1
:1007E00018684FF68073184040EA021008433F4BE8
:1007F000186070473E49C8617047F0B50A4600234B
:1008000000240021002500F00046B6F1004F02D17F
:10081000364EF16901E0354E7168C0F3034583B28D
:1008200000F44016B6F5401F08D121F070612F4E3C
:10083000766826F070662D4F7E6012E000F4801618
:10084000B6F5801F06D1032606FA05F4A14341F050
:10085000706106E0460D360103FA06F6B14341F039
:10086000706122B1460D360103FA06F6314300F0FD
:100870000046B6F1004F02D11C4EF16101E01B4E63
:100880007160F0BD30B500228B071C0F0F2303FAF7
:1008900004F2164B08338C1053F824309343134C56
:1008A00008348D1044F8253023468C1053F824303A
:1008B0008C07240F00FA04F423430C4C08348D10E9
:1008C00044F8253030BD0A49DC310860704700002B
:1008D00000080140000C01400010014000140140DC
:1008E00000180140001C01400020014000000140B0
:1008F00000002042DF48006840F00100DD49086048
:1009000008464068DC490840DA4948600846006803
:10091000DA490840D74908600846006820F480207A
:1009200008600846406820F4FE0048604FF41F004D
:1009300088607047CF49096821F48031CD4A116041
:100940001146096821F480211160B0F5803F03D081
:10095000B0F5802F0ED106E0C649096841F4803118
:10096000C44A116007E0C349096841F4A021C14AA3
:10097000116000E000BF00BF704710B501460022C3
:10098000002300204A11012A02D1BA4C236806E054
:10099000022A02D1B74C236A01E0B64C636A01F027
:1009A0001F02012494401C400CB1012000E00020F3
:1009B00010BD38B5002000900024002500BF312074
:1009C000FFF7DBFF05460098401C00900098B0F54B
:1009D000A06F01D0002DF2D03120FFF7CEFF08B17B
:1009E000012400E00024204638BD01460020A14A31
:1009F000106820F0F80040EAC10010607047A0497C
:100A000008607047024600209A4B586820F47C101A
:100A100042EA01031843974B5860704798490866AB
:100A2000704701460020934A506820F003000843B5
:100A3000506070478F48406800F00C0070470146D6
:100A400000208C4A506820F0F00008435060704746
:100A500001460020874A506820F4E0600843506057
:100A6000704701460020834A506820F4605040EAF5
:100A7000C1005060704729B17E4A527A02437D4BD3
:100A80005A7204E07B4A527A82437A4B5A72704718
:100A90007B49D8310860704701460020754A50688C
:100AA00020F440400843506070470021714A2032D2
:100AB0001170704A82F82010012802D004280AD14F
:100AC00004E001216B4A2032117005E00521694ADA
:100AD0002032117000E000BF00BF70476949086014
:100AE00070476449096A0143624A11627047654967
:100AF00044390860704730B50021002200240023EB
:100B00005C4D6D6805F00C0121B1042905D0082960
:100B100023D105E05C4D056022E05C4D05601FE0DF
:100B2000544D6D6805F47012524D6D6805F48034B3
:100B3000022505EB92421CB9554D554305600BE06B
:100B40004C4D6D6805F400351DB1524D554305609F
:100B500002E04E4D5543056002E04B4D056000BF7D
:100B600000BF444D6D6805F0F00109094A4D6B5C0A
:100B70000568DD4045603F4D6D6805F4E061090A98
:100B8000454D6B5C4568DD4085603A4D6D6805F408
:100B90006051C90A404D6B5C4568DD40C560354D0C
:100BA0006D6805F44041890B3C4D6B5CC568B5FB35
:100BB000F3F5056130BD29B12E4A526902432D4B30
:100BC0005A6104E02B4A526982432A4B5A617047AA
:100BD00029B1284A92690243264B9A6104E0254ACA
:100BE00092698243234B9A61704729B1214AD269A5
:100BF0000243204BDA6104E01E4AD26982431D4B56
:100C0000DA61704729B11B4AD2680243194BDA6096
:100C100004E0184AD2688243164BDA60704729B163
:100C2000144A12690243134B1A6104E0114A126913
:100C30008243104B1A61704712494039086070476F
:100C40000F49C86470470B49C87170470948406A2A
:100C500040F0807007494862704701460020054A0D
:100C600092680A400AB1012000E000207047014963
:100C700088727047001002400000FFF8FFFFF6FE88
:100C8000000042428004424200127A00001BB7007A
:100C900000093D00808D5B0014000020240000202E
:100CA00010B50446FB48844209D101218803FFF7AF
:100CB000A9FF00214FF48040FFF7A4FF32E0F6487F
:100CC000844209D101214804FFF7A9FF00214FF414
:100CD0000030FFF7A4FF25E0F048844209D101214C
:100CE0008804FFF79CFF00214FF48020FFF797FF57
:100CF00018E0EB48844209D10121C804FFF78FFFB7
:100D000000214FF40020FFF78AFF0BE0E548844202
:100D100008D101210805FFF782FF00214FF4801060
:100D2000FFF77DFF10BD2DE9F04786B005460E4662
:100D30000024A24600BFA1460027B08900B100BF31
:100D40002F462C8A4CF6FF700440F08804432C8216
:100D5000AC894EF6F3100440B0883189084371899C
:100D600008430443AC81AC8A4FF6FF400440B0898D
:100D70000443AC8201A8FFF7BEFEC648874202D1F9
:100D8000DDF810A001E0DDF80CA0A88900F4004017
:100D900040B10AEBCA0000EB0A1031684900B0FB11
:100DA000F1F807E00AEBCA0000EB0A10316889008D
:100DB000B0FBF1F86420B8FBF0F0040120096421D5
:100DC00001FB1089A88900F4004040B1322000EBFB
:100DD000C900B0FBF1F000F00700044308E0322046
:100DE00000EB09106421B0FBF1F000F00F000443A8
:100DF0002C8106B0BDE8F0874FF416510160002148
:100E00008180C18001810C21418100218181704755
:100E100010B502460020108A4FF2FF0318400B88DD
:100E20004C8823438C882343CC8823431843108267
:100E300010BD0021018041808180C180704721B1B7
:100E4000828942F40052828104E082894DF6FF7368
:100E50001A4082817047F0B5034600240026002521
:100E6000002040F66A17B94200D100BF1846C1F30E
:100E7000421401F01F06012707FA06F5012C01D1E3
:100E80000C3004E0022C01D1103000E014301AB113
:100E900007682F43076002E00768AF430760F0BDB3
:100EA0001AB1838A0B43838202E0838A8B43838255
:100EB0007047028A4FF6F0731A400282028A0A4390
:100EC0000282704782894FF2FF731A4082818289C1
:100ED0000A438281704721B1828942F002028281F5
:100EE00004E082894FF6FD731A4082817047028ABE
:100EF0004FF6DF731A400282028A0A430282704769
:100F000021B1028A42F48042028204E0028A4BF656
:100F1000FF731A4002827047C1F308028280704753
:100F200001468888C0F308007047818941F00101BB
:100F300081817047028BD2B20283028B42EA012286
:100F400002837047028B02F47F420283028B0A43C2
:100F50000283704721B1828A42F02002828204E03B
:100F6000828A4FF6DF731A408282704721B1828AEB
:100F700042F01002828204E0828A4FF6EF731A4038
:100F80008282704721B1828A42F00802828204E0A4
:100F9000828A4FF6F7731A408282704721B18289A4
:100FA00042F40042828103E08289C2F30E02828110
:100FB000704721B1828A42F40062828204E0828A10
:100FC0004FF2FF731A4082827047828A4FF6FB739A
:100FD0001A408282828A0A438282704721B1828AC1
:100FE00042F00202828204E0828A4FF6FD731A40C8
:100FF0008282704702460020B1F5007F00D100BF19
:1010000013880B400BB1012000E00020704701F471
:101010000072B2F5007F00D100BFCA430280704762
:1010200070B50246002400230025002040F66A1611
:10103000B14200D100BFC1F3421501F01F030126E8
:1010400006FA03F3012D02D19689334006E0022D02
:1010500002D1168A334001E0968A33400C120126F1
:1010600006FA04F41688344013B10CB1012000E0F4
:10107000002070BD10B50022002340F66A14A14282
:1010800000D100BF0A1201249440A3B2DC430480C3
:1010900010BD0000003801400044004000480040FE
:1010A000004C004000500040002044490860091DE9
:1010B0000860091D0860091D086041483F49143156
:1010C0000860704700213D498279002A3AD00A46DB
:1010D000126803689A430B461A600A1D1268036877
:1010E0009A430B1D1A60027911440A6803681A4377
:1010F0000A60324A0832126803689A432F4B083359
:101100001A601A1D126803689A432C4B0C331A603C
:101110004279102A0ED11A1F126803681A43274B0E
:1011200008331A601A1D126803681A43234B0C33E4
:101130001A600DE02149427911440A6803681A4394
:101140000A6005E0027911440A6803689A430A605C
:1011500070470021016001710C21417100218171F2
:1011600070471649103109680143144A1032116062
:10117000704701460020114A143212680A400AB131
:10118000012000E0002070470C49143108607047CE
:10119000014600200022094B1B6803EA0102074BAD
:1011A00014331B680B4013B10AB1012000E000208A
:1011B0007047024914310860704700000004014084
:1011C000FFFF0F0010B50446FE48844208D10121FC
:1011D000C014FFF717FD0021E014FFF713FDC4E072
:1011E000B4F1804F08D101210846FFF718FD002116
:1011F0000120FFF714FDB8E0F348844208D1012133
:101200000220FFF70CFD00210220FFF708FDACE0F3
:10121000EE48844208D101210420FFF700FD00219F
:101220000420FFF7FCFCA0E0E948844208D101213A
:101230000820FFF7F4FC00210820FFF7F0FC94E001
:10124000E448844208D101211020FFF7E8FC002186
:101250001020FFF7E4FC88E0DF48844208D1012138
:101260002020FFF7DCFC00212020FFF7D8FC7CE0E9
:10127000DA48844208D101214014FFF7C3FC002161
:101280006014FFF7BFFC70E0D548844209D101210A
:10129000C804FFF7B7FC00214FF40020FFF7B2FCB1
:1012A00063E0D048844209D101210805FFF7AAFC78
:1012B00000214FF48010FFF7A5FC56E0CA48844295
:1012C00009D101214805FFF79DFC00214FF40010D2
:1012D000FFF798FC49E0C548844208D1012140202D
:1012E000FFF79DFC00214020FFF799FC3DE0C0483E
:1012F000844208D101218020FFF791FC0021802049
:10130000FFF78DFC31E0BB48844208D101218015F4
:10131000FFF785FC0021A015FFF781FC25E0B6480A
:10132000844209D101210804FFF76CFC00214FF42D
:101330008030FFF767FC18E0B048844209D10121F2
:101340004804FFF75FFC00214FF40030FFF75AFC20
:101350000BE0AB48844208D101218804FFF752FC1E
:1013600000214FF48020FFF74DFC10BD00220288C1
:10137000944B98420ED0994B98420BD0B0F1804FCD
:1013800008D0914B984205D0904B984202D0904B98
:10139000984204D14FF68F731A404B881A438D4BF5
:1013A000984207D08C4B984204D04FF6FF431A4026
:1013B000CB881A4302808B8883850B880385814BF9
:1013C00098420BD0854B984208D08B4B984205D061
:1013D0008A4B984202D08A4B984201D10B7A0386FD
:1013E00001238382704770B5002400220023058CFE
:1013F0004FF6FE7635400584028C8388048B4FF6C9
:101400008F752C40B51E2C400D882C43751E2A402C
:101410000D892A434D882A436A4DA8420BD06F4D4F
:10142000A84208D0744DA84205D0744DA84202D0FD
:10143000734DA84213D14FF6F7752A404D892A43C0
:101440004FF6FB752A408D882A434FF6FF652B40E7
:101450004FF6FF552B408D892B43CD892B4383803D
:101460000483CD888586028470BD70B50024002277
:101470000023058C4FF6EF7635400584028C838877
:10148000048B48F6FF752C404FF6FF452C400D8825
:101490004FF6FF7606EA05252C434FF6DF752A4006
:1014A0000D8906EA05152A434D8806EA05152A43E3
:1014B000444DA84202D0494DA8421DD14FF67F7538
:1014C0002A404D894FF6FF7606EA05152A434FF666
:1014D000BF752A408D8806EA05152A434FF6FF3569
:1014E0002B404FF2FF752B408D8906EA85052B4373
:1014F000CD8906EA85052B4383800483CD88058743
:10150000028470BD70B5002400220023058C4FF6C4
:10151000FF6635400584028C8388848B4FF68F7577
:101520002C404FF6FC752C400D882C434FF6FF5590
:101530002A400D894FF6FF7606EA05252A434D8895
:1015400006EA05252A431F4DA84202D0234DA84292
:101550001DD14FF2FF752A404D894FF6FF7606EAFE
:1015600005252A434FF6FF352A408D8806EA0525D2
:101570002A434EF6FF752B404DF6FF752B408D89A3
:1015800006EA05152B43CD8906EA05152B43838012
:101590008483CD888587028470BD70B500220023C6
:1015A0000024058C4EF6FF7635400584038C848834
:1015B000828B48F6FF752A404FF6FF452A400D887A
:1015C00020E00000002C0140000400400008004022
:1015D000000C0040001000400014004000340140A6
:1015E000004C0140005001400054014000180040F0
:1015F000001C004000200040004001400044014029
:10160000004801404FF6FF7606EA05252A434DF6CD
:10161000FF752B400D8906EA05352B434D8806EAF8
:1016200005352B43FA4DA84202D0FA4DA84208D105
:101630004BF6FF752C408D894FF6FF7606EA85152F
:101640002C4384808283CD88A0F84050038470BDF1
:10165000828B4FF2FF331A408283828B4FF6FF73E7
:1016600003EA01231A4382837047F0B50C461546FE
:10167000002200210026078C4EF6FF7C07EA0C07AB
:101680000784828B018C4FF6FF7707EA043640F619
:10169000FF473A404FF6FF7707EA05273A434FF6F0
:1016A000FF7707EA03373A43D94FB8420ED0D94FF4
:1016B000B8420BD0B0F1804F08D0D74FB84205D018
:1016C000D64FB84202D0D64FB84206D14DF6FF777A
:1016D000394046F48057394305E047F6FF57394013
:1016E00044F48057394382830184F0BD828B4FF6E6
:1016F000F3731A408283828B0A4382837047F0B56A
:101700000C461546002200210026078C4FF6FF6C80
:1017100007EA0C070784828B018C4FF6FF7707EAF4
:1017200004264FF60C773A404FF6FF7707EA031787
:101730002F433A43B64FB8420ED0B64FB8420BD003
:10174000B0F1804F08D0B44FB84205D0B34FB84283
:1017500002D0B34FB84206D14FF6FF57394046F496
:101760008077394305E04FF2FF57394044F48077E2
:10177000394382830184F0BD028B4FF2FF331A405C
:101780000283028B4FF6FF7303EA01231A4302839D
:101790007047F0B50C461546002200210026078C44
:1017A0004FF6EF7C07EA0C070784028B018C4FF69B
:1017B000FF7707EA041640F6FF473A404FF6FF77F7
:1017C00007EA03373A434FF6FF7707EA05273A431C
:1017D0008F4FB8420ED08F4FB8420BD0B0F1804F30
:1017E00008D08D4FB84205D08C4FB84202D08C4FF4
:1017F000B84206D14FF6DF77394046F0100739433B
:1018000005E04FF65F77394044F010073943028313
:101810000184F0BD028B4FF6F3731A400283028BF2
:101820000A4302837047F0B50C461546002200219A
:10183000068C4FF6FE773E400684028B018C4FF6F5
:101840000C7632407E1C06EA03162E433243704E5D
:10185000B0420ED06F4EB0420BD0B0F1804F08D0E6
:101860006D4EB04205D06D4EB04202D06C4EB042CB
:1018700006D14FF6FD76314044F00106314305E0D4
:101880004FF6F576314044F001063143028301847E
:10189000F0BD70B505460C465D4885420ED05D48EA
:1018A00085420BD0B5F1804F08D05B48854205D00A
:1018B0005A48854202D05A48854200D100E000BF14
:1018C000208850B92389A28861882846FFF7ABFF9A
:1018D000E1882846FFF79EFF25E0208804280AD1EA
:1018E0002389A28861882846FFF753FFE1882846AC
:1018F000FFF742FF17E0208808280AD12389A28831
:1019000061882846FFF7FBFEE1882846FFF7EEFED8
:1019100009E02389A28861882846FFF7A6FEE188AE
:101920002846FFF795FE70BD2DE9F04105460C46AF
:1019300000260127608808B9022600E00026A0885A
:10194000012801D1022700E001272088A0B92389BE
:10195000A28861882846FFF766FFE1882846FFF7DE
:1019600059FF23893A4631462846FFF712FFE1889E
:101970002846FFF701FF13E02389A28861882846E3
:10198000FFF707FFE1882846FFF7F6FE23893A466E
:1019900031462846FFF747FFE1882846FFF73AFF20
:1019A000BDE8F0810A884B881A438B881A43CB889C
:1019B0001A430B891A434B891A438B891A43A0F89F
:1019C000442070474FF6FF71818000210180C18063
:1019D0004180017270470021018041808180C18077
:1019E000018141818181C181704700210180418055
:1019F000012181800021C180018170470021018087
:101A000041808180C18001814181818170470000D6
:101A1000002C014000340140000400400008004058
:101A2000000C004021B1028842F00102028004E073
:101A300002884FF6FE731A400280704731B1B0F849
:101A4000442042F40042A0F8442005E0B0F84420CD
:101A5000C2F30E02A0F8442070471AB183890B43E9
:101A6000838102E083898B43838170478182704741
:101A700041EA0203A0F8483070471AB183890B434A
:101A8000838102E083898B438381704701894FF60C
:101A9000F8721140018170470A46002101894FF612
:101AA0008F73194011430181704730B504460D46CC
:101AB00029462046FFF7F0FF208940F007002081EB
:101AC00030BD2DE9F04104460D4616461F46602DF7
:101AD00006D13B46012231462046FFF75AFE05E07B
:101AE0003B46012231462046FFF79DFE294620460F
:101AF000FFF7D2FF208940F007002081BDE8F08188
:101B000030B50C4600210189C9B24FF6FF7505EAD0
:101B10000325154325432943018130BD2DE9F041BB
:101B200005460E4617469846002443463A46314637
:101B30002846FFF7E5FF2C894FF6F870044044F083
:101B400007044FF68F70044044F070042C81BDE808
:101B5000F081F0B504460D4616461F463B46324618
:101B600029462046FFF7CCFF208940F480402081A1
:101B7000F0BD0185828270470A46002101884FF638
:101B80008F731940114301807047F0B50C4615461C
:101B90001E460021002200230189028B038C4FF690
:101BA000F877394021434FF6FC473A4040F201179D
:101BB0003A434FF6DD773B404FF6FF7707EA0617CB
:101BC0002F433B43018102830384F0BD0A46002179
:101BD000018B4FF68F7319401143018370470A46FA
:101BE0000021018B48F6FF7319404FF6FF7303EA9B
:101BF00002231943018370470A460021818B4FF667
:101C00008F7319401143818370470A460021818BED
:101C100048F6FF7319404FF6FF7303EA0223194396
:101C20008183704721B1028842F08002028004E083
:101C300002884FF67F731A400280704721B1828874
:101C400042F00402828004E082884FF6FB731A405F
:101C50008280704721B1828842F00802828004E0CD
:101C600082884FF6F7731A408280704721B18288CC
:101C700042F00102828004E082884FF6FE731A402F
:101C8000828070470A460021018B4FF6F773194096
:101C90001143018370470A460021018B4FF2FF7305
:101CA00019404FF6FF7303EA02231943018370477B
:101CB0000A460021818B4FF6F77319401143818347
:101CC00070470A460021818B4FF2FF7319404FF68F
:101CD000FF7303EA02231943818370470A460021F8
:101CE000018B4FF6FB7319401143018370470A467D
:101CF0000021018B4FF6FF3319404FF6FF7303EAC3
:101D000002231943018370470A460021818B4FF655
:101D1000FB7319401143818370470A460021818B70
:101D20004FF6FF3319404FF6FF7303EA02231943BE
:101D3000818370470A460021018B4FF67F7319405B
:101D40001143018370470A460021018BC1F30E0144
:101D50004FF6FF7303EA02231943018370470A46D3
:101D60000021818B4FF67F731940114381837047A7
:101D70000A460021818BC1F30E014FF6FF7303EA7F
:101D800002231943818370470A460021018C4FF6D4
:101D9000FD7319401143018470470A460021018CEC
:101DA0004FF6F77319401143018470470A4600212A
:101DB000018C4FF6DF7319404FF6FF7303EA0213ED
:101DC0001943018470470A460021018C4FF67F7346
:101DD00019404FF6FF7303EA021319430184704759
:101DE0000A460021018C4FF6FF5319404FF6FF734E
:101DF00003EA02231943018470470A460021018C3B
:101E00004FF2FF7319404FF6FF7303EA02231943A1
:101E1000018470470A460021018C4DF6FF7319407A
:101E20004FF6FF7303EA023319430184704730B55C
:101E3000002301248C40A3B2048C9C430484048CB2
:101E400002FA01F5ADB22C43048430BD30B5002355
:101E500004248C40A3B2048C9C430484048C02FAB6
:101E600001F5ADB22C43048430BD70B503460020AB
:101E700000241846183001258D40ACB21D8CA543B6
:101E80001D8409B1082909D100EB6100056825F01E
:101E9000700505600568154305600EE00D1FC5F36C
:101EA0004E052844056825F4E045056005684FF6B1
:101EB000FF7606EA02263543056070BD21B102882F
:101EC00042F00202028004E002884FF6FD731A40DD
:101ED0000280704721B1028842F00402028004E0CF
:101EE00002884FF6FB731A400280704721B1828846
:101EF00042F08002828004E082884FF67F731A40AD
:101F00008280704702884FF6F7731A400280028879
:101F10000A430280704782884FF68F731A4082808E
:101F200082880A438280704702894FF6F8731A400C
:101F3000028102890A430281704702894FF67F734A
:101F40001A40028102890A430281704781847047E6
:101F50008185704781867047018770478187704708
:101F6000A0F84010704702884FF6FF431A400280E5
:101F700002880A43028070470146888E70470146F6
:101F8000088F70470146888F70470146B1F84000BE
:101F900070470146888C70470146088D704702469D
:101FA0000020138A0B400BB1012000E00020704795
:101FB000CA430282704730B5024600200023002445
:101FC000158A05EA0103958905EA010413B10CB1EC
:101FD000012000E0002030BDCA43028270470000AB
:101FE00010B50446012C01D0012000E0002002467B
:101FF0004FF480615048FEF7E0FB0CB1012000E097
:1020000000204E49C87010BD10B50446012C01D007
:10201000012000E0002002464FF480514848FEF7BE
:10202000CCFB0CB1012000E000204449887010BDB9
:1020300010B50446012C01D0012000E0002002462A
:102040004FF480713C48FEF7B8FB0CB1012000E072
:1020500000203A49487010BD10B50446012C01D04B
:10206000012000E00020024680213348FEF7A5FB56
:102070000CB1012000E000203049087010BD08B507
:1020800001211420FEF7A4FD10208DF803004FF469
:10209000B060ADF8000003208DF8020069462648C4
:1020A000FEF7DAFA4FF48050ADF800006946244894
:1020B000FEF7D2FA0020FFF7CFFF0020FFF7B8FFAE
:1020C0000020FFF7A1FF0020FFF78AFF08BD10B531
:1020D00000242CE01BA11D4800F071F90120FFF73E
:1020E000BBFF4FF4FA7000F069F80020FFF7B4FF6F
:1020F0000120FFF79DFF4FF4FA7000F05FF8002019
:10210000FFF796FF0120FFF77FFF4FF4FA7000F012
:1021100055F80020FFF778FF0120FFF761FF4FF42B
:10212000FA7000F04BF80020FFF75AFF641CB4F57A
:102130007A7FCFDB10BD0000001001402800002096
:10214000000801406C65640D0A0000000038014081
:102150004FF0E020006920F004004FF0E02108611A
:102160000920364908700846007800EB4001C1EBB1
:10217000C0104FF6FF7101EAC00031490880704776
:10218000002120F07F402D4A127842434FF0E02397
:102190005A6100229A6101221A6100BF4FF0E022C9
:1021A000116901F001021AB101F48032002AF5D060
:1021B00000224FF0E0231A619A617047002100B9B4
:1021C000704720F07F401E4A128842434FF0E023C0
:1021D0005A6100229A6101221A6100BF4FF0E02289
:1021E000116901F001021AB101F48032002AF5D020
:1021F00000224FF0E0231A619A6100BFE0E770B55A
:102200000446002600254FF4FA7094FBF0F0C6B2A5
:102210004FF4FA7094FBF0F100FB114085B205E039
:102220004FF4FA70FFF7CAFF701EC6B2002EF7D146
:1022300015B12846FFF7C2FF70BD00002C0000203A
:102240002E00002010B586B0044601210420FEF7C0
:10225000BFFC01218803FEF7BBFC18208DF8170096
:102260004FF40070ADF8140003208DF8160005A996
:10227000A348FEF7F1F904208DF817000002ADF82D
:10228000140003208DF8160005A99D48FEF7E4F917
:1022900001940020ADF810000C20ADF80E000020D5
:1022A000ADF80C00ADF80A00ADF8080001A995489A
:1022B000FEF739FD01219348FEF7C1FD012240F2EE
:1022C00025519048FEF7C7FD25208DF8000001201C
:1022D0008DF8030000208DF8010002208DF8020027
:1022E0006846FEF7F0F806B010BD10B586B004469B
:1022F00001210420FEF76CFC01214804FEF775FC67
:1023000018208DF817000420ADF8140003208DF874
:10231000160005A97A48FEF79FF904208DF81700EA
:102320000820ADF8140003208DF8160005A97448A4
:10233000FEF792F901940020ADF810000C20ADF8E2
:102340000E000020ADF80C00ADF80A00ADF8080052
:1023500001A96D48FEF7E7FC01216B48FEF76FFD10
:10236000012240F225516848FEF775FD26208DF8C0
:10237000000001208DF8030000208DF801008DF889
:1023800002006846FEF79FF806B010BD2DE9F04147
:1023900007460C46154600260DE014F8011B38468A
:1023A000FEF7BAFD00BF40213846FEF723FE0028A5
:1023B000F9D0701C86B2AE42EFDBBDE8F0810FB4FD
:1023C00030B5CBB0054601AC50A8009001A8009AEA
:1023D0004F9904F051F9002000900BE014F8011B14
:1023E0002846FEF799FD00BF40212846FEF702FE71
:1023F0000028F9D020780028F0D14BB030BC5DF82F
:1024000014FB4248008808B9012070473F48008803
:102410003E494988884203D100203C490880F4E7BE
:102420003A480088394948800120EEE7384800885A
:1024300008B90120704736480088354949888842E4
:1024400003D1002032490880F4E731480088304940
:1024500048800120EEE710B540F225512948FEF7EB
:10246000DFFDB0B129480088C82802D300202749E1
:1024700008802448001D0088C1B2244802880088D2
:10248000401C224B1880181D815420211D48FEF746
:10249000BEFD10BD10B540F225511B48FEF7C0FD32
:1024A000B0B11B480088C82802D300201849088012
:1024B0001548001D0088C1B2154802880088401CDC
:1024C000134B1880181D815420210F48FEF79FFDE3
:1024D00010BD70B504460D46002600BF0CE014F890
:1024E000011B0948FEF718FD00BF40210648FEF712
:1024F00081FD0028F9D0761CAE42F0DB70BD0000F3
:10250000000801400038014000440040B4000020B1
:102510008001002008B501213020FEF759FB4FF45F
:102520006050ADF8000048208DF8030003208DF8BE
:10253000020069463248FEF78FF80420ADF800002B
:1025400069463048FEF788F808BD70B504460D4668
:102550002B48844207D1A9B2FEF711F908B901202E
:1025600070BD0020FCE72748844207D1A9B2FEF7DE
:1025700006F908B90120F3E70020F1E70020EFE7B2
:1025800010B54FF400611E48FFF7DFFF40B100BFF8
:102590004FF400611A48FFF7D8FF0028F8D110BDAA
:1025A0004FF400511648FFF7D0FF48B100BF4FF479
:1025B00000511348FFF7C9FF0028F8D10320EEE7C8
:1025C0004FF480510E48FFF7C0FF48B100BF4FF4F1
:1025D00080510B48FFF7B9FF0028F8D10620DEE74D
:1025E00004210848FFF7B1FF40B100BF04210548AE
:1025F000FFF7ABFF0028F9D10920D0E7FF20CEE795
:1026000000100140001401401FB501211120FEF708
:10261000DFFA4FF46050ADF80C0048208DF80F0041
:1026200003A94E48FEF718F80420ADF80C0003A9E2
:102630004B48FEF711F828208DF8000000208DF897
:1026400001008DF8020001208DF803006846FDF7B7
:102650003AFF08208DF8000000208DF801008DF869
:10266000020001208DF803006846FDF72CFF0B21C6
:102670000220FEF707F90C210220FEF703F90D21D5
:102680000220FEF7FFF802210320FEF7FBF843F6D5
:102690000400019000208DF808000C208DF809003E
:1026A00001208DF80A0001A8FEF70CFD1FBD10B532
:1026B0004FF40060FEF76CFD78B180212748FEF7EB
:1026C0006BF8C0F10100C4B2224680212348FEF716
:1026D00074F84FF40060FEF76CFD4FF48050FEF785
:1026E00057FD78B180211D48FEF756F8C0F1010072
:1026F000C4B2224680211948FEF75FF84FF480509B
:10270000FEF757FD4FF40050FEF742FD78B18021EF
:102710001248FEF741F8C0F10100C4B22246802100
:102720000E48FEF74AF84FF40050FEF742FD10BD88
:1027300010B50420FEF72CFD70B180210748FEF78C
:102740002BF8C0F10100C4B2224680210348FEF7F5
:1027500034F80420FEF72DFD10BD000000100140EC
:1027600000140140FA490880704708B5012108208B
:10277000FEF72EFA14208DF803004FF44060ADF8F8
:10278000000003208DF802006946F248FDF764FF5F
:102790000220FFF7E7FF4FF40061EE48FEF709F86B
:1027A0004FF48061EB48FEF704F808BD10B54FF414
:1027B0000061E848FDF7FDFF4FF48061E548FDF753
:1027C000F8FFE3490888FFF7DBFC4FF40061E148BC
:1027D000FDF7F1FFDE490888FFF7D2FC4FF4806176
:1027E000DC48FDF7E8FF10BD10B54FF40061D94893
:1027F000FDF7E1FF4FF48061D648FDF7DCFFD449D7
:102800000888FFF7BDFC4FF48061D248FDF7D1FF87
:102810004FF40061CF48FDF7CCFFCD490888FFF7A2
:10282000AFFC10BD10B504464FF40061C948FDF778
:10283000C0FFC7490888FFF7A3FC4FF48061C54873
:10284000FDF7B7FFC2490888FFF79AFC0EE0601E4B
:10285000040007D0C0A1C548FFF7B1FDFFF7C4FFD2
:10286000012010BDBA490888FFF78AFC4FF40061C7
:10287000B848FDF784FF0028E9D14FF48061B548DE
:10288000FDF799FF0020ECE710B54FF48061B148E7
:10289000FDF791FF4FF40061AE48FDF78CFFAC49A6
:1028A0000888FFF76DFC4FF48061AA48FDF781FFAF
:1028B000A7490888FFF764FC4FF48061A548FDF73D
:1028C0007AFF10BD10B54FF48061A248FDF773FF89
:1028D0004FF400619F48FDF76CFF9D490888FFF7A2
:1028E0004FFC4FF480619B48FDF763FF98490888CF
:1028F000FFF746FC4FF480619648FDF75CFF10BD82
:1029000070B5044600254FF480619248FDF753FFEF
:1029100023E004F0800028B14FF400618D48FDF7FA
:1029200048FF04E04FF400618A48FDF744FF600669
:10293000040E87490888FFF723FC4FF4806185481F
:10294000FDF737FF82490888FFF71AFC4FF48061D2
:102950008048FDF730FF681CC5B2082DD9DB70BD7B
:1029600070B5002500244FF400617A48FDF721FF7F
:102970001DE04FF480617748FDF71DFF744908881A
:10298000FFF7FEFB4FF480617248FDF712FF60060F
:10299000040E4FF400616F48FDF7F1FE08B1601CB2
:1029A000C4B26B490888FFF7EBFB681CC5B2082D61
:1029B000DFDB204670BD2DE9F04105460E4614468A
:1029C00000276806070EFFF7F1FE3846FFF798FF6D
:1029D00041F28830FFF726FF10B10120BDE8F081F9
:1029E0003046FFF78DFF41F28830FFF71BFF08B13B
:1029F0000120F3E74CB12078FFF782FF41F28830E5
:102A0000FFF710FF08B10120E8E7FFF7EDFE002017
:102A1000E4E72DE9F04104460D461646002760061E
:102A2000070EFFF7C3FE3846FFF76AFF41F2883012
:102A3000FFF7F8FE10B10120BDE8F0812846FFF74E
:102A40005FFF41F28830FFF7EDFE08B10120F3E7A8
:102A5000FFF7ACFE791CC8B2FFF752FF41F2883095
:102A6000FFF7E0FE08B10120E6E7FFF779FF3070DD
:102A7000FFF728FFFFF7B8FE0020DDE72DE9F04162
:102A800005460E4614461F464FF0000868064FEAFA
:102A90001068FFF78BFE4046FFF732FF41F28830A7
:102AA000FFF7C0FE10B10120BDE8F0813046FFF70E
:102AB00027FF41F28830FFF7B5FE08B10120F3E7A8
:102AC0000DE02078FFF71CFF41F28830FFF7AAFEE7
:102AD00008B10120E8E7641C0A20FFF751FB380029
:102AE000A7F10101CFB2ECD1FFF77EFE0020DBE7BA
:102AF0002DE9F04106460F4614461D464FF00008EA
:102B00004FEA4608FFF752FE08F0FF00FFF7F8FE15
:102B100041F28830FFF786FE10B10120BDE8F08158
:102B20003846FFF7EDFE41F28830FFF77BFE08B133
:102B30000120F3E7FFF73AFE08F10101C8B2FFF701
:102B4000DFFE41F28830FFF76DFE88B10120E5E736
:102B500030000020000C01405761697441636B2014
:102B600054696D654F75740D0A000000003801400E
:102B700009E0FFF7F5FE2070641C15B9FFF7A2FE0F
:102B800001E0FFF781FE2800A5F10101CDB2F0D1EF
:102B9000FFF72AFE0020C1E71CB50020019000903D
:102BA0004FF49670FFF7ECFA01AA00215320FFF7CB
:102BB00030FF4FF49670FFF7E3FA2B2000906A463F
:102BC00031215320FFF7F7FE3220FFF7D9FA0A2010
:102BD00000906A462C215320FFF7EDFE3220FFF7CC
:102BE000CFFA282000906A462D215320FFF7E3FEFC
:102BF0003220FFF7C5FA002000906A462E215320AC
:102C0000FFF7D9FE3220FFF7BBFA6A461E21532098
:102C1000FFF7D1FE3220FFF7B3FA6A461F21532097
:102C2000FFF7C9FE3220FFF7ABFA6A462021532096
:102C3000FFF7C1FE4FF4FA70FFF7A2FA1CBD2DE9B1
:102C4000F04788B00446002007900520FFF78AFD72
:102C5000C820FFF795FA07AA00215320FFF7D9FEF5
:102C60008146B9F1000F04D04FF0FF3008B0BDE845
:102C7000F087C820FFF784FA062305AA32215320E3
:102C8000FFF736FF8146B9F1000F02D04FF0FF3059
:102C9000ECE79DF814009DF8151000EB0120C0B280
:102CA0008DF804009DF816009DF8171000EB012028
:102CB000C0B28DF805009DF818009DF8191000EBC2
:102CC0000120C0B28DF806009DF8040005F03AFA24
:102CD000824605F00BFA0746164A174B05F008F92D
:102CE000054605F0D3F802909DF8050005F02AFA94
:102CF000824605F0FBF905460E4A0F4B05F0F8F841
:102D0000074605F0C3F803909DF8060005F01AFA8F
:102D1000824605F0EBF90746064A074B05F0E8F84E
:102D2000054605F0B3F8049001A80FC884E80F0029
:102D300000209BE7DE718A8EE4F26F3F70B588B0A9
:102D400006460C4615465748864204D10121C01458
:102D5000FDF73EFF07E001211020FDF739FF0121BB
:102D60004803FDF735FF18208DF81F000001ADF86E
:102D70001C0003208DF81E0007A94B48FDF76CFCD2
:102D80000020ADF81600ADF81200ADF81440ADF813
:102D9000105004A93046FEF7E9FA7020ADF80000A3
:102DA0000120ADF802000220ADF808000020ADF8C7
:102DB000060069463046FEF758FB69463046FEF786
:102DC000A1FB01213046FEF739FE08213046FEF70F
:102DD00062FF08213046FEF76BFF01213046FEF707
:102DE00021FF01213046FEF71DFE08B070BD7FB502
:102DF00006460C4615462D48864207D10121102073
:102E0000FDF7F3FE36208DF8000006E001212020BA
:102E1000FDF7EBFE37208DF800000020ADF806002E
:102E2000ADF80840ADF8045001A93046FEF79EFA0F
:102E3000012211463046FEF710FE01208DF80300F6
:102E40008DF801008DF802006846FDF73CFB01217A
:102E50003046FEF7E7FD7FBD10B541F61F42322137
:102E60001248FFF7C4FF10BD10B501210F48FFF74E
:102E7000A2F8012809D101F05FF801F0A2F901F0F0
:102E800076F801210948FFF7A7F810BD10B5012118
:102E90000748FFF790F8012803D101210448FFF704
:102EA0009BF810BD002C01400010014000100040B4
:102EB0000014004010B50020FE490880C821FD48DC
:102EC000001D03F091FC10BD00B587B00121042066
:102ED000FDF77EFE01214804FDF787FE18208DF8DE
:102EE0001B000420ADF8180003208DF81A0006A975
:102EF000F148FDF7B1FB04208DF81B000820ADF868
:102F0000180003208DF81A0006A9EB48FDF7A4FB72
:102F10004FF4E13002900020ADF814000C20ADF821
:102F200012000020ADF81000ADF80E00ADF80C0056
:102F300002A9E248FDF7F7FE0121E048FDF77FFF17
:102F4000012240F22551DD48FDF785FF26208DF84E
:102F5000040001208DF8070000208DF805008DF891
:102F6000060001A8FDF7AFFAFFF7A4FF07B000BD08
:102F700008B501211420FDF72BFE10208DF8030069
:102F80000220ADF8000003208DF802006946CA480F
:102F9000FDF762FB1020ADF800006946C848FDF758
:102FA0005BFB28208DF803008020ADF80000694607
:102FB000C148FDF751FB1021C148FDF7FAFBFFF7AF
:102FC00083FF08BDBB48008808B901207047B94895
:102FD0000088B8494988884203D10020B549088053
:102FE000F4E7B4480088B34948800120EEE72DE9B2
:102FF000F04107460C46154600260DE014F8011B6B
:103000003846FDF789FF00BF40213846FDF7F2FF43
:103010000028F9D0701C86B2AE42EFDBBDE8F0812B
:103020002DE9F04105460E4614462C27284603F0AC
:103030006BFB00F0FF0842462946A048FFF7D7FF88
:1030400014E0FFF7BFFF70B9CC229A49204603F085
:1030500086FB3146201D03F021FB20B1FFF72AFF3C
:103060000020BDE8F081C820FFF78AF83800A7F1FA
:103070000101CFB2E5D1FFF71DFF0120F1E700B557
:10308000BDB0CC210AA803F0D1FB202102A803F097
:10309000CDFB8C480078C0F383000B287ED2DFE89C
:1030A00010F00B0048008500AC01EE013002720206
:1030B000B402D40214036F0383A18548FFF77FF99C
:1030C0000AAA84A180A0FFF7ABFFA8B100BF90209F
:1030D000814B82A287A100907D48FFF770F90BAA6F
:1030E00088A17B48FFF76BF98DA17948FFF767F955
:1030F00000BF02203DB000BD00BF9320764B77A2F9
:103100007CA100907248FFF75AF986A17048FFF73A
:1031100056F983A16E48FFF752F900BF694800785D
:103120008008401C6749098860F385016548018073
:1031300028E27FA16648FFF742F90AAA7FA17CA096
:10314000FFF76EFF98B100BF9C20634B63A269A19B
:1031500000905F48FFF733F97AA15D48FFF72FF938
:103160006FA15B48FFF72BF900BF0320C2E700BF48
:103170009F20594B59A25FA100905548FFF71FF9B6
:1031800073A15348FFF71BF965A15148FFF717F9E1
:1031900000BF4C4800788008401C00E0FCE349492F
:1031A000098860F3850147480180C1E76BA1484861
:1031B000FFF705F90AAA6CA168A0FFF731FF002804
:1031C0005DD06AA10BA803F069FA88B100BFA920FD
:1031D000414B42A247A100903D48FFF7F0F864A19F
:1031E0003B48FFF7ECF84EA13948FFF7E8F800BF7D
:1031F00069A10BA803F052FA88B100BFAC20364B8E
:1032000036A23CA100903248FFF7D9F863A13048BC
:10321000FFF7D5F842A12E48FFF7D1F800BF66A10D
:103220000BA803F03BFA88B100BFAF202A4B2BA2BA
:1032300030A100902648FFF7C2F860A12448FFF7AC
:10324000BEF837A12248FFF7BAF800BF5EA10BA86D
:1032500003F024FA88B100BFB2201F4B1FA225A1A2
:1032600000901B48FFF7ABF858A11948FFF7A7F8E3
:103270002BA11748FFF7A3F800BF04203AE700BFCF
:10328000B620154B15A21BA100901148FFF797F827
:1032900054A10F48FFF793F821A10D48FFF78FF8CD
:1032A00000BF084800788008401C0649098860F380
:1032B00085019FE08001002000080140004400409B
:1032C000001001403200002041540D0A00000000AF
:1032D000003801404F4B00000482000868617264AE
:1032E000776172655C7372635C73696D3830382E18
:1032F0006300000025732D2D3E2573282564292D9C
:103300002D3E0000CEB4BCECB2E2B5BDC4A3BFE913
:103310002C20726576427566203D202573000000E2
:103320000D0A000047534DC4A3BFE9D5FDB3A30068
:1033300041542B4350494E3F0D0A00005245414431
:103340005900000073696DBFA8CEB4BDE2CBF80090
:1033500073696DBFA8D5FDB3A300000041542B4392
:103360005245473F0D0A0000302C3100302C300010
:10337000CEB4D7A2B2E1A3ACD6D5B6CBB5B1C7B067
:10338000B2A2CEB4D4DACBD1D1B0D0C2B5C4D4CBF2
:10339000D3AAC9CC00000000302C3200CEB4D7A292
:1033A000B2E1A3ACD6D5B6CBD5FDD4DACBD1D1B072
:1033B000BBF9D5BE00000000302C3400CEB4D6AA34
:1033C000B4FAC2EB00000000302C3500D2D1D7A2F5
:1033D000B2E1A3ACB4A6D3DAC2FED3CED7B4CCACA0
:1033E00000000000D2D1D7A2B2E1B1BEB5D8CDF86D
:1033F000C2E70000F9480180E9E2F9A1FB48FEF7C5
:10340000DEFF0AAAAFF23411F5A0FFF709FEB0B152
:1034100000BFBF20F64BAFF23C12AFF22811009074
:10342000F248FEF7CCFFF3A1F048FEF7C8FFAFF279
:103430001011EE48FEF7C3FF00BF05205AE600BF9B
:10344000C220EB4BAFF26C12AFF258110090E7487C
:10345000FEF7B5FFECA1E548FEF7B1FFAFF2401172
:10346000E248FEF7ACFF00BFDC4800788008401C53
:10347000DA49098860F38501D8480180A7E2E7A10D
:10348000DA48FEF79CFF0AAAAFF2B811E3A0FFF7F3
:10349000C7FDB0B100BFCB20D54BAFF2C012AFF229
:1034A000AC110090D148FEF78AFFDFA1CF48FEF7AC
:1034B00086FFAFF29411CD48FEF781FF00BF0620D2
:1034C00018E600BFCE20CA4BAFF2F012AFF2DC110B
:1034D0000090C648FEF773FFD6A1C448FEF76FFF01
:1034E000AFF2C411C148FEF76AFF00BFBB480078C5
:1034F0008008401CB949098860F38501B7480180FC
:1035000065E2D0A1B948FEF75AFF0AAAAFF23C2102
:10351000CCA0FFF785FDB0B100BFD720B44BAFF210
:103520004422AFF230210090B048FEF748FFC9A115
:10353000AE48FEF744FFAFF21821AC48FEF73FFF5C
:1035400000BF0720D6E500BFDA20A94BAFF27422F6
:10355000AFF260210090A548FEF731FFC2A1A34859
:10356000FEF72DFFAFF24821A048FEF728FF00BF6D
:103570009A4800788008401C9849098860F38501C2
:103580009648018023E2BCA19848FEF718FF0AAADA
:10359000AFF2C021B8A0FFF743FDB0B100BFE320F8
:1035A000934BAFF2C822AFF2B42100908F48FEF7E0
:1035B00006FFB8A18D48FEF702FFAFF29C218B48B1
:1035C000FEF7FDFE00BF082094E500BFE620884B13
:1035D000AFF2F822AFF2E42100908448FEF7EFFE4C
:1035E000B7A18248FEF7EBFEAFF2CC217F48FEF791
:1035F000E6FE00BF794800788008401C77490988BA
:1036000060F3850175480180E1E100BFF420784B4B
:10361000AFF23832AFF2243100907448FEF7CFFE9B
:10362000AAA17248FEF7CBFEAFF20C316F48FEF74D
:10363000C6FE00BF694800788008401C67490988B9
:1036400060F3850165480180C1E1A6A16748FEF7E6
:10365000B6FE0AAAA6A1A3A0FFF7E2FCA8B900BF84
:10366000FD20634BAFF28C32AFF2783100905F48AF
:10367000FEF7A5FEA0A15D48FEF7A1FE9BA15B4859
:10368000FEF79DFE00BF092034E500BF4FF48070B7
:10369000574BAFF2B832AFF2A43100905348FEF767
:1036A0008EFE99A15148FEF78AFE90A14F48FEF781
:1036B00086FE00BF494800788008401C47490988B9
:1036C00060F385014548018081E1202102A803F0D3
:1036D000ADF891A102A802F0F3FF944902A803F00B
:1036E00032F893A102A803F02EF89049103102A8F5
:1036F00003F029F87DA102A803F025F802AA8DA104
:103700003A48FEF75CFE0AAA8EA102A8FFF788FCE1
:10371000B0B100BF40F21110354BAFF24042AFF2F2
:103720002C4100903148FEF74AFE88A12F48FEF751
:1037300046FE6EA12D48FEF742FE00BF0A20D9E4E6
:1037400000BF4FF48A702A4BAFF27042AFF25C4177
:1037500000902648FEF733FE80A12448FEF72FFE96
:1037600062A12248FEF72BFE00BF1C4800788008AB
:10377000401C1A49098860F385011848018026E138
:103780007AA11A48FEF71BFE0AAA7CA177A0FFF7D0
:1037900047FCB0B100BF40F21D10154BAFF2C44260
:1037A000AFF2B04100901148FEF709FE76A10F4834
:1037B000FEF705FE4DA10D48FEF701FE00BF0A20F1
:1037C00098E400BF4FF49070094BAFF2F042AFF2B3
:1037D000DC4100900548FEF7F2FDDEE032000020FB
:1037E00041542B4353510D0A0000000000380140A2
:1037F00004820008B2E9D1AFD0C5BAC5C7BFB6C808
:10380000CAA7B0DC00000000B2E9D1AFD0C5BAC58C
:10381000C7BFB6C8B3C9B9A60000000041542B43C6
:10382000475245473F0D0A00D7A2B2E1CAA7B0DC14
:1038300000000000CDF8C2E7D7A2B2E1D5FDB3A3E6
:103840000000000041542B43474154543D310D0AC0
:1038500000000000B8BDD7C547505253D2B5CEF1D5
:10386000CAA7B0DC00000000B8BDD7C5475052530E
:10387000D2B5CEF10000000041542B434744434FE2
:103880004E543D312C224950222C22434D4E45545A
:10389000220D0A00C9E8D6C3504450C9CFCFC2CECA
:1038A000C42CBBA5C1AACDF8BDD3D0ADD2E92CBDE7
:1038B000D3C8EBB5E3B5C8D0C5CFA2CAA7B0DC006A
:1038C000C9E8D6C3504450B3C9B9A600C9E8D6C3A5
:1038D000CEAA47505253C1ACBDD3C4A3CABDB3C9CD
:1038E000B9A6000041542B43494653520D0A00002B
:1038F0004552524F52000000BBF1C8A14950B5D803
:10390000D6B7CAA7B0DC0000BBF1C8A14950B5D8F2
:10391000D6B7B3C9B9A6000041542B4349505354FC
:103920004152543D22544350222C220038000020A2
:10393000222C000053544120546970733A092573B6
:1039400000000000434F4E4E45435400C1ACBDD370
:10395000B7FECEF1C6F7CAA7B0DC0000C1ACBDD33C
:10396000B7FECEF1C6F7B3C9B9A6000041542B4348
:1039700049505354415455530D0A0000434F4E4E85
:10398000454354204F4B0000B7FECEF1C6F7CEB4EE
:10399000C1ACBDD30000000014E024A12848FEF70C
:1039A0000EFDAFF2B8012648FEF709FD00BF25481D
:1039B00000788008401C2349098860F3850121486C
:1039C000018004E020A11E48FEF7F9FC00BF00BF03
:1039D0001C480078C0F383000B2817D100BF40F2C9
:1039E0002B101E4BAFF20C72AFF2F861009014482E
:1039F000FEF7E5FC1AA11248FEF7E1FCAFF2141144
:103A00000F48FEF7DCFC00BF002037E4012035E45E
:103A100010B50120044606E0FFF731FB04464FF4E1
:103A20007A70FEF7ECFB002CF6D110BDD2D4D5FD98
:103A3000B3A3C1ACBDD3B7FECEF1C6F70000000002
:103A40000038014032000020706172616D6574655C
:103A500072206572726F720D0A0000000482000805
:103A6000CDF8C2E7C9E8B1B8B3F5CABCBBAFB3C9BA
:103A7000B9A6000010B54FF4A060FCF71FFDFEF7DB
:103A800067FBFEF7FCFAFEF745FDFEF7BDFD4FF4C0
:103A9000E130FEF7D7FBFFF76BFAFEF766FEFFF7A4
:103AA0007BF810BD10B5FFF7E5FFFFF7B1FF002071
:103AB00010BD00004B48802102E0491E002204C0D6
:103AC0000029FAD1484A494B1A600022484B1A8013
:103AD000704770477047704770477047704770B5C0
:103AE000044610464FF080750560051F28462C607F
:103AF000404E051F28462E604FF01236051F2846FF
:103B00002E604FF00336051F28462E604FF0023618
:103B1000051F28462E607610051F28462E60051FBB
:103B2000284629604FF01136051F28462E604FF0B9
:103B30001036051F28462E604FF00936051F28460F
:103B40002E604FF00836051F28462E604FF00736CE
:103B5000051F28462E604FF00636051F28462E60AA
:103B60004FF00536051F28462E604FF00436051F1E
:103B700028462E6070BD7047704710B51C480088FD
:103B8000401C1B49088008460088022803D30020F7
:103B9000088002F0ABFC10BD10B500F031F804460F
:103BA00015480078401C14490870204600F02CF895
:103BB00000F007FB00F0DBF910BD411E4FF0E022E2
:103BC0005161FF210D4A11704FF0E021096941F068
:103BD00005014FF0E02211611146096941F002012F
:103BE000116170474C020020480400205000002062
:103BF000540000205D5E00087100002023ED00E00D
:103C0000EFF3108072B6704780F310887047204C35
:103C1000204D25604FF0000484F309881E4C4FF0BE
:103C2000010525701D4C4FF08055256062B6FEE7FA
:103C300030B41A4C4FF08055256030BC704730B41A
:103C4000164C4FF08055256030BC704700BF72B6EF
:103C5000EFF3098028B1203880E8F00F1049096897
:103C6000086000B50F4880475DF804EB0E480F4927
:103C70000A7802700A480E490A680260106890E8E3
:103C8000F00F203080F309884EF0040E62B67047C2
:103C900020ED00E00000FFFF7E00002004ED00E0CA
:103CA00084000020773B000873000020740000208F
:103CB0008C0000207CB5002514E06946284601F000
:103CC000DBFF064666B9F84850F8254044B1012CA0
:103CD00006D0D4E9020100EB810060640198A06481
:103CE000681CC5B23F2DE8D97CBD002400BF02E0AE
:103CF000282002F0C9F8ED4800780028F8D0EC48F8
:103D000000686421B0FBF1F0E949086008460068EA
:103D100028B90020E7490870FF2001F0EDFF00BF3F
:103D2000FFF76EFF0446E4480068E449086000209D
:103D3000E14908602046FFF767FFE0480068DC497A
:103D40000968B0FBF1F0C0F16400DA490870FFF7D0
:103D5000C5FEFFF7AFFF142002F096F8E0E700B5CC
:103D600087B0032000218022D54BCDE90132CDE977
:103D700003104FF6FE703E23D24A0090AFF295003A
:103D800001F093FD06AAD0A13E2001F0F7FE07B096
:103D900000BD002400BF00BFFFF732FF0446C64845
:103DA0000068401CC44908602046FFF72DFFFFF75C
:103DB00093FEF1E700B587B0032000218022C64BB7
:103DC000CDE90132CDE903104FF6FF703F23C34A1E
:103DD0000090AFF2410001F068FD06AAC0A13F20AB
:103DE00001F0CCFE07B000BD04E0002200F8012B7A
:103DF0004A1E91B20029F8D1704770B54FF4C871CE
:103E0000BB48FFF7F1FF00230FE0581C85B203EB1E
:103E10008300B74901EB800405EB850001EB8006C8
:103E2000002020706660581C83B2132BEDD303EB87
:103E30008300AF4901EB80040020207060600846D9
:103E4000AC49086070BD70B54FF49361AA48FFF7A4
:103E5000CBFF4FF480719448FFF7C6FF002413E0B6
:103E6000601CC5B2C4EBC40000EB4000A24901EBEA
:103E70008003C5EBC50000EB400001EB80065E61EE
:103E80009EA0D864601CC4B20D2CE9D3C4EBC4005E
:103E900000EB4000984901EB80030020586197A097
:103EA000D86400209649086093489649086070BD20
:103EB0000021954A1170002004E00021934A11541A
:103EC000411CC8B20828F8D30021914A1170914AC8
:103ED0001170914A1160914A116070470020904919
:103EE000086090490870904908709049087090499E
:103EF00008709049086070490860704908606C4912
:103F000008606A490870704710B5FFF7D3FDFFF7E6
:103F1000E5FFFFF7CDFFFFF796FFFFF76EFF00F01D
:103F2000EBFE01F0E2F9FFF745FFFFF718FF02F0A3
:103F300037FBFFF7CEFD10BD7D480078012808D182
:103F400078480078FF2804D276480078401C7549EC
:103F50000870704778496C4A1278885C6B49095C34
:103F6000754A515C01EBC0016A4A1170704710B587
:103F700000246F480078012830D1FFF741FE044645
:103F80006848007820B167480078401E654908708D
:103F900064480078F8B964480078E0B9FFF7DAFFC0
:103FA00041485C49097850F821005B49086059484C
:103FB00000785749097888420DD057480068806BCF
:103FC000401C5549096888635A480068401C594993
:103FD0000860FFF734FE2046FFF716FE10BD10B54F
:103FE000002453480078012811D1FFF709FE044648
:103FF0004C48007840B94C480078FF2804D24A4821
:104000000078401C484908702046FFF7FDFD10BDB0
:1040100010B50024FFF7F4FD044642480078F8B9D3
:1040200041480078E0B9FFF795FF1F483949097802
:1040300050F821003849086036480078344909783A
:1040400088420DD034480068806B401C32490968B2
:10405000886338480068401C36490860FFF7E8FD6F
:104060002046FFF7D1FD10BD10B500243048007880
:1040700001286ED1FFF7C4FD04462B48007880B1BB
:1040800029480078401E284908700846007848B939
:104090002448007838B92046FFF7B6FDFFF7B8FF8F
:1040A00057E053E04EE049E02C0A00207000002069
:1040B0006800002064000020800000206C000020C8
:1040C0002C0600202808002075432F4F532D494906
:1040D00020537461740000002C080020280A00207E
:1040E00075432F4F532D49492049646C65000000EA
:1040F0004C0400205C0000202C0B00203F0000003E
:10410000900000208800002075000020760000202C
:1041100073000020740000208C0000208400002028
:104120009C00002071000020720000207F00002011
:104130007E00002058000020188200082046FFF76B
:1041400063FD06E02046FFF75FFD02E02046FFF733
:104150005BFD10BD10B5EB48007890B9FFF7FAFE93
:10416000E9480078E9490870E948E749097850F8D2
:104170002100E849086008460068E7490860FFF741
:1041800046FD10BD10B50024022001F07DFEFFF7B2
:1041900037FD04460020E14908602046FFF734FD62
:1041A000142001F071FEFFF72BFD0446DB48006888
:1041B000DB4908600120DB4908702046FFF724FD39
:1041C00010BD70B50026FFF7D8FCFFF719FD0646B5
:1041D000D5480068401CD44908603046FFF714FDFC
:1041E000C8480078012853D1D048007820B1012870
:1041F00004D0022809D103E001250BE0002509E0E5
:1042000001250120C949087004E001250020C749A3
:10421000087000BF00BF05B970BDC548046833E031
:10422000FFF7EEFC0646E06A50B3E06A401EE0622B
:10423000E06A28BB94F8300000F0370040B114F871
:10424000300F00F0C800207001206070303C02E0A8
:10425000002084F8310094F8300000F0080078B9AC
:104260003434A078B34909780843B24908702078FB
:10427000B149085C6178084314F83419AE4A5054C7
:1042800064693046FFF7C0FC94F832003F28C7D17C
:1042900000BFC1E74FF492707047704710B590F8B7
:1042A000342001F10B039B5C90F83540A34301F1EE
:1042B0000B04A35423469B5C23B98B7A90F83640B9
:1042C000A3438B7210BD2DE9F04F05460F46904673
:1042D0009946A87A99490E5C05F10B00805D11F8AA
:1042E00000B00BEBC60000F0FF0A894850F82A40E6
:1042F00000202034E0602760207C20EA0800207441
:1043000084F81190207C203C00F0080068B994F8F3
:104310003600884909780843864908708648805DD8
:1043200094F8351008438449885529462046FFF7FC
:10433000B5FF5046BDE8F08F10B5774A1268D061DE
:10434000754A126892F8343000F10B02D25C724B5D
:104350001B6893F835301A436F4B1B6893F8344051
:1043600000F10B031A55827A6B4B1B6893F83630B9
:104370001A438272684A126892F834106E4A525C8C
:10438000654B1B6893F835309A436B4B5A541A4669
:10439000525C42B9604A126892F83630654A127827
:1043A0009A43644B1A7010BD014600228A720020A5
:1043B00005E0002301F10B021354421CD0B208287F
:1043C000F7D3704705E011F8013B00F8013B531E9D
:1043D0009AB2002AF7D170470146002002E0491C3A
:1043E000421CD0B20A78002AF9D170472DE9F84F63
:1043F00005460F4690469946DDE90AAB002000903D
:10440000FFF7FEFB00904E480468002C75D018346E
:1044100054F8040C4A4908600098FFF7F5FB44F88B
:10442000187CA576002020766076606144F814BC84
:1044300044F80CAC44F8108C0C9824F8080C24F8C0
:10444000069C0020E077E810207705F00700E07672
:10445000217F01208840A077E17E0120884060779D
:1044600000206060E060A0602062A0626062E062A4
:104470002063AFF278306063183C002606E000212C
:1044800004F1500040F82610701CC6B2002EF6D081
:104490002046FFF771FB2046FFF71CFBFFF7B0FB40
:1044A00000901B4840F825402148006860610020CA
:1044B000A0611F48006810B11D48006884611C4855
:1044C00004603434A0781B490978084319490870FE
:1044D00020781949085C6178084314F83419164AA1
:1044E000505418480078401C164908700098FFF78F
:1044F0008BFB0020BDE8F88FFFE70098FFF784FBF7
:104500004220F7E77E0000207400002073000020A6
:104510002C0A00208C000020840000208000002055
:1045200068000020700000209C0000209400002003
:1045300090000020750000207600002018820008FE
:10454000880000207F0000202DE9F05F04460F4620
:1045500091461E464FF0000B2078052804D001201C
:1045600030700020BDE8F09F09F0800ABAF1000F1A
:1045700004D029F080094FF0010801E04FF0000855
:1045800000203070FFF73CFB8346B9F1000F2CD0C0
:10459000B9F1010F3BD0B9F1020F03D0B9F1030F0C
:1045A00046D111E0208900EA0705BD4206D1B8F1E5
:1045B000010F05D12089A843208101E070203070CF
:1045C0005846FFF721FB3AE0208900EA070535B19C
:1045D000B8F1010F05D12089A843208101E07020A6
:1045E00030705846FFF710FB29E0208927EA0005C4
:1045F000BD4206D1B8F1010F05D1208928432081A1
:1046000001E0702030705846FFF7FEFA17E020896D
:1046100027EA000535B1B8F1010F05D120892843FB
:10462000208101E0702030705846FFF7EDFA06E077
:104630005846FFF7E9FA00256F20307000BF00BF31
:1046400028468FE72DE9F04106460D460027FA4837
:10465000007820B1102028700020BDE8F081FFF71D
:10466000CFFA0746F548046884B100684068F3490A
:10467000086005202070268100206060F0A0E060C6
:104680003846FFF7C1FA0020287004E03846FFF7EB
:10469000BBFA722028702046DFE730B501464A6831
:1046A00008682AB9CC68606028B10025456002E03E
:1046B000106000B142608B6800255D6230BDF0B5CE
:1046C00006460F46B4680020283460602780207AB0
:1046D00000F0DF00207200206072207A283C88B948
:1046E0003434A078D74909780843D649087020782F
:1046F000D549085C6178084314F83419D24A5054FB
:10470000012500E000253046FFF7C7FF2846F0BD31
:104710002DE9F0470446894615464FF0000AC64881
:10472000007820B10F2028702046BDE8F08720785F
:10473000052803D0012028702046F6E7FFF760FA2D
:104740008246606808B1012700E00027B9F1000F38
:1047500003D0B9F1010F3CD119E08FB9B8A0E060E6
:1047600000202070B5480068606000202081B348B8
:1047700004605046FFF748FA00202870002605E044
:104780005046FFF741FA49202870264628E0D4F821
:10479000048005E000214046FFF791FFD8F8008033
:1047A000B8F1000FF6D1A6A0E06000202070A34869
:1047B0000068606000202081A04804605046FFF738
:1047C00023FA012F01D1FFF723FC002028700026D7
:1047D00006E05046FFF718FA07202870264600BF6B
:1047E00000BF3046A1E72DE9F04105460E461446CC
:1047F00000279148007820B1112020700020BDE8EA
:10480000F081FFF7FDF907462878052806D03846DD
:10481000FFF7FAF9012020700020F0E7E868306027
:104820003068FFF7D9FD80463846FFF7EDF90020E4
:1048300020704046E3E72DE9F04105460E46144658
:1048400000277D48007818B112202070BDE8F08163
:10485000FFF7D6F907462878052805D03846FFF730
:10486000D3F901202070F1E7EE603846FFF7CCF96C
:104870000020207000BFE9E7F0B51446059E734F95
:104880003F6897F8307047F02007DFF8C0C1DCF8C8
:1048900000C08CF830700027DFF8B0C1DCF800C031
:1048A0008CF83170694F3F68FE62684F3F687962EB
:1048B0000C828B74654F3F688F6047680F600027DC
:1048C0004F60C860456805B1696041605F4F3F68EF
:1048D00097F834205C4FBF5CDFF870C1DCF800C093
:1048E0009CF835C027EA0C07DFF85CC10CF80270B1
:1048F0006746BF5C5FB9554F3F6897F836C0514F68
:104900003F7827EA0C07DFF83CC18CF80070F0BD57
:104910002DE9F04F89B005460F4691469A46129E02
:10492000002002904448007828B102203070002016
:1049300009B0BDE8F08F4648007818B10D203070FE
:104940000020F5E72878052803D0012030700020EA
:10495000EEE709F0800BBBF1000F04D009F07F09EE
:104960004FF0010801E04FF00008FFF749F902900D
:10497000B9F1000F4AD0B9F1010F78D0B9F1020FA7
:1049800003D0B9F1030F71D120E0288900EA0704B0
:10499000BC420FD1B8F1010F02D12889A043288170
:1049A0002A48006804850298FFF72EF9002030702D
:1049B0002046BDE74B463A4604A92846CDF800A05C
:1049C000FFF75AFF0298FFF71FF978E0288900EAFD
:1049D00007047CB1B8F1010F02D12889A0432881D6
:1049E0001A48006804850298FFF70EF9002030701D
:1049F00020469DE74B463A4604A92846CDF800A03C
:104A0000FFF73AFF0298FFF7FFF858E0288927EAF6
:104A10000004BC421ED1B8F1010F02D12889204305
:104A200028810A48006804850298FFF7EDF8002005
:104A3000307020467CE71AE0710000206000002002
:104A40003F00000075000020760000208400002058
:104A5000720000204B463A4604A92846CDF800A033
:104A6000FFF70AFF0298FFF7CFF828E01FE0288938
:104A700027EA00047CB1B8F1010F02D12889204354
:104A80002881B148006804850298FFF7BDF800202E
:104A9000307020464CE74B463A4604A92846CDF8EC
:104AA00000A0FFF7E9FE0298FFF7AEF807E00298D2
:104AB000FFF7AAF800246F203070204638E700BFC7
:104AC000FFF7A6FAFFF79CF802909F48006890F85D
:104AD000310020B39C48006890F83100039000201A
:104AE0009949096881F8310004A8FFF7D6FD002034
:104AF0009549096881F830000298FFF785F800248D
:104B00000398012805D0022802D10E20307003E05E
:104B100000BF0A20307000BF00BF204608E78A4867
:104B20000068048DB8F1010F1ED1B9F1000F0ED04D
:104B3000B9F1010F0CD0B9F1020F03D0B9F1030F95
:104B40000AD100E000BF2889A04328810BE000BF04
:104B500028892043288106E00298FFF755F86F2046
:104B600030700020E4E600BF0298FFF74DF8002007
:104B700030702046DCE670B50025FFF741F80546A9
:104B800071480068048D2846FFF73EF8204670BD46
:104B90002DE9FC5F0446894692461E46002000909F
:104BA0002078052804D0012030700020BDE8FC9F4B
:104BB000FFF726F80090BAF1000F03D0BAF1010F09
:104BC0000AD104E0208920EA090020810BE0208935
:104BD00040EA0900208106E00098FFF715F87120EF
:104BE00030700020E2E700BF4FF0000B656855E031
:104BF000A87C40B3012838D0022802D0032844D131
:104C000011E02089298A00EA0107288AB84209D1DF
:104C100039462846FFF753FD8046B8F1010F01D110
:104C20004FF0010B38E02089298A00EA01074FB1D3
:104C300039462846FFF743FD8046B8F1010F01D100
:104C40004FF0010B28E0288A218920EA0107288AF1
:104C5000B84209D139462846FFF731FD8046B8F100
:104C6000010F01D14FF0010B16E0288A218920EABB
:104C700001074FB139462846FFF721FD8046B8F1BC
:104C8000010F01D14FF0010B06E00098FEF7BCFFC9
:104C90006F203070002089E700BF2D68002DA7D15C
:104CA0000098FEF7B1FFBBF1010F01D1FFF7B0F99A
:104CB000FEF7A6FF0090208901900098FEF7A4FF60
:104CC00000203070019871E72DE9F04104460D464F
:104CD00000272078052804D0012028700020BDE896
:104CE000F081FEF78DFF074626893846FEF78CFFD8
:104CF000002028703046F2E72DE9F041502113489A
:104D0000FFF772F800250EE0681C86B20F4800EB32
:104D1000051400EB0617002020706760AFF2E0205A
:104D2000E060681C85B2042DEED3084800EB051442
:104D3000002020706060AFF2F820E0600348044972
:104D40000860BDE8F081000084000020DC05002040
:104D5000600000202DE9F04106460D464FF00008A6
:104D60003078022804D0012028700020BDE8F081AE
:104D7000FEF746FF80467468E08A78B12169081D15
:104D800020610F68E08A401EE082A16820698842A5
:104D900001D1606820610020287002E01F20287087
:104DA00000274046FEF730FF3846DFE72DE9F041A7
:104DB00006460F464FF00008F748007810B1002073
:104DC000BDE8F081FEF71CFF8046F44805680068E6
:104DD00020B1F24800684068F04908604046FEF79C
:104DE00013FF3DB3FEF70CFF8046ED480468C4B1E5
:104DF00000680068EA4908604046FEF705FF666003
:104E000006EB8700A060E6602661A7820020E082B2
:104E100002202870002028816C602846FFF7C4FA21
:104E200008E0DE4800686860DC4805604046FEF740
:104E3000EBFE00252846C3E72DE9F04704468946E6
:104E400015464FF0000A2078022804D0012028706F
:104E50002046BDE8F087D048007818B10F202870B0
:104E60002046F6E7FEF7CCFE8246A07A10B14FF05E
:104E7000010801E04FF00008B9F1000F03D0B9F1CB
:104E8000010F45D11FE0B8F1000F15D16668C44885
:104E900000683060C248066000202070BF4800688B
:104EA000606000202081BD4804605046FEF7ACFEE3
:104EB00000202870002705E05046FEF7A5FE492097
:104EC000287027462BE005E00023042219462046DF
:104ED000FFF7F9F9A07A0028F6D16668B0480068B3
:104EE0003060AF48066000202070AC480068606009
:104EF00000202081A94804605046FEF785FEB8F1E5
:104F0000010F01D1FFF784F800202870002706E088
:104F10005046FEF779FE07202870274600BF00BFE5
:104F2000384696E770B505460026FEF769FE064648
:104F30006C686068E060606820610020E082304654
:104F4000FEF762FE002070BD2DE9F0470746884657
:104F500015464FF000093878022804D00120287047
:104F60000020BDE8F0878C48007818B10220287036
:104F70000020F6E78B48007818B10D20287000203B
:104F8000EFE7FEF73DFE81467C68E08A98B1216933
:104F9000081D20610E68E08A401EE082A168206939
:104FA000884201D1606820614846FEF72DFE00204E
:104FB00028703046D5E77C48006890F8300040F013
:104FC00004007949096881F83000002076490968B1
:104FD00081F8310074480068C0F82C803846FFF72B
:104FE000ABF94846FEF710FEFFF712F8FEF708FE91
:104FF00081466D48006890F8310020B101280DD03D
:1050000002280AD105E068480068066A0020287076
:105010000DE000260E20287009E000BF39466248E6
:105020000068FFF73BF900260A20287000BF00BF88
:1050300000205D49096881F830005B49096881F802
:10504000310059490968C8615749096808624846EA
:10505000FEF7DAFD304684E72DE9F04104460F46BD
:1050600015464FF000082078022804D0012028704F
:105070000020BDE8F081FEF7C3FD8046A07A20B392
:1050800000267FB1012F0CD107E00223042200216A
:105090002046FFF718F9701CC6B2A07A0028F4D198
:1050A00009E000BF0223042200212046FFF70BF98C
:1050B000701CC6B200BF00BF4046FEF7A5FDFEF75C
:1050C000A7FF0E2028703046D3E74046FEF79CFD30
:1050D0000020287000BFCCE72DE9F04105460E46C0
:1050E00000272878022802D00120BDE8F081FEF7D1
:1050F00087FD0746A87A60B100230422314628467E
:10510000FFF7E1F83846FEF77FFDFEF781FF00204C
:10511000EBE76C68E08AA18A884204DB3846FEF738
:1051200073FD1E20E1E7E168081DE0600E60E08A83
:10513000401CE082D4E90210884201D16068E0603E
:105140003846FEF761FD0020CFE72DE9F041054626
:105150000E4600272878022802D00120BDE8F08101
:10516000FEF74EFD0746A87A60B1002304223146BF
:105170002846FFF7A8F83846FEF746FDFEF748FF39
:105180000020EBE76C68E08AA18A88420EDB384693
:10519000FEF73AFD1E20E1E7710000205C000020D0
:1051A00098000020720000208400002061682069BF
:1051B000884201D1A06820612069001F2061206918
:1051C0000660E08A401CE0823846FEF71DFD0020A4
:1051D000C4E72DE9F04105460F4616464FF000089A
:1051E0002878022802D00120BDE8F081FEF708FDF2
:1051F0008046A87AE8B106F0010050B105E000232E
:10520000042239462846FFF75EF8A87A0028F6D12E
:1052100005E00023042239462846FFF754F84046AB
:10522000FEF7F2FC06F0040008B9FEF7F1FE0020DC
:10523000DAE76C68E08AA18A884204DB4046FEF720
:10524000E3FC1E20D0E706F0020058B16168206937
:10525000884201D1A06820612069001F2061206977
:10526000076009E0E168081DE0600F60D4E9021002
:10527000884201D16068E060E08A401CE0824046DC
:10528000FEF7C2FC0020AFE72DE9F04705460C46CB
:105290004FF0000A2878022802D00120BDE8F087EC
:1052A000FEF7AEFC8246A87A207405F10B0804F1E3
:1052B0000809002705E018F8010B09F8010B781C14
:1052C000C7B2082FF7D36E68F08A18B1306900684A
:1052D000206001E000202060F08AA080B08AE08099
:1052E0005046FEF791FC0020D8E72DE9F0417821E7
:1052F0001048FEF779FD00240DE0601C86B204EB37
:1053000044000C4901EBC00506EB460001EBC00769
:105310002F60601C84B2042CEFD304EB44000549D9
:1053200001EBC00500202860084603490860BDE87D
:10533000F0810000C40F00209800002070B50446E2
:1053400000262078032801D0002070BDFEF758FC0D
:105350000646258915B12089401E20813046FEF77A
:1053600053FC2846F1E770B505460026D248007880
:1053700008B1002070BDFEF743FC0646CF48046824
:10538000006820B1CD4800684068CC4908603046CC
:10539000FEF73AFC3CB103202070258100206060BC
:1053A0002046FFF701F82046E4E72DE9F0470446E0
:1053B000884615464FF000092078032804D00120C4
:1053C00028702046BDE8F087BB48007818B10F2050
:1053D00028702046F6E7FEF713FC8146A07A08B154
:1053E000012700E00027B8F1000F03D0B8F1010F4A
:1053F00035D117E07FB900202070B04800686060A8
:1054000000202081AD4804604846FEF7FDFB0020E7
:105410002870002605E04846FEF7F6FB4920287074
:10542000264623E005E00023012219462046FEF728
:105430004AFFA07A0028F6D12070A048006860607A
:10544000002020819D4804604846FEF7DDFB012FC7
:1054500001D1FEF7DDFD00202870002606E0484659
:10546000FEF7D2FB07202870264600BF00BF30465B
:10547000A8E72DE9F04105460E4614460027287896
:10548000032803D001202070BDE8F0818A4800780D
:1054900010B102202070F7E78948007810B10D2084
:1054A0002070F1E7FEF7ACFB0746288940B1288958
:1054B000401E28813846FEF7A7FB00202070E3E756
:1054C0008048006890F8300040F001007D4909688C
:1054D00081F8300000207B49096881F83100794863
:1054E0000068C6622846FEF727FF3846FEF78CFBA9
:1054F000FEF78EFDFEF784FB07467248006890F8C1
:10550000310020B1012809D0022806D102E0002094
:1055100020700BE00E20207008E000BF294669488B
:105520000068FEF7BBFE0A20207000BF00BF00200D
:105530006449096881F830006249096881F83100DE
:1055400060490968C8613846FEF75EFB00BF9BE70B
:105550002DE9F04104460F4615464FF0000820782B
:10556000032804D0012028700020BDE8F081FEF758
:1055700047FB8046A07A20B300267FB1012F0CD1D3
:1055800007E00223012200212046FEF79CFE701C4A
:10559000C6B2A07A0028F4D109E000BF022301229C
:1055A00000212046FEF78FFE701CC6B200BF00BF70
:1055B0004046FEF729FBFEF72BFD0E2028703046F3
:1055C000D3E74046FEF720FB0020287000BFCCE761
:1055D00070B5044600252078032801D0012070BD55
:1055E000FEF70EFB0546A07A60B1002301221946A2
:1055F0002046FEF768FE2846FEF706FBFEF708FD8C
:105600000020ECE720894FF6FF71884207D22089FD
:10561000401C20812846FEF7F7FA0020DFE72846E5
:10562000FEF7F2FA3320DAE72DE9F04704460D469B
:105630004FF000092078032802D00120BDE8F08750
:10564000FEF7DEFA8146A07AA87204F10B0705F195
:105650000208002605E017F8010B08F8010B701C82
:10566000C6B2082EF7D3208928804846FEF7CCFA28
:105670000020E3E72DE9F04104460E4615460027D9
:105680002078032803D001202870BDE8F081FEF7C0
:10569000B7FA074600202870208908B1268105E066
:1056A000A07A08B9268101E0492028703846FEF723
:1056B000ABFA00BFE9E70000710000205C000020A9
:1056C00072000020840000202DE9FF5F814688469B
:1056D00000200090FEF794FA0090F94850F8280056
:1056E00030B10098FEF790FA282004B0BDE8F09F92
:1056F000B9F1FF0F03D1F348006890F83290F048F9
:1057000050F8294024B90098FEF77EFA2920ECE7EA
:10571000012C04D10098FEF777FA4320E5E74FEA21
:10572000E80708F0070003900120B84000F0FF0AE6
:1057300001210398814001F0FF0B0020E04941F86E
:105740002900084640F8284014F8346FA0780290E9
:105750006078343C0190DC48815D01980140D1B112
:10576000D948805D01998843D74988550846805DAE
:1057700028B9D648007802998843D4490870D3489C
:10578000007840EA0A00D1490870CF48C05D40EA7D
:105790000B00CD49C855E569D5B105F10B00805D19
:1057A0000199884305F10B0188550846805D18B9B9
:1057B000A87A02998843A872A87A40EA0A00A872D7
:1057C00005F10B00C05D40EA0B0005F10B01C85567
:1057D00084F8328084F83470039884F8330084F8B5
:1057E00036A084F835B00098FEF70EFAB848007875
:1057F000012801D1FEF70CFC002076E72DE9FE4FD1
:1058000006460F4690461C464FF00009FEF7F8F991
:105810008146B048007828B14846FEF7F5F93C20AB
:10582000BDE8FE8FA64850F8240060BB0120A449C3
:1058300041F824004846FEF7E7F90023424639467E
:105840003046FEF74CF98246002000900190034656
:105850000246514602902046FEF7C8FD054635B97E
:105860009B48007801280CD1FEF7D2FB09E0FEF737
:10587000C7F981460020924941F824004846FEF7C6
:10588000C3F92846CCE74846FEF7BEF92820C7E70B
:1058900002F0010343B102F002032BB102E0491E02
:1058A000002308C00029FAD170472DE9F04F85B0D8
:1058B00081468A4693461C46DDE90F78129D0020FA
:1058C0000390FEF79DF903908248007830B1039869
:1058D000FEF79AF93C2005B0BDE8F08F784850F803
:1058E000240088BB0120764941F824000398FEF784
:1058F0008BF92A4641463846FFF7CAFF2B465A46DF
:1059000051464846FEF7EBF804901198CDE9008027
:1059100002953A4620460E9B0499FEF767FD06461F
:1059200036B96B48007801280CD1FEF771FB09E00D
:10593000FEF766F903900020614941F824000398BE
:10594000FEF762F93046C6E7FFE70398FEF75CF919
:105950002820C0E72DE9F041054600275D48007882
:1059600010B14020BDE8F0813F2D01D13E20F9E784
:10597000FEF746F90746FF2D03D15248006890F81C
:1059800032504F4850F8254024B93846FEF73CF9CC
:105990004320E7E7012C04D13846FEF735F93D20D6
:1059A000E0E714F8340F4849085C617888432178AF
:1059B000454A505414F834091146085C30B994F83B
:1059C000361042480078884340490870E06918B1B1
:1059D0002046E169FEF762FC666A16B13046FEF7C2
:1059E0005CFE0020E06284F8300084F831003A4820
:1059F0000078FF2804D238480078401C36490870E7
:105A00003846FEF701F9FEF748FCFEF7F9F80746BD
:105A10003148007820B130480078401E2E49087087
:105A20002046FEF758F82D480078401E2B49087094
:105A30000020234941F82500A06930B900206169A0
:105A4000886127496069086005E0D4E9050148617B
:105A5000D4E905108861234800686061214804602A
:105A600021A0E0643846FEF7CFF8194800780128F5
:105A700001D1FEF7CDFA002074E72DE9F04104468C
:105A800000273F2C02D13E20BDE8F081FF2C0BD136
:105A9000FEF7B6F807460B48006890F837603846BE
:105AA000FEF7B2F83046EFE7FEF7AAF807460448DB
:105AB00050F82450D5B93846FEF7A6F84320E3E75E
:105AC0002C0A0020840000207600002075000020B1
:105AD0007E00002071000020720000207F00002066
