:020000040800F2
:10000000801D00207D0400087702000879020008A6
:100010007D0200088102000885020008000000003F
:10002000000000000000000000000000890200083D
:100030008B02000800000000974600088D020008AF
:10004000970400089704000897040008910200082C
:1000500097040008970400088F020008970400081E
:100060005115000897040008970400089704000839
:1000700097040008970400089704000897040008F4
:1000800097040008970400089704000897040008E4
:1000900097040008970400089704000897040008D4
:1000A00097040008970400089704000897040008C4
:1000B00097040008970400089704000897040008B4
:1000C00097040008970400089704000897040008A4
:1000D0009704000897170008D51700089704000830
:1000E000CF1400089704000897040008970400083C
:1000F0009704000897040008970400089704000874
:100100009704000897040008970400089704000863
:100110009704000897040008970400089704000853
:100120009704000897040008970400089704000843
:1001300000F002F800F090F80AA090E8000C824469
:100140008344AAF10107DA4501D100F085F8AFF246
:10015000090EBAE80F0013F0010F18BFFB1A43F0A5
:1001600001031847C85E0000E85E0000103A24BF93
:1001700078C878C1FAD8520724BF30C830C144BF0C
:1001800004680C607047000000230024002500264E
:10019000103A28BF78C1FBD8520728BF30C148BFEA
:1001A0000B6070476E2904F01B84702904F05B8596
:1001B000662905F04D86652905F04A86672905F010
:1001C00047866129AFF3008003681B0A28BF41F00E
:1001D0008001692904F0CA83642904F0C783752962
:1001E00004F0C4836F2904F0E984782904F027859A
:1001F000E92904F08584E42904F08284F52904F0D7
:100200007F84EF2904F0E684F82904F0268503684A
:10021000DB0928BF41F08001632905F0A68073291E
:1002200005F0AB80E32905F0B680F32905F0BB802B
:10023000002070471FB505F007F9040000200021D9
:1002400005F0F0FD401C60600020002105F0D4FDA9
:10025000E0601FBD10B510BD05F0C9F81146FFF7ED
:10026000E9FF01F009FB05F09FF903B4FFF7F2FF86
:1002700003BC05F0E3F9704700BFFEE700BFFEE7EF
:1002800000BFFEE700BFFEE770477047704770474A
:10029000704700000CB50020019000906C48006889
:1002A00040F480306A49086000BF6948006800F483
:1002B000003000900198401C0190009818B90198F6
:1002C000B0F5A06FF1D16248006800F4003010B1C1
:1002D0000120009001E0002000900098012843D107
:1002E0005C48006840F010005A4908600846006801
:1002F00020F0030008600846006840F00200086033
:10030000534840685249486008464068486008467B
:10031000406840F4806048600846406820F47C10E3
:1003200048600846406840F4881048600846006805
:1003300040F08070086000BF4548006800F0007021
:100340000028F9D04248406820F003004049486046
:100350000846406840F00200486000BF3C484068E2
:1003600000F00C000828F9D10CBD10B5FFF792FF82
:1003700010BD10B53648006840F0010034490860EF
:1003800008464068344908403149486008460068DA
:10039000324908402E4908600846006820F4802051
:1003A00008600846406820F4FE0048604FF41F00D3
:1003B0008860FFF7DAFF4FF000602949086010BD40
:1003C00010B5002100200022214B5B6803F00C01D6
:1003D00021B1042906D0082928D107E0214B224C5D
:1003E000236027E0214B204C236023E0184B5B68FF
:1003F00003F47010164B5B6803F48032022303EBA6
:10040000904022B91A4B4343174C23600DE0104B28
:100410005B6803F4003323B1164B4343124C236053
:1004200003E0124B4343104C236003E00D4B0E4C92
:10043000236000BF00BF064B5B68C3F303130E4C81
:10044000E15C094B1B68CB40074C236010BD0000EA
:1004500000100240002002400000FFF8FFFFF6FEFF
:1004600008ED00E000127A0000000020001BB70039
:1004700000093D00808D5B00040000200948804792
:1004800009480047FEE7FEE7FEE7FEE7FEE7FEE776
:10049000FEE7FEE7FEE7FEE704480549054A064B8E
:1004A0007047000073030008310100088015002028
:1004B000801D00208019002080190020314901434F
:1004C000314A1160704770B5002100230F22C478B3
:1004D00004B32D4C246804F4E064C4F5E064210AFC
:1004E000C1F10403CA40447804FA03F1847814404B
:1004F00021430901254C0678A155047804F01F0515
:100500000124AC4005786D11AD0005F1E025C5F87A
:10051000004109E0047804F01F050124AC401C4DA3
:100520000678761145F8264070BD1A4A0A40024303
:10053000154B1B1F1A60704739B1134A121D126800
:100540000243114B1B1D1A6006E00F4A121D126870
:1005500082430D4B1B1D1A607047042808D14FF0D1
:10056000E021096941F004014FF0E022116107E048
:100570004FF0E021096921F004014FF0E022116100
:10058000704700000000FA050CED00E000E400E018
:1005900080E100E080FFFF1F10B50446CC48844294
:1005A00008D10121042000F02DFB0021042000F0DF
:1005B00029FB46E0C748844208D10121082000F009
:1005C00021FB0021082000F01DFB3AE0C2488442D4
:1005D00008D10121102000F015FB0021102000F0AF
:1005E00011FB2EE0BD48844208D10121202000F0FB
:1005F00009FB0021202000F005FB22E0B8488442DE
:1006000008D10121402000F0FDFA0021402000F037
:10061000F9FA16E0B348844208D10121802000F0A5
:10062000F1FA0021802000F0EDFA0AE0AE488442A1
:1006300007D10121801500F0E5FA0021A01500F096
:10064000E1FA10BD10B50121084600F0DBFA0021E7
:10065000012000F0D7FA10BD2DE9F0410246002537
:100660000026002000230024002791F803C00CF08E
:100670000F0591F803C00CF0100CBCF1000F03D073
:1006800091F802C04CEA050591F800C0BCF1000FDA
:1006900031D0146800202BE04FF0010C0CFA00F36D
:1006A000B1F800C00CEA03069E4220D183004FF04F
:1006B0000F0C0CFA03F7BC4305FA03FC4CEA0404E4
:1006C00091F803C0BCF1280F06D14FF0010C0CFAD1
:1006D00000FCC2F814C00AE091F803C0BCF1480F56
:1006E00005D14FF0010C0CFA00FCC2F810C0401C00
:1006F0000828D1D31460B1F800C0BCF1FF0F34DD7D
:10070000546800202EE000F1080C4FF0010808FAB0
:100710000CF3B1F800C00CEA03069E4221D183001D
:100720004FF00F0C0CFA03F7BC4305FA03FC4CEA3C
:10073000040491F803C0BCF1280F05D100F1080CA6
:1007400008FA0CF8C2F8148091F803C0BCF1480F05
:1007500007D100F1080C4FF0010808FA0CF8C2F8B4
:100760001080401C0828CED35460BDE8F0814FF6BD
:10077000FF710180022181700421C170704702461F
:10078000002093680B400BB1012000E0002070476F
:100790000146886880B2704702460020D3680B404B
:1007A0000BB1012000E0002070470146C86880B20C
:1007B000704701617047416170470AB1016100E013
:1007C00041617047C16070474FF480320A438261D3
:1007D0008161826182698269704702460020434BD1
:1007E00018684FF68073184040EA021008433F4BE8
:1007F000186070473E49C8617047F0B50A4600234B
:1008000000240021002500F00046B6F1004F02D17F
:10081000364EF16901E0354E7168C0F3034583B28D
:1008200000F44016B6F5401F08D121F070612F4E3C
:10083000766826F070662D4F7E6012E000F4801618
:10084000B6F5801F06D1032606FA05F4A14341F050
:10085000706106E0460D360103FA06F6B14341F039
:10086000706122B1460D360103FA06F6314300F0FD
:100870000046B6F1004F02D11C4EF16101E01B4E63
:100880007160F0BD30B500228B071C0F0F2303FAF7
:1008900004F2164B08338C1053F824309343134C56
:1008A00008348D1044F8253023468C1053F824303A
:1008B0008C07240F00FA04F423430C4C08348D10E9
:1008C00044F8253030BD0A49DC310860704700002B
:1008D00000080140000C01400010014000140140DC
:1008E00000180140001C01400020014000000140B0
:1008F00000002042DF48006840F00100DD49086048
:1009000008464068DC490840DA4948600846006803
:10091000DA490840D74908600846006820F480207A
:1009200008600846406820F4FE0048604FF41F004D
:1009300088607047CF49096821F48031CD4A116041
:100940001146096821F480211160B0F5803F03D081
:10095000B0F5802F0ED106E0C649096841F4803118
:10096000C44A116007E0C349096841F4A021C14AA3
:10097000116000E000BF00BF704710B501460022C3
:10098000002300204A11012A02D1BA4C236806E054
:10099000022A02D1B74C236A01E0B64C636A01F027
:1009A0001F02012494401C400CB1012000E00020F3
:1009B00010BD38B5002000900024002500BF312074
:1009C000FFF7DBFF05460098401C00900098B0F54B
:1009D000A06F01D0002DF2D03120FFF7CEFF08B17B
:1009E000012400E00024204638BD01460020A14A31
:1009F000106820F0F80040EAC10010607047A0497C
:100A000008607047024600209A4B586820F47C101A
:100A100042EA01031843974B5860704798490866AB
:100A2000704701460020934A506820F003000843B5
:100A3000506070478F48406800F00C0070470146D6
:100A400000208C4A506820F0F00008435060704746
:100A500001460020874A506820F4E0600843506057
:100A6000704701460020834A506820F4605040EAF5
:100A7000C1005060704729B17E4A527A02437D4BD3
:100A80005A7204E07B4A527A82437A4B5A72704718
:100A90007B49D8310860704701460020754A50688C
:100AA00020F440400843506070470021714A2032D2
:100AB0001170704A82F82010012802D004280AD14F
:100AC00004E001216B4A2032117005E00521694ADA
:100AD0002032117000E000BF00BF70476949086014
:100AE00070476449096A0143624A11627047654967
:100AF00044390860704730B50021002200240023EB
:100B00005C4D6D6805F00C0121B1042905D0082960
:100B100023D105E05C4D056022E05C4D05601FE0DF
:100B2000544D6D6805F47012524D6D6805F48034B3
:100B3000022505EB92421CB9554D554305600BE06B
:100B40004C4D6D6805F400351DB1524D554305609F
:100B500002E04E4D5543056002E04B4D056000BF7D
:100B600000BF444D6D6805F0F00109094A4D6B5C0A
:100B70000568DD4045603F4D6D6805F4E061090A98
:100B8000454D6B5C4568DD4085603A4D6D6805F408
:100B90006051C90A404D6B5C4568DD40C560354D0C
:100BA0006D6805F44041890B3C4D6B5CC568B5FB35
:100BB000F3F5056130BD29B12E4A526902432D4B30
:100BC0005A6104E02B4A526982432A4B5A617047AA
:100BD00029B1284A92690243264B9A6104E0254ACA
:100BE00092698243234B9A61704729B1214AD269A5
:100BF0000243204BDA6104E01E4AD26982431D4B56
:100C0000DA61704729B11B4AD2680243194BDA6096
:100C100004E0184AD2688243164BDA60704729B163
:100C2000144A12690243134B1A6104E0114A126913
:100C30008243104B1A61704712494039086070476F
:100C40000F49C86470470B49C87170470948406A2A
:100C500040F0807007494862704701460020054A0D
:100C600092680A400AB1012000E000207047014963
:100C700088727047001002400000FFF8FFFFF6FE88
:100C8000000042428004424200127A00001BB7007A
:100C900000093D00808D5B0014000020240000202E
:100CA000002044490860091D0860091D0860091DED
:100CB000086041483F4914310860704700213D49B0
:100CC0008279002A3AD00A46126803689A430B4692
:100CD0001A600A1D126803689A430B1D1A60027994
:100CE00011440A6803681A430A60324A08321268DB
:100CF00003689A432F4B08331A601A1D1268036861
:100D00009A432C4B0C331A604279102A0ED11A1FC9
:100D1000126803681A43274B08331A601A1D1268B9
:100D200003681A43234B0C331A600DE021494279C2
:100D300011440A6803681A430A6005E00279114405
:100D40000A6803689A430A607047002101600171D4
:100D50000C214171002181717047164910310968D9
:100D60000143144A10321160704701460020114AB5
:100D7000143212680A400AB1012000E000207047D6
:100D80000C49143108607047014600200022094BCD
:100D90001B6803EA0102074B14331B680B4013B1B5
:100DA0000AB1012000E000207047024914310860B8
:100DB0007047000000040140FFFF0F0010B504461B
:100DC000FB48844209D101218803FFF71BFF002162
:100DD0004FF48040FFF716FF32E0F648844209D115
:100DE00001214804FFF71BFF00214FF40030FFF7FB
:100DF00016FF25E0F048844209D101218804FFF75D
:100E00000EFF00214FF48020FFF709FF18E0EB48A8
:100E1000844209D10121C804FFF701FF00214FF4EA
:100E20000020FFF7FCFE0BE0E548844208D10121D9
:100E30000805FFF7F4FE00214FF48010FFF7EFFEE6
:100E400010BD2DE9F04786B005460E460024A246A7
:100E500000BFA1460027B08900B100BF2F462C8AF1
:100E60004CF6FF700440F08804432C82AC894EF6A7
:100E7000F3100440B0883189084371890843044362
:100E8000AC81AC8A4FF6FF400440B0890443AC8289
:100E900001A8FFF730FEC648874202D1DDF810A056
:100EA00001E0DDF80CA0A88900F4004040B10AEB95
:100EB000CA0000EB0A1031684900B0FBF1F807E006
:100EC0000AEBCA0000EB0A1031688900B0FBF1F8A8
:100ED0006420B8FBF0F004012009642101FB1089B3
:100EE000A88900F4004040B1322000EBC900B0FBFB
:100EF000F1F000F00700044308E0322000EB091095
:100F00006421B0FBF1F000F00F0004432C8106B027
:100F1000BDE8F0874FF41651016000218180C18047
:100F200001810C21418100218181704710B5024669
:100F30000020108A4FF2FF0318400B884C8823438F
:100F40008C882343CC8823431843108210BD002192
:100F5000018041808180C180704721B1828942F443
:100F60000052828104E082894DF6FF731A4082812B
:100F70007047F0B50346002400260025002040F607
:100F80006A17B94200D100BF1846C1F3421401F0FC
:100F90001F06012707FA06F5012C01D10C3004E0E9
:100FA000022C01D1103000E014301AB107682F4331
:100FB000076002E00768AF430760F0BD1AB1838A9B
:100FC0000B43838202E0838A8B4383827047028AC9
:100FD0004FF6F0731A400282028A0A430282704777
:100FE00082894FF2FF731A40828182890A4382818B
:100FF000704721B1828942F00202828104E0828935
:101000004FF6FD731A4082817047028A4FF6DF73F4
:101010001A400282028A0A430282704721B1028A80
:1010200042F48042028204E0028A4BF6FF731A40C7
:1010300002827047C1F308028280704701468888A7
:10104000C0F308007047818941F001018181704738
:10105000028BD2B20283028B42EA012202837047E2
:10106000028B02F47F420283028B0A4302837047A1
:1010700021B1828A42F02002828204E0828A4FF605
:10108000DF731A408282704721B1828A42F01002D7
:10109000828204E0828A4FF6EF731A4082827047A0
:1010A00021B1828A42F00802828204E0828A4FF6ED
:1010B000F7731A408282704721B1828942F400425C
:1010C000828103E08289C2F30E028281704721B1DE
:1010D000828A42F40062828204E0828A4FF2FF73C5
:1010E0001A4082827047828A4FF6FB731A408282CE
:1010F000828A0A438282704721B1828A42F00202C8
:10110000828204E0828A4FF6FD731A408282704721
:1011100002460020B1F5007F00D100BF13880B40CC
:101120000BB1012000E00020704701F40072B2F51D
:10113000007F00D100BFCA430280704770B50246ED
:10114000002400230025002040F66A16B14200D199
:1011500000BFC1F3421501F01F03012606FA03F395
:10116000012D02D19689334006E0022D02D1168A64
:10117000334001E0968A33400C12012606FA04F44B
:101180001688344013B10CB1012000E0002070BD7E
:1011900010B50022002340F66A14A14200D100BF1E
:1011A0000A1201249440A3B2DC43048010BD000065
:1011B000003801400044004000480040004C00401E
:1011C0000050004010B50446012C01D0012000E081
:1011D000002002464FF480615048FFF7EEFA0CB150
:1011E000012000E000204E49C87010BD10B5044633
:1011F000012C01D0012000E0002002464FF4805174
:101200004848FFF7DAFA0CB1012000E00020444919
:10121000887010BD10B50446012C01D0012000E0FB
:10122000002002464FF480713C48FFF7C6FA0CB12B
:10123000012000E000203A49487010BD10B5044676
:10124000012C01D0012000E000200246802133481B
:10125000FFF7B3FA0CB1012000E00020304908701C
:1012600010BD08B501211420FFF7B2FC10208DF845
:1012700003004FF4B060ADF8000003208DF80200C9
:1012800069462648FFF7E8F94FF48050ADF80000B2
:1012900069462448FFF7E0F90020FFF7CFFF002060
:1012A000FFF7B8FF0020FFF7A1FF0020FFF78AFF3C
:1012B00008BD10B500242CE01BA11D4800F01FFA4A
:1012C0000120FFF7BBFF4FF4FA7000F069F800202F
:1012D000FFF7B4FF0120FFF79DFF4FF4FA7000F015
:1012E0005FF80020FFF796FF0120FFF77FFF4FF424
:1012F000FA7000F055F80020FFF778FF0120FFF7A3
:1013000061FF4FF4FA7000F04BF80020FFF75AFF2E
:10131000641CB4F57A7FCFDB10BD000000100140E3
:1013200028000020000801406C65640D0A000000E0
:10133000003801404FF0E020006920F004004FF039
:10134000E02108610920364908700846007800EB62
:101350004001C1EBC0104FF6FF7101EAC0003149F6
:1013600008807047002120F07F402D4A12784243C8
:101370004FF0E0235A6100229A6101221A6100BFF6
:101380004FF0E022116901F001021AB101F480323C
:10139000002AF5D000224FF0E0231A619A617047CD
:1013A000002100B9704720F07F401E4A1288424356
:1013B0004FF0E0235A6100229A6101221A6100BFB6
:1013C0004FF0E022116901F001021AB101F48032FC
:1013D000002AF5D000224FF0E0231A619A6100BF85
:1013E000E0E770B50446002600254FF4FA7094FB40
:1013F000F0F0C6B24FF4FA7094FBF0F100FB11402C
:1014000085B205E04FF4FA70FFF7CAFF701EC6B24E
:10141000002EF7D115B12846FFF7C2FF70BD0000BE
:101420002C0000202E0000201FB501211120FFF705
:10143000CFFB4FF46050ADF80C0048208DF80F0042
:1014400003A94E48FFF708F90420ADF80C0003A9E2
:101450004B48FFF701F928208DF8000000208DF897
:1014600001008DF8020001208DF803006846FFF7A7
:101470002AF808208DF8000000208DF801008DF872
:10148000020001208DF803006846FFF71CF80B21CD
:101490000220FFF7F7F90C210220FFF7F3F90D21E5
:1014A0000220FFF7EFF902210320FFF7EBF943F6E3
:1014B0000400019000208DF808000C208DF8090030
:1014C00001208DF80A0001A8FFF7F8FB1FBD10B539
:1014D0004FF40060FFF758FC78B180212748FFF7F0
:1014E0005BF9C0F10100C4B2224680212348FFF716
:1014F00064F94FF40060FFF758FC4FF48050FFF799
:1015000043FC78B180211D48FFF746F9C0F1010086
:10151000C4B2224680211948FFF74FF94FF480509A
:10152000FFF743FC4FF40050FFF72EFC78B1802109
:101530001248FFF731F9C0F10100C4B22246802100
:101540000E48FFF73AF94FF40050FFF72EFC10BD9C
:1015500010B50420FFF718FC70B180210748FFF791
:101560001BF9C0F10100C4B2224680210348FFF7F5
:1015700024F90420FFF719FC10BD00000010014001
:101580000014014010B586B0044601210420FFF785
:101590001FFB01218803FFF71BFB18208DF81700A4
:1015A0004FF40070ADF8140003208DF8160005A963
:1015B000A348FFF751F804208DF817000002ADF89A
:1015C000140003208DF8160005A99D48FFF744F884
:1015D00001940020ADF810000C20ADF80E000020A2
:1015E000ADF80C00ADF80A00ADF8080001A9954867
:1015F000FFF727FC01219348FFF7AFFC012240F2DF
:1016000025519048FFF7B5FC25208DF800000120FA
:101610008DF8030000208DF8010002208DF80200F3
:101620006846FEF750FF06B010BD10B586B0044600
:1016300001210420FFF7CCFA01214804FFF7D5FA75
:1016400018208DF817000420ADF8140003208DF841
:10165000160005A97A48FEF7FFFF04208DF8170051
:101660000820ADF8140003208DF8160005A9744871
:10167000FEF7F2FF01940020ADF810000C20ADF849
:101680000E000020ADF80C00ADF80A00ADF808001F
:1016900001A96D48FFF7D5FB01216B48FFF75DFC01
:1016A000012240F225516848FFF763FC26208DF89F
:1016B000000001208DF8030000208DF801008DF856
:1016C00002006846FEF7FFFE06B010BD2DE9F041AE
:1016D00007460C46154600260DE014F8011B384657
:1016E000FFF7A8FC00BF40213846FFF711FD002896
:1016F000F9D0701C86B2AE42EFDBBDE8F0810FB4CA
:1017000030B5CBB0054601AC50A8009001A8009AB6
:101710004F9902F0F3FF002000900BE014F8011B3A
:101720002846FFF787FC00BF40212846FFF7F0FC62
:101730000028F9D020780028F0D14BB030BC5DF8FB
:1017400014FB4248008808B9012070473F480088D0
:101750003E494988884203D100203C490880F4E78B
:101760003A480088394948800120EEE73848008827
:1017700008B90120704736480088354949888842B1
:1017800003D1002032490880F4E73148008830490D
:1017900048800120EEE710B540F225512948FFF7B7
:1017A000CDFCB0B129480088C82802D300202749C1
:1017B00008802448001D0088C1B22448028800889F
:1017C000401C224B1880181D815420211D48FFF712
:1017D000ACFC10BD10B540F225511B48FFF7AEFC24
:1017E000B0B11B480088C82802D3002018490880DF
:1017F0001548001D0088C1B2154802880088401CA9
:10180000134B1880181D815420210F48FFF78DFCC1
:1018100010BD70B504460D46002600BF0CE014F85C
:10182000011B0948FFF706FC00BF40210648FFF7EF
:101830006FFC0028F9D0761CAE42F0DB70BD0000D2
:10184000000801400038014000440040D40000205E
:10185000A001002010B54FF4A060FEF72FFEFFF7A7
:1018600069FDFFF7FEFC4FF4E130FFF78BFE4FF40C
:10187000E130FFF7DAFE10BDE2B00024FFF7EAFF27
:101880001EA12048FFF73BFF36E0FFF75AFF002874
:101890002FD11D4A1DA11B48FFF731FF002407E08F
:1018A0001948025D1CA11748FFF729FF601C84B28C
:1018B0001548001F4088A042F2DC16A11148FFF72E
:1018C0001EFFCC212FA802F0C4FFCC220E49091F15
:1018D0002FA802F025FFBC2233A9684602F065FF5D
:1018E0002FA80FC800F08EF8CC210748001F02F087
:1018F0008EFFC820FFF736FDC7E700003131310DFC
:101900000A00000000380140D800002062756620FF
:101910003D2025730D0A00002564200070B50546A2
:101920000C46042D06D0052D0ED0062D16D0072D01
:1019300028D11DE0012C03D10120FFF77FFC02E03C
:101940000020FFF77BFC22E0012C03D10120FFF7F0
:1019500061FC02E00020FFF75DFC18E0012C03D1E0
:101960000120FFF743FC02E00020FFF73FFC0EE000
:10197000012C03D10120FFF725FC02E00020FFF736
:1019800021FC04E059A15E48FFF7B9FE00BF00BF8B
:1019900070BD13B59DF80000FF2832D19DF80100FD
:1019A00001282ED1BDF80200202823D00CDC042809
:1019B0001DD004DC012812D0022820D116E008280E
:1019C00016D010281BD114E0402814D0802813D042
:1019D000B0F5807F11D0B0F5007F10D10EE09DF8FA
:1019E00005109DF80400FFF799FF09E008E007E003
:1019F00006E005E004E003E002E001E000E000BFF3
:101A000000BF1CBD0FB41CB5002400200090019045
:101A10009DF814008DF800009DF815008DF8010068
:101A20009DF817109DF8160001EB002080B2ADF86C
:101A300002009DF818008DF804009DF819008DF83B
:101A400005009DF81A008DF806009DF815209DF8F8
:101A500016100A449DF817100A449DF818100A44FD
:101A60009DF819105018C11700EB11610912A0EB75
:101A700001218CB29DF80600A04208D021A1204887
:101A8000FFF73DFE4FF0FF301CBC5DF814FB21A1B9
:101A90001B48FFF734FE9DF8002025A11848FFF7EA
:101AA0002EFE9DF8012022A11548FFF728FEBDF863
:101AB00002201FA11248FFF722FE9DF804201CA15E
:101AC0000F48FFF71CFE9DF8052019A10C48FFF7F1
:101AD00016FE9DF8062016A10948FFF710FEDDE965
:101AE0000001FFF756FF0020CEE700007061726131
:101AF0006D65746572206572726F720D0A00000068
:101B00000038014064617461206572726F720D0A61
:101B1000000000002E2E2E2E2E2E2E2E2E2E2E2E9D
:101B20002E2E2E2E2E2E2E2E2E2E2E2E0D0A000076
:101B3000307825780D0A00004B48802102E0491ECC
:101B4000002204C00029FAD1484A494B1A600022F9
:101B5000484B1A807047704770477047704770470E
:101B6000704770B5044610464FF080750560051F3C
:101B700028462C60404E051F28462E604FF0123636
:101B8000051F28462E604FF00336051F28462E609D
:101B90004FF00236051F28462E607610051F284696
:101BA0002E60051F284629604FF01136051F284674
:101BB0002E604FF01036051F28462E604FF0093674
:101BC000051F28462E604FF00836051F28462E6058
:101BD0004FF00736051F28462E604FF00636051FCA
:101BE00028462E604FF00536051F28462E604FF020
:101BF0000436051F28462E6070BD7047704710B52B
:101C00001C480088401C1B490880084600880228A0
:101C100003D30020088002F051FC10BD10B502F083
:101C200013FD044615480078401C144908702046EE
:101C300002F00EFD00F0ADFA00F081F910BD411E7A
:101C40004FF0E0225161FF210D4A11704FF0E02169
:101C5000096941F005014FF0E0221161114609695F
:101C600041F00201116170476C02002068040020FD
:101C700030000020340000202D3E000851000020DC
:101C800023ED00E07CB5002514E06946284601F00C
:101C9000DBFF064666B9F84850F8254044B1012CF0
:101CA00006D0D4E9020100EB810060640198A064D1
:101CB000681CC5B23F2DE8D97CBD002400BF02E0FE
:101CC000282002F0C9F8ED4800780028F8D0EC4848
:101CD00000686421B0FBF1F0E9490860084600683B
:101CE00028B90020E7490870FF2001F0EDFF00BF90
:101CF00002F0AAFC0446E4480068E44908600020B9
:101D0000E1490860204602F0A3FCE0480068DC4995
:101D10000968B0FBF1F0C0F16400DA490870FFF720
:101D20001FFFFFF7AFFF142002F096F8E0E700B5C1
:101D300087B0032000218022D54BCDE90132CDE9C7
:101D400003104FF6FE703E23D24A0090AFF295008A
:101D500001F093FD06AAD0A13E2001F0F7FE07B0E6
:101D600000BD002400BF00BF02F06EFC0446C64860
:101D70000068401CC4490860204602F069FCFFF777
:101D8000EDFEF1E700B587B0032000218022C64BAD
:101D9000CDE90132CDE903104FF6FF703F23C34A6E
:101DA0000090AFF2410001F068FD06AAC0A13F20FB
:101DB00001F0CCFE07B000BD04E0002200F8012BCA
:101DC0004A1E91B20029F8D1704770B54FF4C8711E
:101DD000BB48FFF7F1FF00230FE0581C85B203EB6F
:101DE0008300B74901EB800405EB850001EB800619
:101DF000002020706660581C83B2132BEDD303EBD8
:101E00008300AF4901EB8004002020706060084629
:101E1000AC49086070BD70B54FF49361AA48FFF7F4
:101E2000CBFF4FF480719448FFF7C6FF002413E006
:101E3000601CC5B2C4EBC40000EB4000A24901EB3A
:101E40008003C5EBC50000EB400001EB80065E613E
:101E50009EA0D864601CC4B20D2CE9D3C4EBC400AE
:101E600000EB4000984901EB80030020586197A0E7
:101E7000D86400209649086093489649086070BD70
:101E80000021954A1170002004E00021934A11546A
:101E9000411CC8B20828F8D30021914A1170914A18
:101EA0001170914A1160914A116070470020904969
:101EB00008609049087090490870904908709049EE
:101EC00008709049086070490860704908606C4962
:101ED00008606A490870704710B5FFF72DFEFFF7DC
:101EE000E5FFFFF7CDFFFFF796FFFFF76EFF00F06E
:101EF000EBFE01F0E2F9FFF745FFFFF718FF02F0F4
:101F000037FBFFF728FE10BD7D480078012808D177
:101F100078480078FF2804D276480078401C75493C
:101F20000870704778496C4A1278885C6B49095C84
:101F3000754A515C01EBC0016A4A1170704710B5D7
:101F400000246F480078012830D102F07DFB044660
:101F50006848007820B167480078401E65490870DD
:101F600064480078F8B964480078E0B9FFF7DAFF10
:101F700041485C49097850F821005B49086059489C
:101F800000785749097888420DD057480068806B1F
:101F9000401C5549096888635A480068401C5949E3
:101FA000086002F070FB204602F052FB10BD10B535
:101FB000002453480078012811D102F045FB044663
:101FC0004C48007840B94C480078FF2804D24A4871
:101FD0000078401C48490870204602F039FB10BDCB
:101FE00010B5002402F030FB044642480078F8B9EE
:101FF00041480078E0B9FFF795FF1F483949097853
:1020000050F821003849086036480078344909788A
:1020100088420DD034480068806B401C3249096802
:10202000886338480068401C3649086002F024FB89
:10203000204602F00DFB10BD10B50024304800789A
:1020400001286ED102F000FB04462B48007880B1D5
:1020500029480078401E284908700846007848B989
:102060002448007838B9204602F0F2FAFFF7B8FFAA
:1020700057E053E04EE049E04C0A002050000020B9
:102080004800002044000020600000204C00002098
:102090004C0600204808002075432F4F532D494916
:1020A00020537461740000004C080020480A00208E
:1020B00075432F4F532D49492049646C650000003A
:1020C0006C0400203C0000204C0B00203F0000006E
:1020D00070000020680000205500002056000020FD
:1020E00053000020540000206C00002064000020F9
:1020F0007C00002051000020520000205F000020E2
:102100005E00002038000020545E0008204602F0E7
:102110009FFA06E0204602F09BFA02E0204602F019
:1021200097FA10BD10B5EB48007890B9FFF7FAFEAA
:10213000E9480078E9490870E948E749097850F822
:102140002100E849086008460068E749086002F095
:1021500082FA10BD10B50024022001F07DFE02F0CD
:1021600073FA04460020E1490860204602F070FA44
:10217000142001F071FE02F067FA0446DB480068A3
:10218000DB4908600120DB490870204602F060FA54
:1021900010BD70B50026FFF732FD02F055FA064675
:1021A000D5480068401CD4490860304602F050FA17
:1021B000C8480078012853D1D048007820B10128C0
:1021C00004D0022809D103E001250BE0002509E035
:1021D00001250120C949087004E001250020C749F4
:1021E000087000BF00BF05B970BDC548046833E082
:1021F00002F02AFA0646E06A50B3E06A401EE06246
:10220000E06A28BB94F8300000F0370040B114F8C1
:10221000300F00F0C800207001206070303C02E0F8
:10222000002084F8310094F8300000F0080078B9FC
:102230003434A078B34909780843B249087020784B
:10224000B149085C6178084314F83419AE4A505417
:102250006469304602F0FCF994F832003F28C7D197
:1022600000BFC1E74FF492707047704710B590F807
:10227000342001F10B039B5C90F83540A34301F13E
:102280000B04A35423469B5C23B98B7A90F8364009
:10229000A3438B7210BD2DE9F04F05460F469046C3
:1022A0009946A87A99490E5C05F10B00805D11F8FA
:1022B00000B00BEBC60000F0FF0A894850F82A4036
:1022C00000202034E0602760207C20EA0800207491
:1022D00084F81190207C203C00F0080068B994F844
:1022E0003600884909780843864908708648805D29
:1022F00094F8351008438449885529462046FFF74D
:10230000B5FF5046BDE8F08F10B5774A1268D0612E
:10231000754A126892F8343000F10B02D25C724BAD
:102320001B6893F835301A436F4B1B6893F83440A1
:1023300000F10B031A55827A6B4B1B6893F8363009
:102340001A438272684A126892F834106E4A525CDC
:10235000654B1B6893F835309A436B4B5A541A46B9
:10236000525C42B9604A126892F83630654A127877
:102370009A43644B1A7010BD014600228A720020F5
:1023800005E0002301F10B021354421CD0B20828CF
:10239000F7D3704705E011F8013B00F8013B531EED
:1023A0009AB2002AF7D170470146002002E0491C8A
:1023B000421CD0B20A78002AF9D170472DE9F84FB3
:1023C00005460F4690469946DDE90AAB002000908D
:1023D00002F03AF900904E480468002C75D0183489
:1023E00054F8040C4A490860009802F031F944F8A6
:1023F000187CA576002020766076606144F814BCD5
:1024000044F80CAC44F8108C0C9824F8080C24F810
:10241000069C0020E077E810207705F00700E076C2
:10242000217F01208840A077E17E012088406077ED
:1024300000206060E060A0602062A0626062E062F4
:102440002063AFF278306063183C002606E000217C
:1024500004F1500040F82610701CC6B2002EF6D0D1
:102460002046FFF7CBFB2046FFF776FB02F0ECF8A7
:1024700000901B4840F8254021480068606100201A
:10248000A0611F48006810B11D48006884611C48A5
:1024900004603434A0781B4909780843194908704E
:1024A00020781949085C6178084314F83419164AF1
:1024B000505418480078401C16490870009802F0E3
:1024C000C7F80020BDE8F88FFFE7009802F0C0F8D9
:1024D0004220F7E75E000020540000205300002057
:1024E0004C0A00206C0000206400002060000020E6
:1024F00048000020500000207C00002074000020D4
:10250000700000205500002056000020545E000896
:10251000680000205F0000202DE9F05F04460F46B0
:1025200091461E464FF0000B2078052804D001206C
:1025300030700020BDE8F09F09F0800ABAF1000F6A
:1025400004D029F080094FF0010801E04FF00008A5
:102550000020307002F078F88346B9F1000F2CD0DB
:10256000B9F1010F3BD0B9F1020F03D0B9F1030F5C
:1025700046D111E0208900EA0705BD4206D1B8F135
:10258000010F05D12089A843208101E0702030701F
:10259000584602F05DF83AE0208900EA070535B1B7
:1025A000B8F1010F05D12089A843208101E07020F6
:1025B0003070584602F04CF829E0208927EA0005DF
:1025C000BD4206D1B8F1010F05D1208928432081F1
:1025D00001E070203070584602F03AF817E0208988
:1025E00027EA000535B1B8F1010F05D1208928434C
:1025F000208101E070203070584602F029F806E092
:10260000584602F025F800256F20307000BF00BF4B
:1026100028468FE72DE9F04106460D460027FA4887
:10262000007820B1102028700020BDE8F08102F071
:102630000BF80746F548046884B100684068F34920
:10264000086005202070268100206060F0A0E06016
:10265000384601F0FDFF0020287004E0384601F004
:10266000F7FF722028702046DFE730B501464A6840
:1026700008682AB9CC68606028B10025456002E08E
:10268000106000B142608B6800255D6230BDF0B51E
:1026900006460F46B4680020283460602780207A00
:1026A00000F0DF00207200206072207A283C88B998
:1026B0003434A078D74909780843D649087020787F
:1026C000D549085C6178084314F83419D24A50544B
:1026D000012500E000253046FFF7C7FF2846F0BD82
:1026E0002DE9F0470446894615464FF0000AC648D2
:1026F000007820B10F2028702046BDE8F0872078B0
:10270000052803D0012028702046F6E701F09CFF41
:102710008246606808B1012700E00027B9F1000F88
:1027200003D0B9F1010F3CD119E08FB9B8A0E06036
:1027300000202070B5480068606000202081B34808
:102740000460504601F084FF00202870002605E058
:10275000504601F07DFF49202870264628E0D4F835
:10276000048005E000214046FFF791FFD8F8008083
:10277000B8F1000FF6D1A6A0E06000202070A348B9
:102780000068606000202081A0480460504601F08D
:102790005FFF012F01D1FFF723FC002028700026E6
:1027A00006E0504601F054FF07202870264600BF7F
:1027B00000BF3046A1E72DE9F04105460E4614461C
:1027C00000279148007820B1112020700020BDE83A
:1027D000F08101F039FF07462878052806D03846F1
:1027E00001F036FF012020700020F0E7E86830603B
:1027F0003068FFF7D9FD8046384601F029FF0020F8
:1028000020704046E3E72DE9F04105460E461446A8
:1028100000277D48007818B112202070BDE8F081B3
:1028200001F012FF07462878052805D0384601F048
:102830000FFF01202070F1E7EE60384601F008FF3D
:102840000020207000BFE9E7F0B51446059E734FE5
:102850003F6897F8307047F02007DFF8C0C1DCF818
:1028600000C08CF830700027DFF8B0C1DCF800C081
:102870008CF83170694F3F68FE62684F3F6879623B
:102880000C828B74654F3F688F6047680F6000272C
:102890004F60C860456805B1696041605F4F3F683F
:1028A00097F834205C4FBF5CDFF870C1DCF800C0E3
:1028B0009CF835C027EA0C07DFF85CC10CF8027001
:1028C0006746BF5C5FB9554F3F6897F836C0514FB8
:1028D0003F7827EA0C07DFF83CC18CF80070F0BDA8
:1028E0002DE9F04F89B005460F4691469A46129E53
:1028F000002002904448007828B102203070002067
:1029000009B0BDE8F08F4648007818B10D2030704E
:102910000020F5E72878052803D00120307000203A
:10292000EEE709F0800BBBF1000F04D009F07F093E
:102930004FF0010801E04FF0000801F085FE029021
:10294000B9F1000F4AD0B9F1010F78D0B9F1020FF7
:1029500003D0B9F1030F71D120E0288900EA070400
:10296000BC420FD1B8F1010F02D12889A0432881C0
:102970002A4800680485029801F06AFE0020307041
:102980002046BDE74B463A4604A92846CDF800A0AC
:10299000FFF75AFF029801F05BFE78E0288900EA11
:1029A00007047CB1B8F1010F02D12889A043288126
:1029B0001A4800680485029801F04AFE0020307031
:1029C00020469DE74B463A4604A92846CDF800A08C
:1029D000FFF73AFF029801F03BFE58E0288927EA0A
:1029E0000004BC421ED1B8F1010F02D12889204356
:1029F00028810A4800680485029801F029FE002019
:102A0000307020467CE71AE0510000204000002092
:102A10003F00000055000020560000206400002008
:102A2000520000204B463A4604A92846CDF800A0A3
:102A3000FFF70AFF029801F00BFE28E01FE028894B
:102A400027EA00047CB1B8F1010F02D128892043A4
:102A50002881B14800680485029801F0F9FD002042
:102A6000307020464CE74B463A4604A92846CDF83C
:102A700000A0FFF7E9FE029801F0EAFD07E00298E6
:102A800001F0E6FD00246F203070204638E700BFDB
:102A9000FFF7A6FA01F0D8FD02909F48006890F871
:102AA000310020B39C48006890F83100039000206A
:102AB0009949096881F8310004A8FFF7D6FD002084
:102AC0009549096881F83000029801F0C1FD0024A1
:102AD0000398012805D0022802D10E20307003E0AF
:102AE00000BF0A20307000BF00BF204608E78A48B8
:102AF0000068048DB8F1010F1ED1B9F1000F0ED09E
:102B0000B9F1010F0CD0B9F1020F03D0B9F1030FE5
:102B10000AD100E000BF2889A04328810BE000BF54
:102B200028892043288106E0029801F091FD6F205A
:102B300030700020E4E600BF029801F089FD00201B
:102B400030702046DCE670B5002501F07DFD0546BD
:102B500071480068048D284601F07AFD204670BD5A
:102B60002DE9FC5F0446894692461E4600200090EF
:102B70002078052804D0012030700020BDE8FC9F9B
:102B800001F062FD0090BAF1000F03D0BAF1010F1D
:102B90000AD104E0208920EA090020810BE0208985
:102BA00040EA0900208106E0009801F051FD712003
:102BB00030700020E2E700BF4FF0000B656855E081
:102BC000A87C40B3012838D0022802D0032844D181
:102BD00011E02089298A00EA0107288AB84209D130
:102BE00039462846FFF753FD8046B8F1010F01D161
:102BF0004FF0010B38E02089298A00EA01074FB124
:102C000039462846FFF743FD8046B8F1010F01D150
:102C10004FF0010B28E0288A218920EA0107288A41
:102C2000B84209D139462846FFF731FD8046B8F150
:102C3000010F01D14FF0010B16E0288A218920EA0B
:102C400001074FB139462846FFF721FD8046B8F10C
:102C5000010F01D14FF0010B06E0009801F0F8FCE4
:102C60006F203070002089E700BF2D68002DA7D1AC
:102C7000009801F0EDFCBBF1010F01D1FFF7B0F9B5
:102C800001F0E2FC009020890190009801F0E0FC46
:102C900000203070019871E72DE9F04104460D469F
:102CA00000272078052804D0012028700020BDE8E6
:102CB000F08101F0C9FC07462689384601F0C8FCBE
:102CC000002028703046F2E72DE9F04150211348EA
:102CD000FFF772F800250EE0681C86B20F4800EB83
:102CE000051400EB0617002020706760AFF2E020AB
:102CF000E060681C85B2042DEED3084800EB051493
:102D0000002020706060AFF2F820E06003480449C2
:102D10000860BDE8F081000064000020FC05002090
:102D2000400000202DE9F04106460D464FF0000816
:102D30003078022804D0012028700020BDE8F081FE
:102D400001F082FC80467468E08A78B12169081D30
:102D500020610F68E08A401EE082A16820698842F5
:102D600001D1606820610020287002E01F202870D7
:102D70000027404601F06CFC3846DFE72DE9F041C2
:102D800006460F464FF00008F748007810B10020C3
:102D9000BDE8F08101F058FC8046F4480568006801
:102DA00020B1F24800684068F0490860404601F0F0
:102DB0004FFC3DB301F048FC8046ED480468C4B1C7
:102DC00000680068EA490860404601F041FC66601E
:102DD00006EB8700A060E6602661A7820020E08203
:102DE00002202870002028816C602846FFF7C4FA72
:102DF00008E0DE4800686860DC480560404601F095
:102E000027FC00252846C3E72DE9F04704468946FC
:102E100015464FF0000A2078022804D001202870BF
:102E20002046BDE8F087D048007818B10F20287000
:102E30002046F6E701F008FC8246A07A10B14FF078
:102E4000010801E04FF00008B9F1000F03D0B9F11B
:102E5000010F45D11FE0B8F1000F15D16668C448D5
:102E600000683060C248066000202070BF480068DB
:102E7000606000202081BD480460504601F0E8FBFE
:102E800000202870002705E0504601F0E1FB4920B2
:102E9000287027462BE005E000230422194620462F
:102EA000FFF7F9F9A07A0028F6D16668B048006803
:102EB0003060AF48066000202070AC480068606059
:102EC00000202081A9480460504601F0C1FBB8F100
:102ED000010F01D1FFF784F800202870002706E0D9
:102EE000504601F0B5FB07202870274600BF00BF01
:102EF000384696E770B50546002601F0A5FB064664
:102F00006C686068E060606820610020E0823046A4
:102F100001F09EFB002070BD2DE9F0470746884672
:102F200015464FF000093878022804D00120287097
:102F30000020BDE8F0878C48007818B10220287086
:102F40000020F6E78B48007818B10D20287000208B
:102F5000EFE701F079FB81467C68E08A98B121694E
:102F6000081D20610E68E08A401EE082A168206989
:102F7000884201D160682061484601F069FB002069
:102F800028703046D5E77C48006890F8300040F063
:102F900004007949096881F8300000207649096801
:102FA00081F8310074480068C0F82C803846FFF77B
:102FB000ABF9484601F04CFBFFF712F801F044FB77
:102FC00081466D48006890F8310020B101280DD08D
:102FD00002280AD105E068480068066A00202870C7
:102FE0000DE000260E20287009E000BF3946624837
:102FF0000068FFF73BF900260A20287000BF00BFD9
:1030000000205D49096881F830005B49096881F852
:10301000310059490968C86157490968086248463A
:1030200001F016FB304684E72DE9F04104460F46D7
:1030300015464FF000082078022804D0012028709F
:103040000020BDE8F08101F0FFFA8046A07A20B3AD
:1030500000267FB1012F0CD107E0022304220021BA
:103060002046FFF718F9701CC6B2A07A0028F4D1E8
:1030700009E000BF0223042200212046FFF70BF9DC
:10308000701CC6B200BF00BF404601F0E1FAFEF777
:10309000A7FF0E2028703046D3E7404601F0D8FA4B
:1030A0000020287000BFCCE72DE9F04105460E4610
:1030B00000272878022802D00120BDE8F08101F025
:1030C000C3FA0746A87A60B1002304223146284695
:1030D000FFF7E1F8384601F0BBFAFEF781FF002068
:1030E000EBE76C68E08AA18A884204DB384601F08D
:1030F000AFFA1E20E1E7E168081DE0600E60E08A9B
:10310000401CE082D4E90210884201D16068E0608E
:10311000384601F09DFA0020CFE72DE9F041054641
:103120000E4600272878022802D00120BDE8F08151
:1031300001F08AFA0746A87A60B1002304223146DA
:103140002846FFF7A8F8384601F082FAFEF748FF54
:103150000020EBE76C68E08AA18A88420EDB3846E3
:1031600001F076FA1E20E1E7510000203C0000202B
:10317000780000205200002064000020616820696F
:10318000884201D1A06820612069001F2061206968
:103190000660E08A401CE082384601F059FA0020BF
:1031A000C4E72DE9F04105460F4616464FF00008EA
:1031B0002878022802D00120BDE8F08101F044FA0D
:1031C0008046A87AE8B106F0010050B105E000237E
:1031D000042239462846FFF75EF8A87A0028F6D17F
:1031E00005E00023042239462846FFF754F84046FC
:1031F00001F02EFA06F0040008B9FEF7F1FE0020F7
:10320000DAE76C68E08AA18A884204DB404601F074
:103210001FFA1E20D0E706F0020058B1616820694D
:10322000884201D1A06820612069001F20612069C7
:10323000076009E0E168081DE0600F60D4E9021052
:10324000884201D16068E060E08A401CE08240462C
:1032500001F0FEF90020AFE72DE9F04705460C46E6
:103260004FF0000A2878022802D00120BDE8F0873C
:1032700001F0EAF98246A87A207405F10B0804F1FE
:103280000809002705E018F8010B09F8010B781C64
:10329000C7B2082FF7D36E68F08A18B1306900689A
:1032A000206001E000202060F08AA080B08AE080E9
:1032B000504601F0CDF90020D8E72DE9F041782102
:1032C0001048FEF779FD00240DE0601C86B204EB87
:1032D00044000C4901EBC00506EB460001EBC007BA
:1032E0002F60601C84B2042CEFD304EB440005492A
:1032F00001EBC00500202860084603490860BDE8CE
:10330000F0810000E40F00207800002070B5044632
:1033100000262078032801D0002070BD01F094F928
:103320000646258915B12089401E2081304601F0CE
:103330008FF92846F1E770B505460026D248007897
:1033400008B1002070BD01F07FF90646CF4804683F
:10335000006820B1CD4800684068CC49086030461C
:1033600001F076F93CB103202070258100206060D7
:103370002046FFF701F82046E4E72DE9F047044630
:10338000884615464FF000092078032804D0012014
:1033900028702046BDE8F087BB48007818B10F20A0
:1033A00028702046F6E701F04FF98146A07A08B16F
:1033B000012700E00027B8F1000F03D0B8F1010F9A
:1033C00035D117E07FB900202070B04800686060F8
:1033D00000202081AD480460484601F039F9002002
:1033E0002870002605E0484601F032F9492028708F
:1033F000264623E005E00023012219462046FEF779
:103400004AFFA07A0028F6D12070A04800686060CA
:10341000002020819D480460484601F019F9012FE1
:1034200001D1FEF7DDFD00202870002606E04846A9
:1034300001F00EF907202870264600BF00BF304675
:10344000A8E72DE9F04105460E46144600272878E6
:10345000032803D001202070BDE8F0818A4800785D
:1034600010B102202070F7E78948007810B10D20D4
:103470002070F1E701F0E8F80746288940B1288973
:10348000401E2881384601F0E3F800202070E3E771
:103490008048006890F8300040F001007D490968DC
:1034A00081F8300000207B49096881F831007948B3
:1034B0000068C6622846FEF727FF384601F0C8F8C4
:1034C000FEF78EFD01F0C0F807467248006890F8DC
:1034D000310020B1012809D0022806D102E00020E5
:1034E00020700BE00E20207008E000BF29466948DC
:1034F0000068FEF7BBFE0A20207000BF00BF00205E
:103500006449096881F830006249096881F831002E
:1035100060490968C861384601F09AF800BF9BE726
:103520002DE9F04104460F4615464FF0000820787B
:10353000032804D0012028700020BDE8F08101F0AC
:1035400083F88046A07A20B300267FB1012F0CD1EA
:1035500007E00223012200212046FEF79CFE701C9A
:10356000C6B2A07A0028F4D109E000BF02230122EC
:1035700000212046FEF78FFE701CC6B200BF00BFC0
:10358000404601F065F8FEF72BFD0E20287030460E
:10359000D3E7404601F05CF80020287000BFCCE77C
:1035A00070B5044600252078032801D0012070BDA5
:1035B00001F04AF80546A07A60B1002301221946BD
:1035C0002046FEF768FE284601F042F8FEF708FDA7
:1035D0000020ECE720894FF6FF71884207D220894E
:1035E000401C2081284601F033F80020DFE7284600
:1035F00001F02EF83320DAE72DE9F04704460D46B6
:103600004FF000092078032802D00120BDE8F087A0
:1036100001F01AF88146A07AA87204F10B0705F1AF
:103620000208002605E017F8010B08F8010B701CD2
:10363000C6B2082EF7D320892880484601F008F842
:103640000020E3E72DE9F04104460E461546002729
:103650002078032803D001202870BDE8F08100F015
:10366000F3FF074600202870208908B1268105E075
:10367000A07A08B9268101E049202870384600F078
:10368000E7FF00BFE9E70000510000203C000020F8
:1036900052000020640000202DE9FF5F814688462B
:1036A0000020009000F0D0FF0090F94850F828006A
:1036B00030B1009800F0CCFF282004B0BDE8F09FA6
:1036C000B9F1FF0F03D1F348006890F83290F04849
:1036D00050F8294024B9009800F0BAFF2920ECE7FF
:1036E000012C04D1009800F0B3FF4320E5E74FEA36
:1036F000E80708F0070003900120B84000F0FF0A37
:1037000001210398814001F0FF0B0020E04941F8BE
:103710002900084640F8284014F8346FA078029039
:103720006078343C0190DC48815D01980140D1B162
:10373000D948805D01998843D74988550846805DFE
:1037400028B9D648007802998843D4490870D348EC
:10375000007840EA0A00D1490870CF48C05D40EACD
:103760000B00CD49C855E569D5B105F10B00805D69
:103770000199884305F10B0188550846805D18B909
:10378000A87A02998843A872A87A40EA0A00A87227
:1037900005F10B00C05D40EA0B0005F10B01C855B7
:1037A00084F8328084F83470039884F8330084F805
:1037B00036A084F835B0009800F04AFFB848007889
:1037C000012801D1FEF70CFC002076E72DE9FE4F21
:1037D00006460F4690461C464FF0000900F034FFA5
:1037E0008146B048007828B1484600F031FF3C20BF
:1037F000BDE8FE8FA64850F8240060BB0120A44914
:1038000041F82400484600F023FF00234246394691
:103810003046FEF7A6F9824600200090019003464C
:103820000246514602902046FEF7C8FD054635B9CE
:103830009B48007801280CD1FEF7D2FB09E000F08C
:1038400003FF81460020924941F82400484600F0D9
:10385000FFFE2846CCE7484600F0FAFE2820C7E7DE
:1038600002F0010343B102F002032BB102E0491E52
:10387000002308C00029FAD170472DE9F04F85B028
:1038800081468A4693461C46DDE90F78129D00204A
:10389000039000F0D9FE03908248007830B103987D
:1038A00000F0D6FE3C2005B0BDE8F08F784850F817
:1038B000240088BB0120764941F82400039800F0D9
:1038C000C7FE2A4641463846FFF7CAFF2B465A46EE
:1038D00051464846FEF745F904901198CDE900801D
:1038E00002953A4620460E9B0499FEF767FD064670
:1038F00036B96B48007801280CD1FEF771FB09E05E
:1039000000F0A2FE03900020614941F824000398D2
:1039100000F09EFE3046C6E7FFE7039800F098FEF1
:103920002820C0E72DE9F041054600275D480078D2
:1039300010B14020BDE8F0813F2D01D13E20F9E7D4
:1039400000F082FE0746FF2D03D15248006890F830
:1039500032504F4850F8254024B9384600F078FEE0
:103960004320E7E7012C04D1384600F071FE3D20EA
:10397000E0E714F8340F4849085C617888432178FF
:10398000454A505414F834091146085C30B994F88B
:10399000361042480078884340490870E06918B101
:1039A0002046E169FEF762FC666A16B13046FEF712
:1039B0005CFE0020E06284F8300084F831003A4870
:1039C0000078FF2804D238480078401C3649087037
:1039D000384600F03DFEFEF748FC00F035FE074695
:1039E0003148007820B130480078401E2E490870D8
:1039F0002046FEF7B2F82D480078401E2B4908708B
:103A00000020234941F82500A06930B900206169F0
:103A1000886127496069086005E0D4E905014861CB
:103A2000D4E905108861234800686061214804607A
:103A300021A0E064384600F00BFE19480078012808
:103A400001D1FEF7CDFA002074E72DE9F0410446DC
:103A500000273F2C02D13E20BDE8F081FF2C0BD186
:103A600000F0F2FD07460B48006890F837603846D2
:103A700000F0EEFD3046EFE700F0E6FD07460448B3
:103A800050F82450D5B9384600F0E2FD4320E3E772
:103A90004C0A002064000020560000205500002041
:103AA0005E00002051000020520000205F00002036
:103AB00070000020680000203F000000012D04D1AC
:103AC000384600F0C5FD3D20C6E73F2085F83700A9
:103AD000384600F0BDFD0020BEE72DE9F047064660
:103AE0000F4614464FF00008D548007820B1112049
:103AF00020700020BDE8F08700F0A6FD8046FF2E74
:103B000003D1D048006890F83260CF4850F8265072
:103B100035B9404600F09CFD432020700020E9E7C5
:103B2000012D06D1404600F093FD43202070002077
:103B3000E0E7E86C38603868FEF736FC81464046BE
:103B400000F086FD002020704846D3E72DE9F041C3
:103B500006460F4614464FF00008B948007818B1E1
:103B600012202070BDE8F08100F06EFD8046FF2E2F
:103B700003D1B448006890F83260B34850F826503A
:103B80002DB9404600F064FD43202070EAE7012D86
:103B900005D1404600F05CFD43202070E2E7EF6471
:103BA000404600F055FD0020207000BFDAE770B5F8
:103BB0000546002600F048FD0646A34850F825407B
:103BC00024B9304600F044FD462070BD012C04D1DC
:103BD000304600F03DFD4320F7E794F8300000F058
:103BE000080060B314F8300F00F0F700207014F8EC
:103BF0003009F8B9E06AC8B93434A0789349097833
:103C000008439249087020789149085C617808431C
:103C100014F834198E4A5054304600F019FD8D487E
:103C20000078012809D1FEF7DBF906E0304600F004
:103C30000FFD02E0304600F00BFD0020C5E73046E6
:103C400000F006FD4420C0E72DE9F04707460D4689
:103C50004FF0000A00202860686000F0F5FC824602
:103C6000FF2F03D17748006890F83270764850F8FB
:103C700027402CB9504600F0EBFC4320BDE8F0870C
:103C8000012C04D1504600F0E3FC4320F6E7207CF1
:103C900000F0010020B9504600F0DAFC4520EDE7C5
:103CA0000026D4F80C90D4F80880504600F0D0FCE0
:103CB00000E0761C58F8041B0029FAD02E60A9EB0E
:103CC000060068600020D9E72DE9F04105464FF075
:103CD000000800F0B9FC8046FF2D05D15948006866
:103CE00090F83250012608E05648006890F83200FB
:103CF000A84201D1012600E00026534850F8254093
:103D00002CB9404600F0A4FC4820BDE8F081012C0D
:103D100004D1404600F09CFC4320F6E794F8347050
:103D20004B48C05D94F8351088434949C85508464A
:103D3000C05D30B994F83610444800788843434950
:103D4000087094F8300040F0080084F830004046D5
:103D500000F07EFC012E01D1FEF742F90020D4E7ED
:103D60002DE9F04105460E46002700F06DFC0746A0
:103D7000FF2D03D13348006890F83250324850F894
:103D800025402CB9384600F063FC2920BDE8F081BD
:103D9000012C04D1384600F05BFC4320F6E75422A6
:103DA00021463046FEF7F6FA384600F051FC002076
:103DB000ECE72DE9F04704460E4617464FF00009A0
:103DC00000F042FC8146FF2C02D11E48056802E04B
:103DD0001D4850F8245005F1500050F82680484600
:103DE00000F036FC002038704046BDE8F0872DE931
:103DF000F04704460E46174698464FF0000900F07B
:103E000023FC8146FF2C02D10E48056802E00E48D3
:103E100050F8245005F1500040F82670484600F054
:103E200017FC002088F80000BDE8F08710B50548B1
:103E30000068FDF794FEFF20FFF774FD10BD000041
:103E400051000020640000204C0A00205500002092
:103E5000560000205E00002070B50546002663482D
:103E6000007800B170BD6248007800B1FAE71DB378
:103E700000F0EAFB06465F48006890F834405E4870
:103E8000005D5C49096891F8351088435A49085526
:103E90000846005D40B95748006890F8361057480A
:103EA000007888435549087052480068C56230461A
:103EB00000F0CEFBFEF794F800BFD3E72DE9F04108
:103EC00004460D4616461F464848007810B1552056
:103ED000BDE8F0814648007808B13220F8E7B81C08
:103EE000C82148434FF47A71B0FBF1F14FF461609F
:103EF0006043C5EB051200EB8200304400EBC002CA
:103F000002EB001001EBC0084046FFF7A5FF0020C0
:103F1000DEE770B5054600263F2D01D32A2070BD8F
:103F200000F092FB0646364850F8254024B930464A
:103F300000F08EFB4320F2E7012C04D1304600F064
:103F400087FB4320EBE7E06A20B9304600F080FBB6
:103F50005020E4E70020E06294F8300000F03700E1
:103F600040B114F8300F20F037002070012060704D
:103F7000303C02E0002084F8310094F8300000F07A
:103F80000800A8B93434A0781C49097808431B49B3
:103F9000087020781849085C6178084314F83419CF
:103FA000154A5054304600F053FBFEF719F802E072
:103FB000304600F04DFB0020B1E770B5002500F061
:103FC00043FB05460F480468284600F041FB2046A5
:103FD00070BD70B50446002500F036FB0546094863
:103FE0000460284600F034FB70BD00005100002042
:103FF00052000020640000205600002055000020E0
:104000004C0A00207C000020F848006808B9002015
:104010007047F6480168F54AC86810600020C8601B
:104020000861F3480088401CF14A1080F14800887C
:10403000401EF04A10800846EAE72DE9F05F064688
:104040000F4690469946DDE90ABA0C9DEA48007889
:1040500020B18B2028700020BDE8F09FFDF7A7FF5E
:10406000FFF7D2FF04462CB9FDF7E6FF8620287043
:104070000020F1E7012084F82500A661E76184F8BB
:104080002480C4F80490C4F808B0BAF1000F02D13B
:10409000DAA0206201E0C4F820A0FDF7CDFF0020E7
:1040A00028702046D8E7002180F8251080F82410D9
:1040B000C161416141608160D0A101620021016163
:1040C000CA490968C160C9490860C9490988491EC7
:1040D000C74A1180C7490988491CC64A11807047E0
:1040E00030B5057D05F00704C54D05EBC4031D681B
:1040F000854205D1C168196039B100250D6104E020
:104100000169C268CA6002B11161012580F82550B9
:104110000025C56005619D886D1E9D8030BD70B510
:1041200005460C462878642803D08920207000209A
:1041300070BDB148007818B18B2020700020F7E7DF
:10414000FDF735FF95F82500D8B101280FD00228DA
:104150000ED003281BD12846FFF7C2FF2846FFF7E1
:10416000A2FFFDF769FF002020700120E0E700BFFB
:104170002846FFF798FFFDF75FFF00202070012021
:10418000D6E7FDF759FF872020700020D0E7FDF724
:1041900053FF8D2020700020CAE72DE9F04105462D
:1041A0000E4614462878642804D089202070002008
:1041B000BDE8F0819048007818B1112020700020EF
:1041C000F6E7FDF7F4FE95F8250098B1012804D034
:1041D000022803D0032813D100BF00BF286A306033
:1041E0003068FEF7E1F80746FDF726FF0020207053
:1041F0003846DDE7FDF720FF872020700020D7E755
:10420000FDF71AFF8D2020700020D1E770B504461D
:104210000D462078642803D089202870002070BDC6
:104220007548007818B18B2028700020F7E7FDF75B
:10423000BEFE94F8250070B301280DD0022825D0C9
:1042400003282FD16F4960690968461AFDF7F4FE0B
:10425000002028703046E2E794F8240001280CD0B2
:10426000022809D1A06908B9E66900E0A669FDF74E
:10427000E3FE0020287006E000BFA669FDF7DCFE23
:104280000020287000BF00BF3046C8E7FDF7D4FE0D
:1042900000202870C3E7FFE7FDF7CEFE87202870D7
:1042A0000020BCE7FDF7C8FE8D2028700020B6E78F
:1042B00070B505460C462878642803D08920207004
:1042C000002070BD4C48007818B18B202070002071
:1042D000F7E7FDF76CFE95F8256036B1012E05D0A5
:1042E000022E04D0032E06D102E000BF00BF00BFA3
:1042F0000020207002E08D20207000BF00BFFDF77D
:104300009BFE3046DDE770B50B46032580F825504F
:10431000012B05D13B4EC5693668354445610CE03B
:1043200085692DB9374EC56936683544456104E065
:10433000344E8569366835444561057D05F00704CE
:104340002F4D05EBC4010D682DB908600025C5602F
:1043500001258D8006E00A680860C26010618D88C2
:104360006D1C8D800025056170BD70B505460C463D
:104370002878642803D089202070002070BD1E4852
:10438000007818B18B2020700020F7E7FDF70FFEB2
:1043900095F82500E8B1012810D002280FD0032895
:1043A0001DD12846FFF79CFE00212846FFF7ABFFF2
:1043B000FDF742FE002020700120DFE700BF002152
:1043C0002846FFF7A0FFFDF737FE002020700120F0
:1043D000D4E7FDF731FE872020700020CEE7FDF7FF
:1043E0002BFE8D2020700020C8E7000090000020E8
:1043F0008200002080000020510000203F000000CB
:10440000DC140020840000202DE9F04105460F4611
:1044100090461C462878642804D08920207000200B
:10442000BDE8F0817848007818B18B20207000201A
:10443000F6E7FDF7BCFD95F82500002832D00128ED
:104440002AD0022827D0032832D12846FFF748FE79
:1044500000202070B7B1032F02D0042F13D108E041
:104460006E681EB12846A968B04701E08F20207011
:104470000CE06E681EB141462846B04701E08F202F
:10448000207003E002E08420207000BF00BFFDF731
:10449000D3FD0120C4E700BFFDF7CEFD8E202070C4
:1044A0000120BDE7FDF7C8FD872020700020B7E799
:1044B000FDF7C2FD8D2020700020B1E710B55348F4
:1044C0000068FFF76DF80446204610BD08B500BF30
:1044D00000BF6A4600214D480068FEF7B2FFFDF7B5
:1044E00066FD4B480068401C494908600846007852
:1044F00000F00708474800EBC8073C681AE0E66888
:10450000434960690968884213D12046FFF7E8FDF6
:1045100094F82400022804D101212046FFF7F3FE7D
:1045200002E0022084F82500656815B12046A168E4
:10453000A8473446002CE2D1FDF77EFDC9E700B55F
:1045400087B0032000218022334BCDE90132CDE931
:1045500003104FF6FD700B46304A00903048FFF7CD
:104560008CF906AA2FA10020FFF7F0FA07B000BDD2
:104570002DE9F0414FF420712E48FDF71DFC40213C
:104580002448FDF719FC002515E0681C86B205EBF0
:104590008500284901EBC00406EB860001EBC0074B
:1045A00064202070002084F82500E760AFF2B4108A
:1045B0002062681C85B20F2DE7D305EB85001D49ED
:1045C00001EBC00464202070002084F82500E06026
:1045D000AFF2D810206200200D490860164908800B
:1045E0001020164908801348154908600120FEF77D
:1045F000A2FE144908600020FEF79DFE03490860F2
:10460000FFF79DFFBDE8F081510000208C000020E5
:1046100084000020DC140020DC120020D8140020CC
:10462000CD44000875432F4F532D494920546D72D6
:10463000000000005C1000208200002080000020AC
:104640009000002088000020EFF3108072B67047C1
:1046500080F310887047204C204D25604FF00004F7
:1046600084F309881E4C4FF0010525701D4C4FF056
:104670008055256062B6FEE730B41A4C4FF0805585
:10468000256030BC704730B4164C4FF08055256023
:1046900030BC704700BF72B6EFF3098028B12038F4
:1046A00080E8F00F10490968086000B50F4880479E
:1046B0005DF804EB0E480F490A7802700A480E496B
:1046C0000A680260106890E8F00F203080F30988D3
:1046D0004EF0040E62B6704720ED00E00000FFFFD0
:1046E0005E00002004ED00E064000020FB1B0008D9
:1046F00053000020540000206C0000201CB50C4624
:10470000064B7B4469460090204600F082F904463F
:104710000020694600F090F920461CBD33030000DC
:10472000032A40F2308010F0030C00F0158011F8DD
:10473000013BBCF1020F624498BF11F801CB00F8B5
:10474000013B38BF11F8013BA2F1040298BF00F809
:1047500001CB38BF00F8013B11F0030300F02580C6
:10476000083AC0F0088051F8043B083A51F804CBED
:10477000A0E80810F5E7121D5CBF51F8043B40F8B3
:10478000043BAFF30080D20724BF11F8013B11F8BE
:1047900001CB48BF11F8012B24BF00F8013B00F802
:1047A00001CB48BF00F8012B704710B5203AC0F08C
:1047B0000B80B1E81850203AA0E81850B1E8185022
:1047C000A0E81850BFF4F5AF5FEA027C24BFB1E85F
:1047D0001850A0E8185044BF18C918C0BDE81040D0
:1047E0005FEA827C24BF51F8043B40F8043B08BFD9
:1047F0007047D20728BF31F8023B48BF11F8012BA0
:1048000028BF20F8023B48BF00F8012B70474FF04B
:1048100000020429C0F0128010F0030C00F01B808D
:10482000CCF1040CBCF1020F18BF00F8012BA8BF9B
:1048300020F8022BA1EB0C0100F00DB85FEAC17C5F
:1048400024BF00F8012B00F8012B48BF00F8012B12
:1048500070474FF0000200B5134694469646203943
:1048600022BFA0E80C50A0E80C50B1F12001BFF429
:10487000F7AF090728BFA0E80C5048BF0CC05DF88F
:1048800004EB890028BF40F8042B08BF704748BFDD
:1048900020F8022B11F0804F18BF00F8012B704751
:1048A00070477047704770B5044685690068C10657
:1048B00001D5302600E02026C00707D070BDD4E91E
:1048C000012130469047206A401C20626D1EF6D5BB
:1048D00070BD70B5044685690078C00707D170BD0A
:1048E000D4E9012120209047206A401C20626D1EDF
:1048F000F6D570BD09684A0501D540B27047C905B3
:10490000FCD500B2704709684A0501D5C0B27047AE
:10491000C905FCD580B2704770B50C460546012A22
:1049200005D02878800600D5EA69002302E001233B
:1049300005E05B1C934202D2E05C0028F9D1A86933
:10494000E618C01AA861286A184428622846FFF7AA
:10495000AAFF04E0D5E9012114F8010B9047B44205
:10496000F8D32846FFF7B5FF70BD00002DE9F041F0
:104970000646002410687529314615A510D0FFF7AA
:10498000B9FF002802DA404212A507E031688A0721
:1049900001D511A502E0490704D510A5012401E0C5
:1049A000FFF7B1FF00210A2306F1240707E0B0FB5F
:1049B000F3F203FB1200303078541046491C0028F3
:1049C000F5D123462A463046BDE8F04100F05FBAF3
:1049D000000000002D0000002B000000200000005F
:1049E00011680268006A530501D508700AE0D30512
:1049F00001D5088006E0130603D5C217C1E90002FD
:104A000000E008600120704701694A1C02610878D3
:104A1000704700B58FB0CDE90131002105910549FE
:104A20007944CDE903101146684600F027F90FB02C
:104A300000BD0000E5FFFFFF0A6802F8010B0A60F5
:104A4000704700002DE9FF5F15468A460446DFF8EF
:104A5000AC80F8440027D8E900103E46CDE90010AC
:104A600010E03AF816106A4602A800F0A0FC411CBB
:104A700007D02178890603D5E269391891420DD80B
:104A80000744761C2078800602D5E069B84205DD2F
:104A9000AE42E6DB3AF816000028E2D1A069C01B5E
:104AA000A0612046FFF7FFFED8E90010CDE9001015
:104AB000002017E03AF818106A4602A800F077FCC8
:104AC000B0F1FF3F81460BD000250DF1080B05E04A
:104AD000D4E901211BF8050090476D1C4D45F7D323
:104AE00008F10100B0428046E4DB206A38442062CD
:104AF0002046FFF7EEFEBDE8FF9F0000FE14000019
:104B00002DE9F0418046D21D22F007020025D2E9AE
:104B10000002F52914A612D0002A06DA0023D0EBF1
:104B2000030063EB020211A608E0D8F800108B071F
:104B300001D50FA602E0490701D50EA601251146B1
:104B4000002408F1240704E000F05CF930323A5503
:104B5000641C50EA0102F7D12B46324621464046FA
:104B6000BDE8F04100F093B9000000002D00000006
:104B70002B0000002000000030B4002100F12404CC
:104B800008E002F00705D208303542EA4372DB083C
:104B90006554491C52EA0305F3D10468002310A2AE
:104BA000250708D504F020040C4304D0C469012370
:104BB0000CA2641EC46130BC00F069B910B5044693
:104BC00021461068FFF79FFE02462046BDE81040D0
:104BD0000023D1E7D21D22F00701D1E90023CBE762
:104BE0000000000030000000F0B40D460188090507
:104BF00002D5214C7C4402E01F4C7C440E34002141
:104C000000F1240608E002F00F071209E75D42EA0E
:104C100003721B097754491C52EA0307F3D1027847
:104C20000023120704D5702D06D009B102231134D8
:104C30002246F0BC00F02BB901231034F8E770B520
:104C400004460D4621461068FFF75DFE02462946E0
:104C50002046BDE870400023C6E7D21D22F00703BE
:104C6000D3E90023C0E70368126843F02003036020
:104C70000823C3610023B7E7641300002DE9F05F48
:104C8000894604464FF0000ADFF874B1FB44C0F8CF
:104C900020A02046E1688847002874D0252806D047
:104CA000D4E901219047206A401C2062F1E70026E8
:104CB0005F462046E16888472028054607DB312DFE
:104CC00005D2781910F8200C08B10643F1E7B007B7
:104CD00001D526F00406C4F81CA00027C4F818A0CB
:104CE0002A2D09D0284601F07FF838B304EB870855
:104CF000303DC8F8185019E059F8041B204604EB61
:104D000087029161E1688847012F054618D1E06963
:104D1000002820DA26F020061DE0D8F8180000EB65
:104D2000800005EB40003038C8F818002046E168E4
:104D30008847054601F058F80028EED1012F0AD027
:104D40002E2D08D12046E16888477F1C0546022F9A
:104D500046F02006C4DBA069002803DA404246F092
:104D60000106A061F00701D026F010066C2D0BD0D3
:104D7000682D09D04C2D39D06A2D35D0742D35D001
:104D80007A2D33D016E038E0E1682F462046884778
:104D9000B842054609D16C2F26D04FF48060E168F7
:104DA000064320468847054604E06C2F1AD04FF48E
:104DB000807006430DB3A5F14100192802D82035B3
:104DC00046F400664A462946204626604E46FBF7D2
:104DD000E9F980B101280BD0F61D26F0070000F19B
:104DE000080956E74020E4E78020D8E70020D6E70E
:104DF00006F104094DE7284652E7206ABDE8F09F16
:104E0000F412000030B5B0F10A024FEA900E71F1D1
:104E100000034EEA817EB0EB0E0061EB91014FEA98
:104E2000101E4EEA017E10EB0E0041EB11114FEA0D
:104E3000102E4EEA016E10EB0E0041EB11214FEAED
:104E4000104E4EEA014E10EB0E0041EB114140189E
:104E500041F100014FEAD00040EA41704FEAD10130
:104E600010EB80054FEA810444EA907444EB01049E
:104E70006D1944EB0404521BA3414FF0000348BFDB
:104E80000A3200D530BD401C41F1000130BD2DE992
:104E9000F0470D4699469246044600F12408016801
:104EA000880604D5E06921F01001216000E00120AE
:104EB000A84201DD471B00E00027A1697A1902EB37
:104EC0000900081AA0612078C00602D42046FFF726
:104ED000EAFC002608E0D4E901211AF80600904710
:104EE000206A401C761C20624E45F4DB2078C00608
:104EF0000AD52046FFF7D7FC06E0D4E9012130208F
:104F00009047206A401C2062381EA7F10107F4DC9C
:104F100007E0D4E9012118F805009047206A401CF9
:104F20002062281EA5F10105F3DC2046FFF7D1FC25
:104F30002078000602D50220BDE8F0870120FBE7BB
:104F400070472DE9FF4F0C461E464FF0FF378BB0E0
:104F5000D2E90001DDF860800A908A46C1F30A5563
:104F600005B93D46002108464FF00000BAF1000F98
:104F700000F4400005DA00EB80004FF4400101EA44
:104F800050004FEA9059B9F1010F00DDB9460A9877
:104F900050EA4A000ED044F61050A5F2FF354543C2
:104FA0002F14B8F1000F1ED07542291E1EDDC9F165
:104FB00000021CE0B8F1010F4FF0000001D03021D9
:104FC00003E0F24305E02154401CB042FBDB3046D5
:104FD0000022002121540B99C1F80880C1E900206A
:104FE0000FB0BDE8F08FBD1B6D1CDEE74A4600DA4E
:104FF000694206A800F06CFA06AB93E8070003AB21
:1050000083E8070050460A9900F01FFB8DE807006F
:10501000A0F500501F3800900398002D09DD42F2E2
:105020001F014A46084403A90390684600F07EFD2C
:1050300008E0A0F500504A461F3803A903906846CF
:1050400000F088FD8DE807000004000C03D04FF04D
:10505000FF30410800E01046B8F1000F03D00022F5
:10506000009215461EE0751E05D4FFF7CBFE3032C8
:1050700062556D1EF9D5B3460122084302D00022C5
:105080007F1C04E02078302801D100227F1E002AF6
:10509000099786D01DE0112D07DAFFF7B3FE3032F5
:1050A00062556D1C50EA0102F5D1084302D0009808
:1050B000C8B10EE00021681E05E0235C625C635409
:1050C0002254401E491C8142F7DBAB46A81B401E00
:1050D0000990002004F80B000B98099AC0F808808A
:1050E000C0E9002B7CE711264FF0000859E72DE9B5
:1050F000F04F88460446D21D22F0070191B0D1E955
:105100000001CDE90A0100F05BFE02460B98C00FDA
:1051100001D02D2007E02068810701D52B2002E077
:10512000202101EAC000032A099001D0072A05DBEB
:1051300003464146204600F08BF909E120788006BD
:1051400001D5E06900E00620B8F1650F814606D080
:10515000B8F1660F18D0B8F1670F70D131E00020B8
:10516000B9F1110F009001DB112301E009F10103F6
:105170000AAA01A90CA8FFF7E4FEDDE90C700026DD
:1051800009F10105834647E001204B4600904FF0AE
:1051900000470AAA01A90CA8FFF7D3FEDDE90DB06C
:1051A0000C995D46002610B909F101000D18B9EB04
:1051B000050003D4C0F1FF3609F10105A5EB090094
:1051C0002BE0B9F1010F01DA4FF001090020B9F12C
:1051D000110F0090484601DD112300E003460AAAA2
:1051E00001A90CA8FFF7ADFEDDE90C704D460026C5
:1051F0008346207800070AD4AB4500DA5D4601A853
:10520000012D04DD411911F8011C302907D04F454B
:1052100002DA17F1040F04DA012082460FE06D1E56
:10522000EEE7002F02DCED1B3E4403E0781CA842B1
:1052300000DD7D1CB81B00F1010A4FF0004720780B
:10524000000703D4AA4501DB4FF0FF3A0021B7F174
:10525000004F0DF143088DF8431022D002202B237C
:10526000002F01DA7F422D234FF00A0C011EA0F11E
:10527000010000DC47B197FBFCF10CFB11720F46FB
:10528000303208F8012DF1E7A8F101000370218800
:10529000090501D5452100E06521A0F1010800F8CC
:1052A000011C09980FA9A1EB0807FF1D00B10120FF
:1052B000411901EBEA70A1693844081A401EA06147
:1052C0002078C00602D42046FFF7EDFA099828B1ED
:1052D000D4E901219047206A401C20622078C00652
:1052E00022D52046FFF7DFFA1EE0002E04DBB3458F
:1052F00002DD01A8805D00E03020D4E90121904763
:10530000206A401C2062761CAAF101005FEA000AB4
:105310000AD100F099F8C0680168405CD4E9012125
:105320009047206A401C2062281EA5F10105DCDCA4
:1053300007E0D4E9012118F8010B9047206A401CCE
:105340002062381EA7F10107F3DC2046FFF7C1FAFF
:10535000022011B045E610B5436913B1AFF30080E8
:1053600001E0FFF7D9FA012010BD127800F1240105
:105370000A7000224A700122EDE711684FF0FF32F7
:10538000E9E710B5436913B1AFF3008001E0FFF71F
:1053900059FB012010BD128800F1240182840022F3
:1053A000C2840122EDE711684FF0FF32E9E770B5E2
:1053B00016460C46054600F03FF8036893F80101D5
:1053C000012806D0FF2C0FD8185D68B101202C7081
:1053D00070BDD3F807013246214603442846BDE894
:1053E000704003F2071318474FF0FF3070BD754649
:1053F00000F0E0F8AE4605006946534620F007008D
:10540000854618B020B5FBF747F8BDE820404FF0BF
:1054100000064FF000074FF000084FF0000B21F09E
:105420000701AC46ACE8C009ACE8C009ACE8C0096B
:10543000ACE8C0098D46704710B500F005F8001DB6
:1054400010BD00BFE1090000004870473C15002076
:105450002DE9F0411F46044603260168072A01F49E
:10546000006004DB08B116A505E016A503E008B14D
:1054700015A500E015A521F010002060A069C01E50
:10548000A0610FB1401EA0612046FFF70CFA4FB19A
:10549000D4E9012138469047206A401C2062C01C94
:1054A000206206E0206AFAE7D4E9012115F8010B31
:1054B0009047761EF8D22046FFF70BFABDE8F08140
:1054C0004E414E006E616E00494E4600696E6600A8
:1054D0002DE9F047814616468AB0324878440DC817
:1054E0008DE80D002F487844801C03AC0DC884E87B
:1054F0000D0041F69B303722014491FBF2F0A0F100
:10550000800502FB10141B3C02D56442012000E020
:105510000020DFF890A080460027FA44AAF1BA0ADA
:105520000DE0E00709D03246684607EB47010AEB79
:10553000810100F00FFB8DE8070064107F1C002C38
:10554000EFD1184F7F44A83F18E0E80714D007EBCD
:1055500004100DF1180A90E80E008AE80E00C068E9
:10556000F04201D198190890324606A903A800F02C
:10557000F1FA03AB83E807006D10641C002DE4D141
:1055800032466946B8F1000F03A802D000F0CEFA07
:1055900001E000F0DFFAC9E90001C9F808200AB00B
:1055A000BDE8F087340B00000446AFF300802046CE
:1055B000FAF75BFE004870471C1500204FF0013CD5
:1055C00050F8042B51F8043B9A4221D1A2EB0C0372
:1055D000934313EACC1317D150F8042B51F8043B32
:1055E0009A4215D1A2EB0C03934313EACC130BD1CF
:1055F00050F8042B51F8043B9A4209D1A2EB0C035A
:10560000934313EACC13DBD04FF00000704700BF88
:10561000D01A01BAB1FA81F101F0180122FA01F0B1
:10562000CB40C1F12001DBB2C0B2C01A2CFA01F3A9
:10563000D11A914311EAC311E6D1704701491820EC
:10564000ABBEFEE72600020070475FEA400C08BFD1
:1056500091F0000F4FEA8C234FEAC12243EA5151E7
:105660004FEA1C5018BF00F5F0404FEA300018BF59
:1056700041F000415FEA6C5C00F02980BCF1FF3F23
:1056800008BF40F080407047130C06BF12044FF073
:10569000100C4FF0000C130E04BF12020CF1080C9A
:1056A000130F04BF12010CF1040C930F04BF9200FE
:1056B0000CF1020CD30F04BF52000CF1010C114687
:1056C0004FF00002A0F11F00A0EB0C00704711F09A
:1056D000004F08BF704731F000413FF4D5AF0B0CCD
:1056E00006BF09044FF0100C4FF0000C0B0E04BF66
:1056F00009020CF1080C0B0F04BF09010CF1040C9A
:105700008B0F04BF89000CF1020CCB0F04BF4900C2
:105710000CF1010CCCF12003A0EB0C0022FA03F3F6
:1057200002FA0CF241EA030100F10100704720F097
:105730007F4C80EA030023F07F47ACEB070303F5BF
:105740007C5300F0004003F1FF032DE980494FEA4C
:10575000154B09B44FEA144325EA0B4E24EA0348DB
:105760000FF2042606EB132749083E785FEA32025F
:1057700003FB0667C7F5000707FB06F64FEA543739
:105780004FEAD64606F1020607FB066CCCF1005C38
:105790004FEA1C472CEA074C07FB06F40CFB06F506
:1057A00004EB15464FEA961634BF00204FF0004038
:1057B0004FEAD13706FB07FC4FEA1C4C0CFB0BF7FA
:1057C000D21B03FB0CF761EB07010CFB0EF7B0EBF0
:1057D000074072EB17420CFB08F734BFA2EB0742FD
:1057E000B2EB074261EB17414FEA0C444FEA9107D5
:1057F00006FB07FC4FEA1C4C0CFB0BF7B0EBC74059
:1058000072EB573203FB0CF734BFA2EBC742B2EB8B
:10581000C74261EB57310CFB0EF7B0EBC70072EBE0
:1058200057720CFB08F734BFA2EBC702B2EBC702FA
:1058300061EB5771039F4FEA816141EA921104EBDA
:10584000CC044FEAD1374FEA826206FB07FC42EAFA
:1058500090124FEA80604FEA1C4C0CFB0BF7D21BF6
:1058600003FB0CF761EB07010CFB0EF7B0EB0740F5
:1058700072EB17420CFB08F734BFA2EB0742B2EB06
:10588000074261EB17414FEA8C554FEA910704EB51
:105890009C2406FB07FC4FEA1C4C0CFB0BF7B0EBFF
:1058A000C74072EB573203FB0CF734BFA2EBC74281
:1058B000B2EBC74261EB57310CFB0EF7B0EBC70000
:1058C00072EB57720CFB08F734BFA2EBC702B2EBC6
:1058D000C70261EB577115EB4C254FEA816141EA34
:1058E00092114FEA82624FEAD13742EA901206FBE8
:1058F00007FC44F100044FEA80604FEA1C4C0CFBAB
:105900000BF7D21B03FB0CF761EB07010CFB0EF747
:10591000B0EB074072EB17420CFB08F734BFA2EB69
:105920000742B2EB074261EB174115EB1C154FEA3A
:10593000813141EA92414FEA823242EA90424FEA93
:1059400080304FEA0C7644F1000448EA03434EEA03
:105950000B484FF0000EB2EB080C71EB030724BFAD
:10596000624639464EEB0E0E4FF0000B00185241C6
:1059700049414BEB0B0BB2EB080C71EB03077BF1CE
:10598000000B24BF624639464EEB0E0E4FF0000B63
:105990000018524149414BEB0B0BB2EB080C71EB79
:1059A00003077BF1000B24BF624639464EEB0E0E17
:1059B00051EA020718BF46F0010616EB0E7655F1C4
:1059C000000254F1000103D5BDE88901BDE800885B
:1059D000BDE88901B619BDE80048524141EB01011B
:1059E000A3F10103704780807F7E7D7C7B7A79788C
:1059F000777676757473727171706F6E6E6D6C6C94
:105A00006B6A6A6968686766666564646363626135
:105A10006160605F5F5E5E5D5D5C5C5B5B5A5A59B6
:105A20005958585757565655555554545353525222
:105A30005251515050504F4F4F4E4E4D4D4D4C4C7A
:105A40004C4B4B4B4A4A4A494949484848474747C3
:105A50004746464645454544444444434343434200
:105A6000424242414141002B26D4770021D01CB54F
:105A70004FEA370703B44FF010004FF010014FF01A
:105A800000000FBC0BF1010BBDE81040BBF1010F92
:105A900008BF5FEA170722BF12F1010211F10101ED
:105AA0004FF0004143F1000300F0004043EA0000E2
:105AB0007047F9D35708DAE746EA064613F1400F74
:105AC0004FEA16461FDD13F1200FDFBF16430A46CB
:105AD000002120335B42C8D0C3F1200746EA0646C6
