:020000040800F2
:100000006036002085040008810200088302000891
:10001000870200088B0200088F0200080000000021
:100020000000000000000000000000009302000833
:1000300095020008000000004743000897020008EE
:100040009F0400089F0400089F0400089B0200080A
:100050009F0400089F040008990200089F040008FC
:10006000392700089F0400089F0400089F04000827
:100070009F0400089F0400089F0400089F040008D4
:100080009F0400089F0400089F0400089F040008C4
:100090009F0400089F0400089F0400089F040008B4
:1000A0009F0400089F0400089F0400089F040008A4
:1000B0009F0400089F0400089F0400089F04000894
:1000C0009F0400089F0400089F0400089F04000884
:1000D0009F0400085F2400089D2400089F04000876
:1000E000B72600089F0400089F0400089F0400082A
:1000F0009F0400089F0400089F0400089F04000854
:100100009F0400089F0400089F0400089F04000843
:100110009F0400089F040008712E0008952E000817
:100120009F0400089F0400089F0400089F04000823
:1001300000F002F800F094F80AA090E8000C824465
:100140008344AAF10107DA4501D100F089F8AFF242
:10015000090EBAE80F0013F0010F18BFFB1A43F0A5
:1001600001031847108C0000308C0000103A24BFA7
:1001700078C878C1FAD8520724BF30C830C144BF0C
:1001800004680C607047000000230024002500264E
:10019000103A28BF78C1FBD8520728BF30C148BFEA
:1001A0000B6070476E2907F05D80702907F09D8114
:1001B000662908F0B984652908F0B684672908F033
:1001C000B3846129AFF3008003681B0A28BF41F0A4
:1001D0008001692907F00C80642907F009807529DE
:1001E00007F006806F2907F02B81782907F06981D5
:1001F000E92907F0C780E42907F0C480F52907F052
:10020000C180EF2907F02881F82907F06881036889
:10021000DB0928BF41F08001632907F006857329B7
:1002200007F00B85E32907F01685F32907F01B85F6
:10023000002070471FB59DE8030006F041FF07F05E
:100240006BFD04000020002108F09EFA401C606055
:100250000020002108F082FAE0601FBD10B510BD3B
:1002600007F02DFD1146FFF7E5FF03F04DFD07F008
:1002700003FE03B4FFF7F2FF03BC07F031FE0000FA
:10028000704700BFFEE700BFFEE700BFFEE700BF0C
:10029000FEE7704770477047704770470CB5002005
:1002A000019000906C48006840F480306A49086012
:1002B00000BF6948006800F4003000900198401CBD
:1002C0000190009818B90198B0F5A06FF1D162487B
:1002D000006800F4003010B10120009001E000201F
:1002E00000900098012843D15C48006840F010005D
:1002F0005A4908600846006820F003000860084674
:10030000006840F002000860534840685249486065
:100310000846406848600846406840F4806048608D
:100320000846406820F47C1048600846406840F465
:10033000881048600846006840F08070086000BF80
:100340004548006800F000700028F9D04248406835
:1003500020F00300404948600846406840F0020031
:10036000486000BF3C48406800F00C000828F9D104
:100370000CBD10B5FFF792FF10BD10B536480068F0
:1003800040F001003449086008464068344908409C
:100390003149486008460068324908402E490860E3
:1003A0000846006820F4802008600846406820F471
:1003B000FE0048604FF41F008860FFF7DAFF4FF03F
:1003C00000602949086010BD10B5002100200022FE
:1003D000214B5B6803F00C0121B1042906D00829E8
:1003E00028D107E0214B224C236027E0214B204CF1
:1003F000236023E0184B5B6803F47010164B5B68B6
:1004000003F48032022303EB904022B91A4B43439A
:10041000174C23600DE0104B5B6803F4003323B1ED
:10042000164B4343124C236003E0124B4343104CE2
:10043000236003E00D4B0E4C236000BF00BF064B52
:100440005B68C3F303130E4CE15C094B1B68CB40A4
:10045000074C236010BD0000001002400020024045
:100460000000FFF8FFFFF6FE08ED00E000127A0042
:1004700000000020001BB70000093D00808D5B00DC
:10048000040000200948804709480047FEE7FEE7CE
:10049000FEE7FEE7FEE7FEE7FEE7FEE7FEE7FEE734
:1004A00004480549054A064B704700007B030008D5
:1004B00031010008602E00206036002060320020EC
:1004C0006032002031490143314A1160704770B5F4
:1004D000002100230F22C47804B32D4C246804F4B7
:1004E000E064C4F5E064210AC1F10403CA40447821
:1004F00004FA03F18478144021430901254C06785D
:10050000A155047804F01F050124AC4005786D1155
:10051000AD0005F1E025C5F8004109E0047804F0DC
:100520001F050124AC401C4D0678761145F8264085
:1005300070BD1A4A0A400243154B1B1F1A607047D0
:1005400039B1134A121D12680243114B1B1D1A6068
:1005500006E00F4A121D126882430D4B1B1D1A60E4
:100560007047042808D14FF0E021096941F00401E7
:100570004FF0E022116107E04FF0E021096921F01E
:1005800004014FF0E0221161704700000000FA05FD
:100590000CED00E000E400E080E100E080FFFF1FE0
:1005A00010B50446CC48844208D10121042000F053
:1005B0002DFB0021042000F029FB46E0C7488442BF
:1005C00008D10121082000F021FB0021082000F0C3
:1005D0001DFB3AE0C248844208D10121102000F0FE
:1005E00015FB0021102000F011FB2EE0BD488442D5
:1005F00008D10121202000F009FB0021202000F07B
:1006000005FB22E0B848844208D10121402000F0D7
:10061000FDFA0021402000F0F9FA16E0B3488442C8
:1006200008D10121802000F0F1FA0021802000F0A3
:10063000EDFA0AE0AE48844207D10121801500F0AE
:10064000E5FA0021A01500F0E1FA10BD10B5012176
:10065000084600F0DBFA0021012000F0D7FA10BDB7
:100660002DE9F04102460025002600200023002449
:10067000002791F803C00CF00F0591F803C00CF0AF
:10068000100CBCF1000F03D091F802C04CEA050534
:1006900091F800C0BCF1000F31D0146800202BE0AD
:1006A0004FF0010C0CFA00F3B1F800C00CEA03069D
:1006B0009E4220D183004FF00F0C0CFA03F7BC438D
:1006C00005FA03FC4CEA040491F803C0BCF1280FBE
:1006D00006D14FF0010C0CFA00FCC2F814C00AE07D
:1006E00091F803C0BCF1480F05D14FF0010C0CFA92
:1006F00000FCC2F810C0401C0828D1D31460B1F827
:1007000000C0BCF1FF0F34DD546800202EE000F182
:10071000080C4FF0010808FA0CF3B1F800C00CEA1D
:1007200003069E4221D183004FF00F0C0CFA03F711
:10073000BC4305FA03FC4CEA040491F803C0BCF185
:10074000280F05D100F1080C08FA0CF8C2F8148043
:1007500091F803C0BCF1480F07D100F1080C4FF02D
:10076000010808FA0CF8C2F81080401C0828CED303
:100770005460BDE8F0814FF6FF7101800221817065
:100780000421C17070470246002093680B400BB1F2
:10079000012000E0002070470146886880B2704761
:1007A00002460020D3680B400BB1012000E000207E
:1007B00070470146C86880B2704701617047416167
:1007C00070470AB1016100E041617047C160704744
:1007D0004FF480320A438261816182618269826959
:1007E000704702460020434B18684FF6807318404C
:1007F00040EA021008433F4B186070473E49C86109
:100800007047F0B50A46002300240021002500F0BF
:100810000046B6F1004F02D1364EF16901E0354E87
:100820007168C0F3034583B200F44016B6F5401F6B
:1008300008D121F070612F4E766826F070662D4F3A
:100840007E6012E000F48016B6F5801F06D1032604
:1008500006FA05F4A14341F0706106E0460D360149
:1008600003FA06F6B14341F0706122B1460D36013C
:1008700003FA06F6314300F00046B6F1004F02D10C
:100880001C4EF16101E01B4E7160F0BD30B50022DD
:100890008B071C0F0F2303FA04F2164B08338C103E
:1008A00053F824309343134C08348D1044F825300A
:1008B00023468C1053F824308C07240F00FA04F4DC
:1008C00023430C4C08348D1044F8253030BD0A49C0
:1008D000DC3108607047000000080140000C014056
:1008E000001001400014014000180140001C0140AC
:1008F000002001400000014000002042DF48006865
:1009000040F00100DD49086008464068DC490840C5
:10091000DA49486008460068DA490840D749086063
:100920000846006820F4802008600846406820F4EB
:10093000FE0048604FF41F0088607047CF49096887
:1009400021F48031CD4A11601146096821F48021DB
:100950001160B0F5803F03D0B0F5802F0ED106E0D6
:10096000C649096841F48031C44A116007E0C349AF
:10097000096841F4A021C14A116000E000BF00BF36
:10098000704710B501460022002300204A11012AB9
:1009900002D1BA4C236806E0022A02D1B74C236A7E
:1009A00001E0B64C636A01F01F02012494401C4030
:1009B0000CB1012000E0002010BD38B500200090EF
:1009C0000024002500BF3120FFF7DBFF054600981B
:1009D000401C00900098B0F5A06F01D0002DF2D01F
:1009E0003120FFF7CEFF08B1012400E000242046AB
:1009F00038BD01460020A14A106820F0F80040EA06
:100A0000C10010607047A04908607047024600208E
:100A10009A4B586820F47C1042EA01031843974B24
:100A20005860704798490866704701460020934A0D
:100A3000506820F003000843506070478F484068BA
:100A400000F00C007047014600208C4A506820F0EE
:100A5000F00008435060704701460020874A506804
:100A600020F4E06008435060704701460020834A4C
:100A7000506820F4605040EAC1005060704729B1CE
:100A80007E4A527A02437D4B5A7204E07B4A527A84
:100A900082437A4B5A7270477B49D831086070475D
:100AA00001460020754A506820F4404008435060D9
:100AB00070470021714A20321170704A82F820106C
:100AC000012802D004280AD104E001216B4A203217
:100AD000117005E00521694A2032117000E000BF65
:100AE00000BF70476949086070476449096A01435B
:100AF000624A11627047654944390860704730B5F1
:100B000000210022002400235C4D6D6805F00C01DB
:100B100021B1042905D0082923D105E05C4D0560E9
:100B200022E05C4D05601FE0544D6D6805F47012C5
:100B3000524D6D6805F48034022505EB92421CB9D4
:100B4000554D554305600BE04C4D6D6805F400357F
:100B50001DB1524D5543056002E04E4D55430560B1
:100B600002E04B4D056000BF00BF444D6D6805F0CD
:100B7000F00109094A4D6B5C0568DD4045603F4D59
:100B80006D6805F4E061090A454D6B5C4568DD4020
:100B900085603A4D6D6805F46051C90A404D6B5C43
:100BA0004568DD40C560354D6D6805F44041890BF1
:100BB0003C4D6B5CC568B5FBF3F5056130BD29B1F3
:100BC0002E4A526902432D4B5A6104E02B4A526966
:100BD00082432A4B5A61704729B1284A92690243DD
:100BE000264B9A6104E0254A92698243234B9A611D
:100BF000704729B1214AD2690243204BDA6104E0EF
:100C00001E4AD26982431D4BDA61704729B11B4AE3
:100C1000D2680243194BDA6004E0184AD268824372
:100C2000164BDA60704729B1144A12690243134B1C
:100C30001A6104E0114A12698243104B1A6170472D
:100C400012494039086070470F49C86470470B4922
:100C5000C87170470948406A40F08070074948628F
:100C6000704701460020054A92680A400AB10120F7
:100C700000E0002070470149887270470010024070
:100C80000000FFF8FFFFF6FE0000424280044242EF
:100C900000127A00001BB70000093D00808D5B0048
:100CA000140000202400002010B50446FB488442B4
:100CB00009D101218803FFF7A9FF00214FF48040EB
:100CC000FFF7A4FF32E0F648844209D1012148042D
:100CD000FFF7A9FF00214FF40030FFF7A4FF25E044
:100CE000F048844209D101218804FFF79CFF0021CC
:100CF0004FF48020FFF797FF18E0EB48844209D1BA
:100D00000121C804FFF78FFF00214FF40020FFF7F7
:100D10008AFF0BE0E548844208D101210805FFF76E
:100D200082FF00214FF48010FFF77DFF10BD2DE9F9
:100D3000F04786B005460E460024A24600BFA146F5
:100D40000027B08900B100BF2F462C8A4CF6FF70F7
:100D50000440F08804432C82AC894EF6F310044022
:100D6000B08831890843718908430443AC81AC8A57
:100D70004FF6FF400440B0890443AC8201A8FFF75E
:100D8000BEFEC648874202D1DDF810A001E0DDF8C2
:100D90000CA0A88900F4004040B10AEBCA0000EBA7
:100DA0000A1031684900B0FBF1F807E00AEBCA000D
:100DB00000EB0A1031688900B0FBF1F86420B8FB41
:100DC000F0F004012009642101FB1089A88900F4D6
:100DD000004040B1322000EBC900B0FBF1F000F060
:100DE0000700044308E0322000EB09106421B0FB47
:100DF000F1F000F00F0004432C8106B0BDE8F0874D
:100E00004FF41651016000218180C18001810C21C5
:100E1000418100218181704710B502460020108A6F
:100E20004FF2FF0318400B884C8823438C882343E0
:100E3000CC8823431843108210BD002101804180DB
:100E40008180C180704721B1828942F40052828141
:100E500004E082894DF6FF731A4082817047F0B535
:100E60000346002400260025002040F66A17B942F8
:100E700000D100BF1846C1F3421401F01F0601273C
:100E800007FA06F5012C01D10C3004E0022C01D147
:100E9000103000E014301AB107682F43076002E0F9
:100EA0000768AF430760F0BD1AB1838A0B438382A2
:100EB00002E0838A8B4383827047028A4FF6F07385
:100EC0001A400282028A0A430282704782894FF2E4
:100ED000FF731A40828182890A438281704721B15F
:100EE000828942F00202828104E082894FF6FD731A
:100EF0001A4082817047028A4FF6DF731A400282DD
:100F0000028A0A430282704721B1028A42F4804277
:100F1000028204E0028A4BF6FF731A400282704795
:100F2000C1F308028280704701468888C0F3080038
:100F30007047818941F0010181817047028BD2B2F3
:100F40000283028B42EA012202837047028B02F481
:100F50007F420283028B0A430283704721B1828A57
:100F600042F02002828204E0828A4FF6DF731A4048
:100F70008282704721B1828A42F01002828204E0AC
:100F8000828A4FF6EF731A408282704721B1828ABB
:100F900042F00802828204E0828A4FF6F7731A4018
:100FA0008282704721B1828942F40042828103E04B
:100FB0008289C2F30E028281704721B1828A42F493
:100FC0000062828204E0828A4FF2FF731A408282BA
:100FD0007047828A4FF6FB731A408282828A0A43E4
:100FE0008282704721B1828A42F00202828204E04A
:100FF000828A4FF6FD731A408282704702460020B3
:10100000B1F5007F00D100BF13880B400BB1012068
:1010100000E00020704701F40072B2F5007F00D1BB
:1010200000BFCA430280704770B502460024002307
:101030000025002040F66A16B14200D100BFC1F37E
:10104000421501F01F03012606FA03F3012D02D118
:101050009689334006E0022D02D1168A334001E022
:10106000968A33400C12012606FA04F4168834409E
:1010700013B10CB1012000E0002070BD10B50022BA
:10108000002340F66A14A14200D100BF0A120124D5
:101090009440A3B2DC43048010BD0000003801403E
:1010A0000044004000480040004C00400050004018
:1010B000002044490860091D0860091D0860091DD9
:1010C000086041483F4914310860704700213D499C
:1010D0008279002A3AD00A46126803689A430B467E
:1010E0001A600A1D126803689A430B1D1A60027980
:1010F00011440A6803681A430A60324A08321268C7
:1011000003689A432F4B08331A601A1D126803684C
:101110009A432C4B0C331A604279102A0ED11A1FB5
:10112000126803681A43274B08331A601A1D1268A5
:1011300003681A43234B0C331A600DE021494279AE
:1011400011440A6803681A430A6005E002791144F1
:101150000A6803689A430A607047002101600171C0
:101160000C214171002181717047164910310968C5
:101170000143144A10321160704701460020114AA1
:10118000143212680A400AB1012000E000207047C2
:101190000C49143108607047014600200022094BB9
:1011A0001B6803EA0102074B14331B680B4013B1A1
:1011B0000AB1012000E000207047024914310860A4
:1011C0007047000000040140FFFF0F0010B5044607
:1011D000FE48844208D10121C014FFF717FD002109
:1011E000E014FFF713FDC4E0B4F1804F08D10121F2
:1011F0000846FFF718FD00210120FFF714FDB8E0B5
:10120000F348844208D101210220FFF70CFD0021A0
:101210000220FFF708FDACE0EE48844208D101212E
:101220000420FFF700FD00210420FFF7FCFCA0E0F4
:10123000E948844208D101210820FFF7F4FC00218D
:101240000820FFF7F0FC94E0E448844208D1012133
:101250001020FFF7E8FC00211020FFF7E4FC88E0F5
:10126000DF48844208D101212020FFF7DCFC002167
:101270002020FFF7D8FC7CE0DA48844208D1012125
:101280004014FFF7C3FC00216014FFF7BFFC70E0BF
:10129000D548844209D10121C804FFF7B7FC0021D9
:1012A0004FF40020FFF7B2FC63E0D048844209D13C
:1012B00001210805FFF7AAFC00214FF48010FFF779
:1012C000A5FC56E0CA48844209D101214805FFF730
:1012D0009DFC00214FF40010FFF798FC49E0C54841
:1012E000844208D101214020FFF79DFC00214020CD
:1012F000FFF799FC3DE0C048844208D101218020DD
:10130000FFF791FC00218020FFF78DFC31E0BB4806
:10131000844208D101218015FFF785FC0021A0152A
:10132000FFF781FC25E0B648844209D10121080479
:10133000FFF76CFC00214FF48030FFF767FC18E0EA
:10134000B048844209D101214804FFF75FFC002125
:101350004FF40030FFF75AFC0BE0AB48844208D151
:1013600001218804FFF752FC00214FF48020FFF791
:101370004DFC10BD00220288944B98420ED0994B30
:1013800098420BD0B0F1804F08D0914B984205D0D5
:10139000904B984202D0904B984204D14FF68F73F5
:1013A0001A404B881A438D4B984207D08C4B984279
:1013B00004D04FF6FF431A40CB881A4302808B8833
:1013C00083850B880385814B98420BD0854B9842CF
:1013D00008D08B4B984205D08A4B984202D08A4B5A
:1013E000984201D10B7A038601238382704770B53E
:1013F000002400220023058C4FF6FE76354005843C
:10140000028C8388048B4FF68F752C40B51E2C40C0
:101410000D882C43751E2A400D892A434D882A4386
:101420006A4DA8420BD06F4DA84208D0744DA84217
:1014300005D0744DA84202D0734DA84213D14FF687
:10144000F7752A404D892A434FF6FB752A408D884F
:101450002A434FF6FF652B404FF6FF552B408D89F1
:101460002B43CD892B4383800483CD8885860284DA
:1014700070BD70B5002400220023058C4FF6EF7676
:1014800035400584028C8388048B48F6FF752C4018
:101490004FF6FF452C400D884FF6FF7606EA0525EE
:1014A0002C434FF6DF752A400D8906EA05152A43BD
:1014B0004D8806EA05152A43444DA84202D0494DFD
:1014C000A8421DD14FF67F752A404D894FF6FF7611
:1014D00006EA05152A434FF6BF752A408D8806EAAD
:1014E00005152A434FF6FF352B404FF2FF752B4071
:1014F0008D8906EA85052B43CD8906EA85052B43B0
:1015000083800483CD880587028470BD70B5002474
:1015100000220023058C4FF6FF6635400584028CBF
:101520008388848B4FF68F752C404FF6FC752C40CA
:101530000D882C434FF6FF552A400D894FF6FF7654
:1015400006EA05252A434D8806EA05252A431F4D4C
:10155000A84202D0234DA8421DD14FF2FF752A4068
:101560004D894FF6FF7606EA05252A434FF6FF35EB
:101570002A408D8806EA05252A434EF6FF752B4042
:101580004DF6FF752B408D8906EA05152B43CD8955
:1015900006EA05152B4383808483CD8885870284E2
:1015A00070BD70B5002200230024058C4EF6FF7636
:1015B00035400584038C8488828B48F6FF752A4069
:1015C0004FF6FF452A400D8820E00000002C014026
:1015D0000004004000080040000C004000100040E3
:1015E0000014004000340140004C01400050014014
:1015F0000054014000180040001C00400020004042
:101600000040014000440140004801404FF6FF7691
:1016100006EA05252A434DF6FF752B400D8906EA9B
:1016200005352B434D8806EA05352B43FA4DA84274
:1016300002D0FA4DA84208D14BF6FF752C408D8997
:101640004FF6FF7606EA85152C4384808283CD8889
:10165000A0F84050038470BD828B4FF2FF331A40D4
:101660008283828B4FF6FF7303EA01231A4382833E
:101670007047F0B50C461546002200210026078C65
:101680004EF6FF7C07EA0C070784828B018C4FF62D
:10169000FF7707EA043640F6FF473A404FF6FF77F8
:1016A00007EA05273A434FF6FF7707EA03373A433D
:1016B000D94FB8420ED0D94FB8420BD0B0F1804FBD
:1016C00008D0D74FB84205D0D64FB84202D0D64F37
:1016D000B84206D14DF6FF77394046F4805739437A
:1016E00005E047F6FF57394044F480573943828379
:1016F0000184F0BD828B4FF6F3731A408283828B94
:101700000A4382837047F0B50C461546002200213B
:101710000026078C4FF6FF6C07EA0C070784828BC4
:10172000018C4FF6FF7707EA04264FF60C773A4014
:101730004FF6FF7707EA03172F433A43B64FB842F5
:101740000ED0B64FB8420BD0B0F1804F08D0B44F96
:10175000B84205D0B34FB84202D0B34FB84206D119
:101760004FF6FF57394046F48077394305E04FF292
:10177000FF57394044F48077394382830184F0BDB8
:10178000028B4FF2FF331A400283028B4FF6FF7336
:1017900003EA01231A4302837047F0B50C4615464D
:1017A000002200210026078C4FF6EF7C07EA0C0789
:1017B0000784028B018C4FF6FF7707EA041640F688
:1017C000FF473A404FF6FF7707EA03373A434FF6B1
:1017D000FF7707EA05273A438F4FB8420ED08F4F65
:1017E000B8420BD0B0F1804F08D08D4FB84205D031
:1017F0008C4FB84202D08C4FB84206D14FF6DF77FB
:10180000394046F01007394305E04FF65F7739401D
:1018100044F01007394302830184F0BD028B4FF678
:10182000F3731A400283028B0A4302837047F0B5B8
:101830000C46154600220021068C4FF6FE773E40EE
:101840000684028B018C4FF60C7632407E1C06EA31
:1018500003162E433243704EB0420ED06F4EB0424C
:101860000BD0B0F1804F08D06D4EB04205D06D4E18
:10187000B04202D06C4EB04206D14FF6FD763140F8
:1018800044F00106314305E04FF6F576314044F06F
:101890000106314302830184F0BD70B505460C4654
:1018A0005D4885420ED05D4885420BD0B5F1804F32
:1018B00008D05B48854205D05A48854202D05A4834
:1018C000854200D100E000BF208850B92389A2885A
:1018D00061882846FFF7ABFFE1882846FFF79EFFA7
:1018E00025E0208804280AD12389A2886188284617
:1018F000FFF753FFE1882846FFF742FF17E02088F3
:1019000008280AD12389A28861882846FFF7FBFEB0
:10191000E1882846FFF7EEFE09E02389A288618866
:101920002846FFF7A6FEE1882846FFF795FE70BD22
:101930002DE9F04105460C4600260127608808B9CC
:10194000022600E00026A088012801D1022700E03D
:1019500001272088A0B92389A28861882846FFF73B
:1019600066FFE1882846FFF759FF23893A4631464A
:101970002846FFF712FFE1882846FFF701FF13E032
:101980002389A28861882846FFF707FFE188284657
:10199000FFF7F6FE23893A4631462846FFF747FF10
:1019A000E1882846FFF73AFFBDE8F0810A884B88B6
:1019B0001A438B881A43CB881A430B891A434B89E5
:1019C0001A438B891A43A0F8442070474FF6FF71E1
:1019D000818000210180C180418001727047002117
:1019E000018041808180C180018141818181C181EB
:1019F0007047002101804180012181800021C18048
:101A0000018170470021018041808180C180018176
:101A10004181818170470000002C01400034014069
:101A20000004004000080040000C004021B1028882
:101A300042F00102028004E002884FF6FE731A4071
:101A40000280704731B1B0F8442042F40042A0F85F
:101A5000442005E0B0F84420C2F30E02A0F8442070
:101A600070471AB183890B43838102E083898B43DA
:101A7000838170478182704741EA0203A0F84830B1
:101A800070471AB183890B43838102E083898B43BA
:101A90008381704701894FF6F872114001817047C8
:101AA0000A46002101894FF68F73194011430181C5
:101AB000704730B504460D4629462046FFF7F0FF33
:101AC000208940F00700208130BD2DE9F041044617
:101AD0000D4616461F46602D06D13B460122314673
:101AE0002046FFF75AFE05E03B46012231462046DC
:101AF000FFF79DFE29462046FFF7D2FF208940F0E0
:101B000007002081BDE8F08130B50C460021018935
:101B1000C9B24FF6FF7505EA03251543254329434E
:101B2000018130BD2DE9F04105460E461746984625
:101B3000002443463A4631462846FFF7E5FF2C8904
:101B40004FF6F870044044F007044FF68F700440DD
:101B500044F070042C81BDE8F081F0B504460D46D8
:101B600016461F463B46324629462046FFF7CCFF25
:101B7000208940F480402081F0BD01858282704739
:101B80000A46002101884FF68F73194011430180E6
:101B90007047F0B50C4615461E4600210022002372
:101BA0000189028B038C4FF6F877394021434FF6B9
:101BB000FC473A4040F201173A434FF6DD773B408D
:101BC0004FF6FF7707EA06172F433B430181028355
:101BD0000384F0BD0A460021018B4FF68F73194034
:101BE0001143018370470A460021018B48F6FF73B9
:101BF00019404FF6FF7303EA02231943018370472C
:101C00000A460021818B4FF68F731940114381835F
:101C100070470A460021818B48F6FF7319404FF642
:101C2000FF7303EA022319438183704721B10288BD
:101C300042F08002028004E002884FF67F731A406F
:101C40000280704721B1828842F00402828004E061
:101C500082884FF6FB731A408280704721B18288D8
:101C600042F00802828004E082884FF6F7731A403F
:101C70008280704721B1828842F00102828004E0B4
:101C800082884FF6FE731A40828070470A46002110
:101C9000018B4FF6F77319401143018370470A46D1
:101CA0000021018B4FF2FF7319404FF6FF7303EAD7
:101CB00002231943018370470A460021818B4FF6A6
:101CC000F77319401143818370470A460021818BC5
:101CD0004FF2FF7319404FF6FF7303EA02231943D3
:101CE000818370470A460021018B4FF6FB73194030
:101CF0001143018370470A460021018B4FF6FF33E1
:101D000019404FF6FF7303EA02231943018370471A
:101D10000A460021818B4FF6FB73194011438183E2
:101D200070470A460021818B4FF6FF3319404FF66A
:101D3000FF7303EA02231943818370470A46002197
:101D4000018B4FF67F7319401143018370470A4698
:101D50000021018BC1F30E014FF6FF7303EA02234A
:101D60001943018370470A460021818B4FF67F7328
:101D700019401143818370470A460021818BC1F3CA
:101D80000E014FF6FF7303EA022319438183704764
:101D90000A460021018C4FF6FD731940114301845E
:101DA00070470A460021018C4FF6F7731940114322
:101DB000018470470A460021018C4FF6DF731940F9
:101DC0004FF6FF7303EA02131943018470470A4672
:101DD0000021018C4FF67F7319404FF6FF7303EA21
:101DE00002131943018470470A460021018C4FF603
:101DF000FF5319404FF6FF7303EA0223194301848E
:101E000070470A460021018C4FF2FF7319404FF6CC
:101E1000FF7303EA02231943018470470A46002135
:101E2000018C4DF6FF7319404FF6FF7303EA02333E
:101E300019430184704730B5002301248C40A3B2BC
:101E4000048C9C430484048C02FA01F5ADB22C434B
:101E5000048430BD30B5002304248C40A3B2048C2C
:101E60009C430484048C02FA01F5ADB22C43048433
:101E700030BD70B5034600200024184618300125F7
:101E80008D40ACB21D8CA5431D8409B1082909D130
:101E900000EB6100056825F07005056005681543D5
:101EA00005600EE00D1FC5F34E052844056825F4B6
:101EB000E045056005684FF6FF7606EA02263543E1
:101EC000056070BD21B1028842F00202028004E088
:101ED00002884FF6FD731A400280704721B10288D4
:101EE00042F00402028004E002884FF6FB731A40BD
:101EF0000280704721B1828842F08002828004E033
:101F000082884FF67F731A408280704702884FF6AE
:101F1000F7731A40028002880A4302807047828861
:101F20004FF68F731A40828082880A4382807047FE
:101F300002894FF6F8731A40028102890A4302812E
:101F4000704702894FF67F731A40028102890A4363
:101F50000281704781847047818570478186704710
:101F60000187704781877047A0F84010704702884A
:101F70004FF6FF431A40028002880A4302807047EE
:101F80000146888E70470146088F70470146888F4A
:101F900070470146B1F8400070470146888C704791
:101FA0000146088D704702460020138A0B400BB192
:101FB000012000E000207047CA430282704730B51C
:101FC0000246002000230024158A05EA01039589B2
:101FD00005EA010413B10CB1012000E0002030BD7E
:101FE000CA4302827047000010B50446012C01D09C
:101FF000012000E0002002464FF480615048FEF7C7
:10200000E0FB0CB1012000E000204E49C87010BD7B
:1020100010B50446012C01D0012000E0002002464A
:102020004FF480514848FEF7CCFB0CB1012000E092
:1020300000204449887010BD10B50446012C01D021
:10204000012000E0002002464FF480713C48FEF77A
:10205000B8FB0CB1012000E000203A49487010BDE7
:1020600010B50446012C01D0012000E000200246FA
:1020700080213348FEF7A5FB0CB1012000E00020D1
:102080003049087010BD08B501211420FEF7A4FDE9
:1020900010208DF803004FF4B060ADF8000003206D
:1020A0008DF8020069462648FEF7DAFA4FF48050B0
:1020B000ADF8000069462448FEF7D2FA0020FFF789
:1020C000CFFF0020FFF7B8FF0020FFF7A1FF00209F
:1020D000FFF78AFF08BD10B500242CE01BA11D48A6
:1020E00000F071F90120FFF7BBFF4FF4FA7000F028
:1020F00069F80020FFF7B4FF0120FFF79DFF4FF4C0
:10210000FA7000F05FF80020FFF796FF0120FFF75C
:102110007FFF4FF4FA7000F055F80020FFF778FFCA
:102120000120FFF761FF4FF4FA7000F04BF8002038
:10213000FFF75AFF641CB4F57A7FCFDB10BD0000B7
:102140000010014028000020000801406C65640D6B
:102150000A000000003801404FF0E020006920F044
:1021600004004FF0E0210861092036490870084654
:10217000007800EB4001C1EBC0104FF6FF7101EA9F
:10218000C000314908807047002120F07F402D4A6F
:10219000127842434FF0E0235A6100229A610122F3
:1021A0001A6100BF4FF0E022116901F001021AB17B
:1021B00001F48032002AF5D000224FF0E0231A61AA
:1021C0009A617047002100B9704720F07F401E4A95
:1021D000128842434FF0E0235A6100229A610122A3
:1021E0001A6100BF4FF0E022116901F001021AB13B
:1021F00001F48032002AF5D000224FF0E0231A616A
:102200009A6100BFE0E770B50446002600254FF450
:10221000FA7094FBF0F0C6B24FF4FA7094FBF0F150
:1022200000FB114085B205E04FF4FA70FFF7CAFFDA
:10223000701EC6B2002EF7D115B12846FFF7C2FFB7
:1022400070BD00002C0000202E00002010B586B0CC
:10225000044601210420FEF7BFFC01218803FEF79C
:10226000BBFC18208DF817004FF40070ADF8140077
:1022700003208DF8160005A9A348FEF7F1F9042004
:102280008DF817000002ADF8140003208DF8160039
:1022900005A99D48FEF7E4F901940020ADF810006F
:1022A0000C20ADF80E000020ADF80C00ADF80A00CF
:1022B000ADF8080001A99548FEF739FD01219348C2
:1022C000FEF7C1FD012240F225519048FEF7C7FDFF
:1022D00025208DF8000001208DF8030000208DF8E6
:1022E000010002208DF802006846FEF7F0F806B003
:1022F00010BD10B586B0044601210420FEF76CFC29
:1023000001214804FEF775FC18208DF81700042001
:10231000ADF8140003208DF8160005A97A48FEF7E1
:102320009FF904208DF817000820ADF81400032051
:102330008DF8160005A97448FEF792F90194002063
:10234000ADF810000C20ADF80E000020ADF80C0028
:10235000ADF80A00ADF8080001A96D48FEF7E7FCEA
:1023600001216B48FEF76FFD012240F225516848BC
:10237000FEF775FD26208DF8000001208DF8030082
:1023800000208DF801008DF802006846FEF79FF8E6
:1023900006B010BD2DE9F04107460C461546002653
:1023A0000DE014F8011B3846FEF7BAFD00BF4021CE
:1023B0003846FEF723FE0028F9D0701C86B2AE42E4
:1023C000EFDBBDE8F0810FB430B5CBB0054601AC12
:1023D00050A8009001A8009A4F9904F01FFD00201A
:1023E00000900BE014F8011B2846FEF799FD00BF92
:1023F00040212846FEF702FE0028F9D02078002868
:10240000F0D14BB030BC5DF814FB4248008808B9ED
:10241000012070473F4800883E494988884203D1DF
:1024200000203C490880F4E73A4800883949488050
:102430000120EEE73848008808B901207047364887
:10244000008835494988884203D1002032490880F4
:10245000F4E731480088304948800120EEE710B5A4
:1024600040F225512948FEF7DFFDB0B12948008828
:10247000C82802D30020274908802448001D00886E
:10248000C1B2244802880088401C224B1880181DC5
:10249000815420211D48FEF7BEFD10BD10B540F24D
:1024A00025511B48FEF7C0FDB0B11B480088C82865
:1024B00002D30020184908801548001D0088C1B2C9
:1024C000154802880088401C134B1880181D815441
:1024D00020210F48FEF79FFD10BD70B504460D4644
:1024E000002600BF0CE014F8011B0948FEF718FD98
:1024F00000BF40210648FEF781FD0028F9D0761C78
:10250000AE42F0DB70BD0000000801400038014021
:1025100000440040B80000208401002008B50121DB
:102520003020FEF759FB4FF46050ADF80000482012
:102530008DF8030003208DF8020069463248FEF74B
:102540008FF80420ADF8000069463048FEF788F89F
:1025500008BD70B504460D462B48844207D1A9B288
:10256000FEF711F908B9012070BD0020FCE72748EB
:10257000844207D1A9B2FEF706F908B90120F3E7B2
:102580000020F1E70020EFE710B54FF400611E488E
:10259000FFF7DFFF40B100BF4FF400611A48FFF7BB
:1025A000D8FF0028F8D110BD4FF400511648FFF7AE
:1025B000D0FF48B100BF4FF400511348FFF7C9FFE7
:1025C0000028F8D10320EEE74FF480510E48FFF7C2
:1025D000C0FF48B100BF4FF480510B48FFF7B9FF6F
:1025E0000028F8D10620DEE704210848FFF7B1FFF4
:1025F00040B100BF04210548FFF7ABFF0028F9D127
:102600000920D0E7FF20CEE7001001400014014070
:102610001FB501211120FEF7DFFA4FF46050ADF82D
:102620000C0048208DF80F0003A94E48FEF718F85B
:102630000420ADF80C0003A94B48FEF711F8282040
:102640008DF8000000208DF801008DF802000120B7
:102650008DF803006846FDF73AFF08208DF800006A
:1026600000208DF801008DF8020001208DF8030094
:102670006846FDF72CFF0B210220FEF707F90C211D
:102680000220FEF703F90D210220FEF7FFF80221D8
:102690000320FEF7FBF843F60400019000208DF8BC
:1026A00008000C208DF8090001208DF80A0001A80F
:1026B000FEF70CFD1FBD10B54FF40060FEF76CFD7A
:1026C00078B180212748FEF76BF8C0F10100C4B251
:1026D000224680212348FEF774F84FF40060FEF78D
:1026E0006CFD4FF48050FEF757FD78B180211D48F6
:1026F000FEF756F8C0F10100C4B222468021194805
:10270000FEF75FF84FF48050FEF757FD4FF400508E
:10271000FEF742FD78B180211248FEF741F8C0F182
:102720000100C4B2224680210E48FEF74AF84FF459
:102730000050FEF742FD10BD10B50420FEF72CFD41
:1027400070B180210748FEF72BF8C0F10100C4B238
:10275000224680210348FEF734F80420FEF72DFDC1
:1027600010BD00000010014000140140FA4908802B
:10277000704708B501210820FEF72EFA14208DF8C5
:1027800003004FF44060ADF8000003208DF8020014
:102790006946F248FDF764FF0220FFF7E7FF4FF4B8
:1027A0000061EE48FEF709F84FF48061EB48FEF750
:1027B00004F808BD10B54FF40061E848FDF7FDFFCF
:1027C0004FF48061E548FDF7F8FFE3490888FFF71B
:1027D000DBFC4FF40061E148FDF7F1FFDE490888BA
:1027E000FFF7D2FC4FF48061DC48FDF7E8FF10BD35
:1027F00010B54FF40061D948FDF7E1FF4FF4806157
:10280000D648FDF7DCFFD4490888FFF7BDFC4FF43C
:102810008061D248FDF7D1FF4FF40061CF48FDF74A
:10282000CCFFCD490888FFF7AFFC10BD10B50446BA
:102830004FF40061C948FDF7C0FFC7490888FFF79A
:10284000A3FC4FF48061C548FDF7B7FFC249088873
:10285000FFF79AFC0EE0601E040007D0C0A1C54837
:10286000FFF7B1FDFFF7C4FF012010BDBA4908888A
:10287000FFF78AFC4FF40061B848FDF784FF002899
:10288000E9D14FF48061B548FDF799FF0020ECE7EE
:1028900010B54FF48061B148FDF791FF4FF400612E
:1028A000AE48FDF78CFFAC490888FFF76DFC4FF48C
:1028B0008061AA48FDF781FFA7490888FFF764FCFB
:1028C0004FF48061A548FDF77AFF10BD10B54FF4B5
:1028D0008061A248FDF773FF4FF400619F48FDF748
:1028E0006CFF9D490888FFF74FFC4FF480619B48BF
:1028F000FDF763FF98490888FFF746FC4FF48061B5
:102900009648FDF75CFF10BD70B5044600254FF4F6
:1029100080619248FDF753FF23E004F0800028B166
:102920004FF400618D48FDF748FF04E04FF400616B
:102930008A48FDF744FF6006040E87490888FFF7C0
:1029400023FC4FF480618548FDF737FF82490888F2
:10295000FFF71AFC4FF480618048FDF730FF681CD8
:10296000C5B2082DD9DB70BD70B5002500244FF429
:1029700000617A48FDF721FF1DE04FF48061774840
:10298000FDF71DFF74490888FFF7FEFB4FF48061D7
:102990007248FDF712FF6006040E4FF400616F48A5
:1029A000FDF7F1FE08B1601CC4B26B490888FFF75F
:1029B000EBFB681CC5B2082DDFDB204670BD2DE99E
:1029C000F04105460E46144600276806070EFFF73D
:1029D000F1FE3846FFF798FF41F28830FFF726FFF7
:1029E00010B10120BDE8F0813046FFF78DFF41F2C4
:1029F0008830FFF71BFF08B10120F3E74CB12078C6
:102A0000FFF782FF41F28830FFF710FF08B1012085
:102A1000E8E7FFF7EDFE0020E4E72DE9F04104468A
:102A20000D46164600276006070EFFF7C3FE384620
:102A3000FFF76AFF41F28830FFF7F8FE10B101207E
:102A4000BDE8F0812846FFF75FFF41F28830FFF7CD
:102A5000EDFE08B10120F3E7FFF7ACFE791CC8B228
:102A6000FFF752FF41F28830FFF7E0FE08B1012086
:102A7000E6E7FFF779FF3070FFF728FFFFF7B8FEB2
:102A80000020DDE72DE9F04105460E4614461F46BD
:102A90004FF0000868064FEA1068FFF78BFE4046CB
:102AA000FFF732FF41F28830FFF7C0FE10B101207E
:102AB000BDE8F0813046FFF727FF41F28830FFF78D
:102AC000B5FE08B10120F3E70DE02078FFF71CFF09
:102AD00041F28830FFF7AAFE08B10120E8E7641C44
:102AE0000A20FFF751FB3800A7F10101CFB2ECD16A
:102AF000FFF77EFE0020DBE72DE9F04106460F469A
:102B000014461D464FF000084FEA4608FFF752FEF4
:102B100008F0FF00FFF7F8FE41F28830FFF786FE6D
:102B200010B10120BDE8F0813846FFF7EDFE41F21B
:102B30008830FFF77BFE08B10120F3E7FFF73AFE8C
:102B400008F10101C8B2FFF7DFFE41F28830FFF75C
:102B50006DFE88B10120E5E730000020000C014047
:102B60005761697441636B2054696D654F75740DCD
:102B70000A0000000038014009E0FFF7F5FE207070
:102B8000641C15B9FFF7A2FE01E0FFF781FE2800E3
:102B9000A5F10101CDB2F0D1FFF72AFE0020C1E777
:102BA0001CB50020019000904FF49670FFF7ECFAEE
:102BB00001AA00215320FFF730FF4FF49670FFF772
:102BC000E3FA2B2000906A4631215320FFF7F7FEED
:102BD0003220FFF7D9FA0A2000906A462C215320B0
:102BE000FFF7EDFE3220FFF7CFFA282000906A466B
:102BF0002D215320FFF7E3FE3220FFF7C5FA002016
:102C000000906A462E215320FFF7D9FE3220FFF7AD
:102C1000BBFA6A461E215320FFF7D1FE3220FFF790
:102C2000B3FA6A461F215320FFF7C9FE3220FFF78F
:102C3000ABFA6A4620215320FFF7C1FE4FF4FA7029
:102C4000FFF7A2FA1CBD2DE9F04788B0044600202A
:102C500007900520FFF78AFDC820FFF795FA07AA1D
:102C600000215320FFF7D9FE8146B9F1000F04D0AF
:102C70004FF0FF3008B0BDE8F087C820FFF784FAB6
:102C8000062305AA32215320FFF736FF8146B9F10A
:102C9000000F02D04FF0FF30ECE79DF814009DF8D4
:102CA000151000EB0120C0B28DF804009DF816004D
:102CB0009DF8171000EB0120C0B28DF805009DF8BB
:102CC00018009DF8191000EB0120C0B28DF8060025
:102CD0009DF8040005F0CAFE824605F09BFE0746FB
:102CE000164A174B05F098FD054605F063FD029066
:102CF0009DF8050005F0BAFE824605F08BFE0546FC
:102D00000E4A0F4B05F088FD074605F053FD039072
:102D10009DF8060005F0AAFE824605F07BFE0746F8
:102D2000064A074B05F078FD054605F043FD049083
:102D300001A80FC884E80F0000209BE7DE718A8E8F
:102D4000E4F26F3F70B588B006460C46154657480A
:102D5000864204D10121C014FDF73EFF07E00121A6
:102D60001020FDF739FF01214803FDF735FF18203A
:102D70008DF81F000001ADF81C0003208DF81E0027
:102D800007A94B48FDF76CFC0020ADF81600ADF824
:102D90001200ADF81440ADF8105004A93046FEF70B
:102DA000E9FA7020ADF800000120ADF80200022021
:102DB000ADF808000020ADF8060069463046FEF781
:102DC00058FB69463046FEF7A1FB01213046FEF76D
:102DD00039FE08213046FEF762FF08213046FEF733
:102DE0006BFF01213046FEF721FF01213046FEF73F
:102DF0001DFE08B070BD7FB506460C4615462D4831
:102E0000864207D101211020FDF7F3FE36208DF810
:102E1000000006E001212020FDF7EBFE37208DF8B1
:102E200000000020ADF80600ADF80840ADF80450F1
:102E300001A93046FEF79EFA012211463046FEF700
:102E400010FE01208DF803008DF801008DF80200BE
:102E50006846FDF73CFB01213046FEF7E7FD7FBDEC
:102E600010B541F61F4232211248FFF7C4FF10BDD2
:102E700010B501210F48FFF7A2F8012809D101F090
:102E8000D7FB01F01AFD01F0EEFB01210948FFF725
:102E9000A7F810BD10B501210748FFF790F80128E9
:102EA00003D101210448FFF79BF810BD002C01401D
:102EB00000100140001000400014004010B5002038
:102EC000FD490880C821FC48001D04F091F810BDA0
:102ED00000B587B001210420FDF77EFE01214804E2
:102EE000FDF787FE18208DF81B000420ADF81800B0
:102EF00003208DF81A0006A9F048FDF7B1FB042065
:102F00008DF81B000820ADF8180003208DF81A007A
:102F100006A9EA48FDF7A4FB4FF4E1300290002037
:102F2000ADF814000C20ADF812000020ADF8100030
:102F3000ADF80E00ADF80C0002A9E148FDF7F7FE70
:102F40000121DF48FDF77FFF012240F22551DC48D7
:102F5000FDF785FF26208DF8040001208DF807007D
:102F600000208DF805008DF8060001A8FDF7AFFAE6
:102F7000FFF7A4FF07B000BD08B501211420FDF73D
:102F80002BFE10208DF803000220ADF80000032076
:102F90008DF802006946C948FDF762FB1020ADF8C4
:102FA00000006946C748FDF75BFB28208DF8030049
:102FB0008020ADF800006946C048FDF751FB1021A4
:102FC000C048FDF7FAFBFFF783FF08BDBA48008849
:102FD00008B901207047B8480088B7494988884235
:102FE00003D10020B4490880F4E7B3480088B2490F
:102FF00048800120EEE770B504460D4600260DE03E
:1030000014F8011BAE48FDF78BFF00BF4021AC4810
:10301000FDF7F4FF0028F9D0701C86B2AE42EFDB5A
:1030200070BD2DE9F04105460E4614462C27284672
:1030300003F03CFF00F0FF0841462846FFF7DBFFA6
:1030400014E0FFF7C3FF70B9CC229B49204603F080
:1030500058FF3146201D03F0F3FE20B1FFF72EFF8D
:103060000020BDE8F081C820FFF78EF83800A7F1F6
:103070000101CFB2E5D1FFF721FF0120F1E700B553
:10308000BDB0CC210AA803F0D5FF202102A803F08F
:10309000D1FF8D480078C0F383000C2880F0F284C3
:1030A000DFE810F00C0049008400AA01EC012E02B8
:1030B0007002B002F00230038703AF0483A1854899
:1030C000FFF781F90AAA84A180A0FFF7AAFFA8B19F
:1030D00000BF8F20814B82A287A100907D48FFF71F
:1030E00072F90BAA88A17B48FFF76DF98DA1794889
:1030F000FFF769F900BF02203DB000BD00BF92207C
:10310000764B77A27CA100907248FFF75CF986A10C
:103110007048FFF758F983A16E48FFF754F900BFD4
:10312000694800788008401C6749098860F3850178
:103130006548018025E27FA16648FFF744F90AAAA5
:103140007FA17CA0FFF76DFF98B100BF9B20634B70
:1031500063A269A100905F48FFF735F97AA15D4845
:10316000FFF731F96FA15B48FFF72DF900BF03208E
:10317000C2E700BF9E20594B59A25FA1009055485D
:10318000FFF721F973A15348FFF71DF965A15148D5
:10319000FFF719F900BF4C4800788008401C4A49E5
:1031A000098860F3850148480180C3E76CA149485C
:1031B000FFF709F90AAA6DA169A0FFF732FF0028FD
:1031C0005DD06BA10BA803F03BFE88B100BFA82027
:1031D000424B43A248A100903E48FFF7F4F865A196
:1031E0003C48FFF7F0F84FA13A48FFF7ECF800BF72
:1031F0006AA10BA803F024FE88B100BFAB20374BB7
:1032000037A23DA100903348FFF7DDF864A13148B3
:10321000FFF7D9F843A12F48FFF7D5F800BF67A102
:103220000BA803F00DFE88B100BFAE202B4B2CA2E3
:1032300031A100902748FFF7C6F861A12548FFF7A4
:10324000C2F838A12348FFF7BEF800BF5FA10BA862
:1032500003F0F6FD88B100BFB120204B20A226A1CB
:1032600000901C48FFF7AFF859A11A48FFF7ABF8D8
:103270002CA11848FFF7A7F800BF04203CE700BFC7
:10328000B520164B16A21CA100901248FFF79BF820
:1032900055A11048FFF797F822A10E48FFF793F8C1
:1032A00000BF094800788008401C0749098860F37E
:1032B000850105480180EAE38401002000080140FF
:1032C00000440040001001403200002041540D0A2B
:1032D00000000000003801404F4B00002C8B00081C
:1032E00068617264776172655C7372635C73696D47
:1032F0003830382E6300000025732D2D3E257328AD
:103300002564292D2D3E0000CEB4BCECB2E2B5BD43
:10331000C4A3BFE92C20726576427566203D202546
:10332000730000000D0A000047534DC4A3BFE9D548
:10333000FDB3A30041542B4350494E3F0D0A0000FA
:10334000524541445900000073696DBFA8CEB4BD19
:10335000E2CBF80073696DBFA8D5FDB3A3000000F0
:1033600041542B435245473F0D0A0000302C310099
:10337000302C3000CEB4D7A2B2E1A3ACD6D5B6CBB8
:10338000B5B1C7B0B2A2CEB4D4DACBD1D1B0D0C22D
:10339000B5C4D4CBD3AAC9CC00000000302C320075
:1033A000CEB4D7A2B2E1A3ACD6D5B6CBD5FDD4DA94
:1033B000CBD1D1B0BBF9D5BE00000000302C340019
:1033C000CEB4D6AAB4FAC2EB00000000302C35000F
:1033D000D2D1D7A2B2E1A3ACB4A6D3DAC2FED3CE87
:1033E000D7B4CCAC00000000D2D1D7A2B2E1B1BEBC
:1033F000B5D8CDF8C2E70000FBA1FE48FEF7E3FF19
:103400000AAAAFF22C11F8A0FFF70BFEB0B100BF73
:10341000BE20F94BAFF23812AFF224110090F548FC
:10342000FEF7D1FFF5A1F348FEF7CDFFAFF20C1187
:10343000F048FEF7C8FF00BF05205DE600BFC120D1
:10344000ED4BAFF26412AFF250110090E948FEF775
:10345000BAFFEFA1E748FEF7B6FFAFF23811E54833
:10346000FEF7B1FF00BFEF4800788008401CED492F
:10347000098860F38501EB48018008E3EAA1DD4893
:10348000FEF7A1FF0AAAAFF2B011E7A0FFF7C9FD4E
:10349000B0B100BFCA20D84BAFF2BC12AFF2A81136
:1034A0000090D448FEF78FFFE2A1D248FEF78BFFD1
:1034B000AFF29011CF48FEF786FF00BF06201BE653
:1034C00000BFCD20CC4BAFF2E812AFF2D411009088
:1034D000C848FEF778FFDAA1C648FEF774FFAFF2DE
:1034E000BC11C448FEF76FFF00BFCE4800788008CB
:1034F000401CCC49098860F38501CA480180C6E2B6
:10350000D3A1BC48FEF75FFF0AAAAFF23421D0A0D6
:10351000FFF787FDB0B100BFD620B74BAFF2402216
:10352000AFF22C210090B348FEF74DFFCCA1B1487B
:10353000FEF749FFAFF21421AE48FEF744FF00BF8B
:103540000720D9E500BFD920AB4BAFF26C22AFF218
:1035500058210090A748FEF736FFC6A1A548FEF700
:1035600032FFAFF24021A348FEF72DFF00BFAD4868
:1035700000788008401CAB49098860F38501A948A0
:10358000018084E2BFA19B48FEF71DFF0AAAAFF2AB
:10359000B821BCA0FFF745FDA8B100BFE220964BC3
:1035A000AFF2C422AFF2B02100909248FEF70BFFB9
:1035B000B8A19048FEF707FFB5A18E48FEF703FFBC
:1035C00000BF082098E500BFE5208B4BAFF2F0224A
:1035D000AFF2DC2100908748FEF7F5FEB1A18548E7
:1035E000FEF7F1FEAAA18348FEF7EDFE00BF8D486D
:1035F00000788008401C8B49098860F38501894860
:10360000018044E2ABA17B48FEF7DDFE0AAAAFF2DF
:103610003831ABA0FFF705FDA8B100BFEE20764B17
:10362000AFF24432AFF2303100907248FEF7CBFE79
:10363000A8A17048FEF7C7FE95A16E48FEF7C3FE2D
:1036400000BF092058E500BFF1206B4BAFF270328C
:10365000AFF25C3100906748FEF7B5FEA1A1654866
:10366000FEF7B1FE8AA16348FEF7ADFE00BF6D48CC
:1036700000788008401C6B49098860F3850169481F
:10368000018004E29BA15B48FEF79DFE0AAAAFF20F
:10369000B83198A0FFF7C5FCA8B100BFFB20564B7E
:1036A000AFF2C432AFF2B03100905248FEF78BFE59
:1036B00093A15048FEF787FE75A14E48FEF783FEA2
:1036C00000BF0A2018E500BFFE204B4BAFF2F032DE
:1036D000AFF2DC3100904748FEF775FE8DA14548FA
:1036E000FEF771FE6AA14348FEF76DFE00BF4D482C
:1036F00000788008401C4B49098860F385014948DF
:103700000180C4E188A13B48FEF75DFE0AAA89A1B9
:1037100085A0FFF786FCB0B900BF40F21F10364B02
:10372000AFF24442AFF2304100903248FEF74BFE18
:1037300082A13048FEF747FE55A12E48FEF743FE12
:1037400000BF0C20D8E400BF4FF491702A4BAFF2B9
:103750007042AFF25C4100902648FEF734FE7BA138
:103760002448FEF730FE4AA12248FEF72CFE00BF97
:1037700000BF40F22310204BAFF29C42AFF28841D1
:1037800000901C48FEF71FFE0BAA74A11948FEF713
:103790001AFE3FA11748FEF716FE00BF2148007829
:1037A0008008401C1F49098860F385011D4801807D
:1037B0006DE1202102A803F03DFC69A102A803F0FD
:1037C00051FB6C4902A803F090FB6BA102A803F027
:1037D0008CFB6849103102A803F087FB2CA102A8DA
:1037E00003F083FB02AAC9E041542B4353510D0A55
:1037F00000000000003801402C8B0008B2E9D1AF76
:10380000D0C5BAC5C7BFB6C8CAA7B0DC00000000A3
:10381000B2E9D1AFD0C5BAC5C7BFB6C8B3C9B9A69A
:10382000000000003200002041542B43475245471E
:103830003F0D0A00D7A2B2E1CAA7B0DC0000000029
:10384000CDF8C2E7D7A2B2E1D5FDB3A300000000D6
:1038500041542B43474154543D310D0A00000000B0
:10386000B8BDD7C547505253D2B5CEF1CAA7B0DCC8
:1038700000000000B8BDD7C547505253D2B5CEF1B5
:103880000000000041542B4349504D4F44453D3109
:103890000D0A0000C9E8D6C3CDB8B4ABCAA7B0DCE6
:1038A00000000000C9E8D6C3CDB8B4ABB3C9B9A60F
:1038B0000000000041542B435354543D310D0A0085
:1038C00041542B435354543D22434D4E4554220DF5
:1038D0000A000000BFAACABCC8CECEF1CAA7B0DC9D
:1038E00000000000BFAACABCC8CECEF1B3C9B9A6B9
:1038F0000000000041542B43494943520D0A000087
:10390000B4B4BDA8CEDECFDFC1ACBDD3CAA7B0DC96
:1039100000000000B4B4BDA8CEDECFDFC1ACBDD383
:10392000B3C9B9A60000000041542B434946535285
:103930000D0A00004552524F52000000BBF1C8A1D1
:103940004950B5D8D6B7CAA7B0DC0000BBF1C8A1B2
:103950004950B5D8D6B7B3C9B9A600002573000041
:1039600041542B43495053544152543D22544350E7
:10397000222C220038000020222C000091A1954822
:10398000FEF721FD0AAA94A102A8FFF74AFBB8B1ED
:1039900000BF4FF49A70924BAFF2BC62AFF2A861D5
:1039A00000908C48FEF70FFD8EA18A48FEF70BFDB4
:1039B000AFF224118748FEF706FD00BF0D205DE43D
:1039C00000BF40F23710864BAFF2EC62AFF2D86125
:1039D00000908048FEF7F7FC86A17E48FEF7F3FCD6
:1039E000AFF254117B48FEF7EEFC00BF854800782B
:1039F0008008401C8349098860F385018148018063
:103A000045E081A17348FEF7DEFC0AAA82A17EA0F0
:103A1000FFF707FBB0B100BF4FF4A070704BAFF2DF
:103A20004072AFF22C7100906A48FEF7CCFC7DA189
:103A30006848FEF7C8FC77A16648FEF7C4FC00BFE3
:103A40000D201BE400BF40F24310654BAFF27072D3
:103A5000AFF25C7100905F48FEF7B5FC75A15D4860
:103A6000FEF7B1FC6BA15B48FEF7ADFC00BF6548FB
:103A700000788008401C6349098860F3850161482B
:103A8000018004E070A15348FEF79DFC00BF00BF19
:103A90005C480078C0F383000C2816D100BF4FF4B7
:103AA000A7704F4BAFF2C872AFF2B47100904948A3
:103AB000FEF789FC69A14748FEF785FC55A14548FA
:103AC000FEF781FC00BF0020B7E40120B5E410B58B
:103AD000012406E0FFF7D3FA04464FF47A70FEF7AC
:103AE00092FB002CF6D1002010BD10B500BF60483D
:103AF000008800F040000028F9D02B205C49091D07
:103B00000880032002F03CFD00BF5948008800F007
:103B100040000028F9D02B205549091D08800320BA
:103B200002F02EFD00BF5248008800F0400000283F
:103B3000F9D02B204E49091D0880142002F020FDE9
:103B4000002237A14BA0FFF76CFA10BD08B5AFF605
:103B500084012048FEF737FC002231A1AFF6940023
:103B6000FFF75FFAB0B100BF40F2F910454BAFF676
:103B70009002AFF67C0100901648FEF724FC42A1AB
:103B80001448FEF720FC23A11248FEF71CFC00BFDE
:103B9000012008BD00BF4FF4FE703A4BAFF6C002E3
:103BA000AFF6AC0100900B48FEF70DFCAFF68801B4
:103BB0000848FEF708FC17A10648FEF704FC00BF02
:103BC0000020E6E753544120546970733A202025C1
:103BD0007300000000380140434F4E4E45435400EF
:103BE0002C8B0008C1ACBDD3B7FECEF1C6F7CAA777
:103BF000B0DC0000C1ACBDD3B7FECEF1C6F7B3C98F
:103C0000B9A600003200002041542B4349505354C0
:103C1000415455530D0A0000434F4E4E4543542026
:103C20004F4B0000B7FECEF1C6F7CEB4C1ACBDD34A
:103C300000000000D2D4D5FDB3A3C1ACBDD3B7FE04
:103C4000CEF1C6F700000000706172616D657465A9
:103C500072206572726F720D0A000000CDF8C2E723
:103C6000C9E8B1B8B3F5CABCBBAFB3C9B9A60000C7
:103C70000044004041542B434D4D4F44453D300DD1
:103C80000A000000408B0008CEB4BCECB2E2B5BD27
:103C9000C4A3BFE9000000000EB50EE001A9082092
:103CA00002F066FB02990091024635A13D48019B56
:103CB000FEF789FB0A2002F063FCEFE710B500F085
:103CC00071F910BD10B500F0D5F810BD10B500F0B9
:103CD000AAF910BD10B54FF4A060FCF7F3FBFEF796
:103CE0003BFAFEF7D0F9FEF719FCFEF791FC4FF412
:103CF000E130FEF7ABFAFFF73FF9FEF73AFDFFF7C9
:103D0000AFF8FEF74DFF10BD00B585B0FFF7E2FF3D
:103D1000FFF7DDFE032000214FF48072224BCDE936
:103D20000132CDE9031008200346204A0090AFF28B
:103D3000730002F036F9032000214FF480721C4B0F
:103D4000CDE90132CDE903100A200346194A00905B
:103D5000AFF28F0002F025F9032000214FF48062BA
:103D6000154BCDE90132CDE903100B200346134A70
:103D70000090AFF2A70002F014F9002005B000BDDA
:103D8000726574203D2025642C2066726565203D97
:103D90002025642C2075736564203D2025640D0A60
:103DA0000000000000380140500300204C070020B4
:103DB000500700204C0B0020500B00204C1B002013
:103DC000B6490870704700B5B5B0CC2102A803F021
:103DD00031F9FFF773F802AAB1A1B4A0FFF721F9F6
:103DE000A8B100BFE820B54BB5A2B8A10090BB4870
:103DF000FEF7E9FA03AABAA1B848FEF7E4FAAEA1C1
:103E0000B648FEF7E0FA00BF012035B000BD002043
:103E1000FBE770B50646C824002518E0FEF70AFB4C
:103E200090B9B849488802F0A3FF0546CC2128463E
:103E300003F0DEF8C822B349091D284603F061F8F3
:103E4000CC21B04803F0D4F8022002F099FB200006
:103E5000A4F101018CB2E1D10CB9012070BD2E4654
:103E60000020FBE770B505460C46E1B22846FFF797
:103E7000C2F870BD2DE9FF41A3A207CA01AB07C379
:103E8000052600276AE0A3480078012803D183486B
:103E90000078012815D000BF2D209F4B88A28BA150
:103EA00000908E48FEF78FFA9CA18C48FEF78BFAA3
:103EB00081A18A48FEF787FA00BF012004B0BDE85F
:103EC000F08105260220FFF77BFF1AE00B2101A8F5
:103ED000FFF7C8FF3846FFF79CFF04468CB100BFD0
:103EE0003A208D4B76A279A100907C48FEF76BFAC0
:103EF00090A17A48FEF767FA6FA17848FEF763FA57
:103F000000BF3000A6F10101CEB2DFD1C6B9FFF784
:103F10005AFF0546A5B100BF41207F4B68A26BA1A7
:103F200000906E48FEF74FFA87A16C48FEF74BFAF7
:103F300061A16A48FEF747FA00BF00207549087082
:103F40000120FFF73DFF1FB1384602F040FF002778
:103F5000002314221946184602F044FB93E708B5E3
:103F600000241EE06B480078012803D04B480078FD
:103F7000012816D12046FFF74CFF94B100BF652001
:103F8000744B4FA251A100905448FEF71CFA2246F0
:103F900071A15248FEF717FA47A15048FEF713FAED
:103FA00000BFDFE708B5FEF793FF0020FFF708FF2B
:103FB00038E05848007888B96C480078C0F30010A1
:103FC00060B10020FFF7FCFEFFF781FD044614B945
:103FD0000120504908700120FFF7F2FE6348007885
:103FE000C0F30010D8B9FFF7B1FD88B100BFCD20F4
:103FF0005F4B33A235A100903848FEF7E4F95DA18C
:104000003648FEF7E0F92CA13448FEF7DCF906E06B
:104010005648008820F01000103054490880C8200D
:1040200002F0AEFAC5E788B0142255A103A802F049
:10403000ADFF002002902CE036480078012825D101
:1040400016480078012821D1CC2102A802F0F2FF05
:104050000298FFF7DEFE0298C0B100BF40F20510E3
:104060004C4B17A219A100901C48FEF7ACF9029A1C
:10407000121D49A11948FEF7A6F90FA11748FEF72E
:10408000A2F900BF132103A8FFF7ECFE022002F003
:1040900077FAD1E70148007870470000530000200C
:1040A00054435020434C4F534544000041542B434C
:1040B00049505354415455530D0A00007A8B00085F
:1040C000757365725C757365722E630025732D2D93
:1040D0003E2573282564292D2D3E0000003801401F
:1040E0007365727669636520697320636C6F7365AD
:1040F0002C207265766365206275666665723A2566
:10410000730000008401002068656172742064619E
:104110007461000052000020518B00086E6F742003
:10412000696E206465766963655F646174615F6D63
:104130006F646500CEB4BBF1C8A1B5BDB7FECEF1CA
:10414000C6F7CAFDBEDD0000D2D1B9D8B1D5C1AC29
:10415000BDD30000618B00087265636569766520D8
:104160006275666665723A20257300005000002073
:104170006E8B0008C4A3BFE9D2ECB3A3000000001B
:10418000492072656365697665207468652064619D
:10419000746100008C8B0008726563656976652028
:1041A000627566666572203D202573004B4880214C
:1041B00002E0491E002204C00029FAD1484A494BB6
:1041C0001A600022484B1A8070477047704770474A
:1041D00070477047704770B5044610464FF08075C1
:1041E0000560051F28462C60404E051F28462E609E
:1041F0004FF01236051F28462E604FF00336051F7C
:1042000028462E604FF00236051F28462E60761095
:10421000051F28462E60051F284629604FF01136DD
:10422000051F28462E604FF01036051F28462E60C9
:104230004FF00936051F28462E604FF00836051F3F
:1042400028462E604FF00736051F28462E604FF097
:104250000636051F28462E604FF00536051F2846F6
:104260002E604FF00436051F28462E6070BD704743
:10427000704710B51C480088401C1B490880084640
:104280000088022803D30020088002F0ABFC10BD98
:1042900010B500F031F8044615480078401C144968
:1042A0000870204600F02CF800F007FB00F0DBF966
:1042B00010BD411E4FF0E0225161FF210D4A1170E7
:1042C0004FF0E021096941F005014FF0E022116152
:1042D0001146096941F0020111617047501B00202D
:1042E0004C1D002054000020580000205565000897
:1042F0007500002023ED00E0EFF3108072B67047E8
:1043000080F310887047204C204D25604FF000044A
:1043100084F309881E4C4FF0010525701D4C4FF0A9
:104320008055256062B6FEE730B41A4C4FF08055D8
:10433000256030BC704730B4164C4FF08055256076
:1043400030BC704700BF72B6EFF3098028B1203847
:1043500080E8F00F10490968086000B50F488047F1
:104360005DF804EB0E480F490A7802700A480E49BE
:104370000A680260106890E8F00F203080F3098826
:104380004EF0040E62B6704720ED00E00000FFFF23
:104390008200002004ED00E0880000206F42000849
:1043A0007700002078000020900000207CB50025D8
:1043B00014E06946284601F0DBFF064666B9F84876
:1043C00050F8254044B1012C06D0D4E9020100EB9D
:1043D000810060640198A064681CC5B23F2DE8D9D3
:1043E0007CBD002400BF02E0282002F0C9F8ED489F
:1043F00000780028F8D0EC4800686421B0FBF1F0A8
:10440000E94908600846006828B90020E7490870B3
:10441000FF2001F0EDFF00BFFFF76EFF0446E44808
:104420000068E44908600020E14908602046FFF781
:1044300067FFE0480068DC490968B0FBF1F0C0F1B3
:104440006400DA490870FFF7C5FEFFF7AFFF1420DC
:1044500002F096F8E0E700B587B003200021802243
:10446000D54BCDE90132CDE903104FF6FE703E2366
:10447000D24A0090AFF2950001F093FD06AAD0A1B8
:104480003E2001F0F7FE07B000BD002400BF00BFD2
:10449000FFF732FF0446C6480068401CC449086064
:1044A0002046FFF72DFFFFF793FEF1E700B587B039
:1044B000032000218022C64BCDE90132CDE9031053
:1044C0004FF6FF703F23C34A0090AFF2410001F066
:1044D00068FD06AAC0A13F2001F0CCFE07B000BDD8
:1044E00004E0002200F8012B4A1E91B20029F8D105
:1044F000704770B54FF4C871BB48FFF7F1FF002358
:104500000FE0581C85B203EB8300B74901EB800430
:1045100005EB850001EB8006002020706660581CCA
:1045200083B2132BEDD303EB8300AF4901EB80047F
:104530000020207060600846AC49086070BD70B50E
:104540004FF49361AA48FFF7CBFF4FF48071944872
:10455000FFF7C6FF002413E0601CC5B2C4EBC40023
:1045600000EB4000A24901EB8003C5EBC50000EB66
:10457000400001EB80065E619EA0D864601CC4B25E
:104580000D2CE9D3C4EBC40000EB4000984901EBCB
:1045900080030020586197A0D864002096490860E5
:1045A00093489649086070BD0021954A117000201B
:1045B00004E00021934A1154411CC8B20828F8D3E2
:1045C0000021914A1170914A1170914A1160914AEB
:1045D0001160704700209049086090490870904928
:1045E00008709049087090490870904908607049B7
:1045F0000860704908606C4908606A490870704733
:1046000010B5FFF7D3FDFFF7E5FFFFF7CDFFFFF78D
:1046100096FFFFF76EFF00F0EBFE01F0E2F9FFF707
:1046200045FFFFF718FF02F037FBFFF7CEFD10BD87
:104630007D480078012808D178480078FF2804D206
:1046400076480078401C75490870704778496C4A74
:104650001278885C6B49095C754A515C01EBC001BA
:104660006A4A1170704710B500246F48007801281D
:1046700030D1FFF741FE04466848007820B1674812
:104680000078401E6549087064480078F8B96448AD
:104690000078E0B9FFF7DAFF41485C49097850F843
:1046A00021005B49086059480078574909788842D9
:1046B0000DD057480068806B401C554909688863D5
:1046C0005A480068401C59490860FFF734FE2046EC
:1046D000FFF716FE10BD10B50024534800780128DE
:1046E00011D1FFF709FE04464C48007840B94C4808
:1046F0000078FF2804D24A480078401C48490870D6
:104700002046FFF7FDFD10BD10B50024FFF7F4FDB6
:10471000044642480078F8B941480078E0B9FFF70C
:1047200095FF1F483949097850F821003849086039
:10473000364800783449097888420DD034480068FA
:10474000806B401C32490968886338480068401C07
:1047500036490860FFF7E8FD2046FFF7D1FD10BDA0
:1047600010B500243048007801286ED1FFF7C4FD51
:1047700004462B48007880B129480078401E28491B
:1047800008700846007848B92448007838B92046AF
:10479000FFF7B6FDFFF7B8FF57E053E04EE049E002
:1047A00030230020740000206C00002068000020EE
:1047B0008400002070000020301F00202C210020E9
:1047C00075432F4F532D49492053746174000000E5
:1047D000302100202C23002075432F4F532D4949B1
:1047E0002049646C65000000501D0020600000201E
:1047F000302400203F000000940000208C000020A6
:10480000790000207A000020770000207800002046
:104810009000002088000020A000002075000020EB
:104820007600002083000020820000205C00002031
:10483000998B00082046FFF763FD06E02046FFF74E
:104840005FFD02E02046FFF75BFD10BD10B5EB48B1
:10485000007890B9FFF7FAFEE9480078E949087056
:10486000E948E749097850F82100E8490860084616
:104870000068E7490860FFF746FD10BD10B5002449
:10488000022001F07DFEFFF737FD04460020E149DC
:1048900008602046FFF734FD142001F071FEFFF799
:1048A0002BFD0446DB480068DB4908600120DB493A
:1048B00008702046FFF724FD10BD70B50026FFF7F5
:1048C000D8FCFFF719FD0646D5480068401CD449BE
:1048D00008603046FFF714FDC8480078012853D11E
:1048E000D048007820B1012804D0022809D103E083
:1048F00001250BE0002509E001250120C9490870C8
:1049000004E001250020C749087000BF00BF05B9B9
:1049100070BDC548046833E0FFF7EEFC0646E06A68
:1049200050B3E06A401EE062E06A28BB94F83000B1
:1049300000F0370040B114F8300F00F0C8002070CC
:1049400001206070303C02E0002084F8310094F8CF
:10495000300000F0080078B93434A078B349097801
:104960000843B24908702078B149085C617808436F
:1049700014F83419AE4A505464693046FFF7C0FC4D
:1049800094F832003F28C7D100BFC1E74FF49270BE
:104990007047704710B590F8342001F10B039B5C11
:1049A00090F83540A34301F10B04A35423469B5CCC
:1049B00023B98B7A90F83640A3438B7210BD2DE952
:1049C000F04F05460F4690469946A87A99490E5CE5
:1049D00005F10B00805D11F800B00BEBC60000F094
:1049E000FF0A894850F82A4000202034E060276000
:1049F000207C20EA0800207484F81190207C203C60
:104A000000F0080068B994F836008849097808432E
:104A1000864908708648805D94F8351008438449BB
:104A2000885529462046FFF7B5FF5046BDE8F08F70
:104A300010B5774A1268D061754A126892F834301E
:104A400000F10B02D25C724B1B6893F835301A43AD
:104A50006F4B1B6893F8344000F10B031A55827AB0
:104A60006B4B1B6893F836301A438272684A12689F
:104A700092F834106E4A525C654B1B6893F83530DF
:104A80009A436B4B5A541A46525C42B9604A1268B8
:104A900092F83630654A12789A43644B1A7010BD0A
:104AA000014600228A72002005E0002301F10B027A
:104AB0001354421CD0B20828F7D3704705E011F810
:104AC000013B00F8013B531E9AB2002AF7D1704710
:104AD0000146002002E0491C421CD0B20A78002A9C
:104AE000F9D170472DE9F84F05460F469046994693
:104AF000DDE90AAB00200090FFF7FEFB00904E4876
:104B00000468002C75D0183454F8040C4A49086025
:104B10000098FFF7F5FB44F8187CA5760020207676
:104B20006076606144F814BC44F80CAC44F8108C16
:104B30000C9824F8080C24F8069C0020E077E81074
:104B4000207705F00700E076217F01208840A077DC
:104B5000E17E01208840607700206060E060A06016
:104B60002062A0626062E0622063AFF2783060632E
:104B7000183C002606E0002104F1500040F8261001
:104B8000701CC6B2002EF6D02046FFF771FB2046FF
:104B9000FFF71CFBFFF7B0FB00901B4840F82540D7
:104BA0002148006860610020A0611F48006810B1C2
:104BB0001D48006884611C4804603434A0781B4997
:104BC000097808431949087020781949085C617808
:104BD000084314F83419164A505418480078401CF9
:104BE000164908700098FFF78BFB0020BDE8F88F8E
:104BF000FFE70098FFF784FB4220F7E782000020E0
:104C00007800002077000020302300209000002052
:104C100088000020840000206C0000207400002028
:104C2000A0000020980000209400002079000020BF
:104C30007A000020998B00088C000020830000205F
:104C40002DE9F05F04460F4691461E464FF0000BDB
:104C50002078052804D0012030700020BDE8F09FA6
:104C600009F0800ABAF1000F04D029F080094FF052
:104C7000010801E04FF0000800203070FFF73CFB16
:104C80008346B9F1000F2CD0B9F1010F3BD0B9F137
:104C9000020F03D0B9F1030F46D111E0208900EAD9
:104CA0000705BD4206D1B8F1010F05D12089A843FF
:104CB000208101E0702030705846FFF721FB3AE078
:104CC000208900EA070535B1B8F1010F05D1208927
:104CD000A843208101E0702030705846FFF710FB98
:104CE00029E0208927EA0005BD4206D1B8F1010F6D
:104CF00005D120892843208101E07020307058467A
:104D0000FFF7FEFA17E0208927EA000535B1B8F170
:104D1000010F05D120892843208101E070203070E7
:104D20005846FFF7EDFA06E05846FFF7E9FA002586
:104D30006F20307000BF00BF28468FE72DE9F0419B
:104D400006460D460027FA48007820B1102028704A
:104D50000020BDE8F081FFF7CFFA0746F548046868
:104D600084B100684068F3490860052020702681FE
:104D700000206060F0A0E0603846FFF7C1FA002034
:104D8000287004E03846FFF7BBFA722028702046EE
:104D9000DFE730B501464A6808682AB9CC68606028
:104DA00028B10025456002E0106000B142608B68C8
:104DB00000255D6230BDF0B506460F46B4680020A0
:104DC000283460602780207A00F0DF002072002005
:104DD0006072207A283C88B93434A078D7490978A1
:104DE0000843D64908702078D549085C61780843A3
:104DF00014F83419D24A5054012500E000253046F9
:104E0000FFF7C7FF2846F0BD2DE9F0470446894665
:104E100015464FF0000AC648007820B10F202870D0
:104E20002046BDE8F0872078052803D001202870AF
:104E30002046F6E7FFF760FA8246606808B101276E
:104E400000E00027B9F1000F03D0B9F1010F3CD108
:104E500019E08FB9B8A0E06000202070B548006864
:104E6000606000202081B34804605046FFF748FA94
:104E700000202870002605E05046FFF741FA49203F
:104E80002870264628E0D4F8048005E0002140463A
:104E9000FFF791FFD8F80080B8F1000FF6D1A6A077
:104EA000E06000202070A34800686060002020813E
:104EB000A04804605046FFF723FA012F01D1FFF705
:104EC00023FC00202870002606E05046FFF718FA61
:104ED00007202870264600BF00BF3046A1E72DE915
:104EE000F04105460E46144600279148007820B14F
:104EF000112020700020BDE8F081FFF7FDF9074682
:104F00002878052806D03846FFF7FAF901202070E6
:104F10000020F0E7E86830603068FFF7D9FD804690
:104F20003846FFF7EDF9002020704046E3E72DE911
:104F3000F04105460E46144600277D48007818B11A
:104F400012202070BDE8F081FFF7D6F907462878D7
:104F5000052805D03846FFF7D3F901202070F1E786
:104F6000EE603846FFF7CCF90020207000BFE9E77B
:104F7000F0B51446059E734F3F6897F8307047F0C0
:104F80002007DFF8C0C1DCF800C08CF830700027C3
:104F9000DFF8B0C1DCF800C08CF83170694F3F68B1
:104FA000FE62684F3F6879620C828B74654F3F6880
:104FB0008F6047680F6000274F60C860456805B183
:104FC000696041605F4F3F6897F834205C4FBF5C79
:104FD000DFF870C1DCF800C09CF835C027EA0C0788
:104FE000DFF85CC10CF802706746BF5C5FB9554FD3
:104FF0003F6897F836C0514F3F7827EA0C07DFF833
:105000003CC18CF80070F0BD2DE9F04F89B0054629
:105010000F4691469A46129E00200290444800781E
:1050200028B102203070002009B0BDE8F08F46485A
:10503000007818B10D2030700020F5E72878052899
:1050400003D0012030700020EEE709F0800BBBF1A7
:10505000000F04D009F07F094FF0010801E04FF084
:105060000008FFF749F90290B9F1000F4AD0B9F1F1
:10507000010F78D0B9F1020F03D0B9F1030F71D14C
:1050800020E0288900EA0704BC420FD1B8F1010FE3
:1050900002D12889A04328812A4800680485029803
:1050A000FFF72EF9002030702046BDE74B463A4608
:1050B00004A92846CDF800A0FFF75AFF0298FFF791
:1050C0001FF978E0288900EA07047CB1B8F1010FE4
:1050D00002D12889A04328811A48006804850298D3
:1050E000FFF70EF90020307020469DE74B463A4608
:1050F00004A92846CDF800A0FFF73AFF0298FFF771
:10510000FFF858E0288927EA0004BC421ED1B8F114
:10511000010F02D12889204328810A4800680485AC
:105120000298FFF7EDF80020307020467CE71AE087
:1051300075000020640000203F000000790000207E
:105140007A00002088000020760000204B463A4676
:1051500004A92846CDF800A0FFF70AFF0298FFF740
:10516000CFF828E01FE0288927EA00047CB1B8F1D5
:10517000010F02D1288920432881B14800680485A5
:105180000298FFF7BDF80020307020464CE74B46F0
:105190003A4604A92846CDF800A0FFF7E9FE029898
:1051A000FFF7AEF807E00298FFF7AAF800246F2097
:1051B0003070204638E700BFFFF7A6FAFFF79CF8EB
:1051C00002909F48006890F8310020B39C48006826
:1051D00090F83100039000209949096881F8310066
:1051E00004A8FFF7D6FD00209549096881F8300032
:1051F0000298FFF785F800240398012805D00228BB
:1052000002D10E20307003E000BF0A20307000BFD2
:1052100000BF204608E78A480068048DB8F1010FF6
:105220001ED1B9F1000F0ED0B9F1010F0CD0B9F1B8
:10523000020F03D0B9F1030F0AD100E000BF2889A3
:10524000A04328810BE000BF28892043288106E085
:105250000298FFF755F86F2030700020E4E600BF99
:105260000298FFF74DF8002030702046DCE670B55C
:105270000025FFF741F8054671480068048D28466F
:10528000FFF73EF8204670BD2DE9FC5F04468946D5
:1052900092461E46002000902078052804D0012068
:1052A00030700020BDE8FC9FFFF726F80090BAF1AF
:1052B000000F03D0BAF1010F0AD104E0208920EADF
:1052C000090020810BE0208940EA0900208106E0E6
:1052D0000098FFF715F8712030700020E2E700BF5A
:1052E0004FF0000B656855E0A87C40B3012838D02A
:1052F000022802D0032844D111E02089298A00EA3B
:105300000107288AB84209D139462846FFF753FDDC
:105310008046B8F1010F01D14FF0010B38E0208930
:10532000298A00EA01074FB139462846FFF743FDB5
:105330008046B8F1010F01D14FF0010B28E0288A17
:10534000218920EA0107288AB84209D1394628462E
:10535000FFF731FD8046B8F1010F01D14FF0010B8D
:1053600016E0288A218920EA01074FB139462846EC
:10537000FFF721FD8046B8F1010F01D14FF0010B7D
:1053800006E00098FEF7BCFF6F203070002089E730
:1053900000BF2D68002DA7D10098FEF7B1FFBBF12B
:1053A000010F01D1FFF7B0F9FEF7A6FF00902089A9
:1053B00001900098FEF7A4FF00203070019871E77B
:1053C0002DE9F04104460D4600272078052804D039
:1053D000012028700020BDE8F081FEF78DFF074610
:1053E00026893846FEF78CFF002028703046F2E709
:1053F0002DE9F04150211348FFF772F800250EE027
:10540000681C86B20F4800EB051400EB061700205D
:1054100020706760AFF2E020E060681C85B2042D68
:10542000EED3084800EB0514002020706060AFF256
:10543000F820E060034804490860BDE8F0810000FE
:1054400088000020E01E0020640000202DE9F041CB
:1054500006460D464FF000083078022804D001209F
:1054600028700020BDE8F081FEF746FF8046746892
:10547000E08A78B12169081D20610F68E08A401E2A
:10548000E082A1682069884201D160682061002023
:10549000287002E01F20287000274046FEF730FFEA
:1054A0003846DFE72DE9F04106460F464FF0000889
:1054B000F748007810B10020BDE8F081FEF71CFF2E
:1054C0008046F4480568006820B1F24800684068EA
:1054D000F04908604046FEF713FF3DB3FEF70CFFAE
:1054E0008046ED480468C4B100680068EA49086075
:1054F0004046FEF705FF666006EB8700A060E660A9
:105500002661A7820020E0820220287000202881E6
:105510006C602846FFF7C4FA08E0DE48006868605F
:10552000DC4805604046FEF7EBFE00252846C3E751
:105530002DE9F0470446894615464FF0000A2078C9
:10554000022804D0012028702046BDE8F087D0480A
:10555000007818B10F2028702046F6E7FEF7CCFE41
:105560008246A07A10B14FF0010801E04FF0000828
:10557000B9F1000F03D0B9F1010F45D11FE0B8F127
:10558000000F15D16668C44800683060C2480660E4
:1055900000202070BF480068606000202081BD4866
:1055A00004605046FEF7ACFE00202870002705E09E
:1055B0005046FEF7A5FE4920287027462BE005E05F
:1055C0000023042219462046FFF7F9F9A07A0028A3
:1055D000F6D16668B04800683060AF4806600020C9
:1055E0002070AC480068606000202081A9480460F9
:1055F0005046FEF785FEB8F1010F01D1FFF784F8A0
:1056000000202870002706E05046FEF779FE0720AC
:105610002870274600BF00BF384696E770B505469C
:105620000026FEF769FE06466C686068E060606808
:1056300020610020E0823046FEF762FE002070BD4F
:105640002DE9F0470746884615464FF0000938789F
:10565000022804D0012028700020BDE8F0878C4883
:10566000007818B1022028700020F6E78B480078F7
:1056700018B10D2028700020EFE7FEF73DFE8146AF
:105680007C68E08A98B12169081D20610E68E08A73
:10569000401EE082A1682069884201D160682061D3
:1056A0004846FEF72DFE002028703046D5E77C489E
:1056B000006890F8300040F004007949096881F8EA
:1056C000300000207649096881F83100744800688C
:1056D000C0F82C803846FFF7ABF94846FEF710FEBD
:1056E000FFF712F8FEF708FE81466D48006890F853
:1056F000310020B101280DD002280AD105E0684808
:105700000068066A002028700DE000260E20287030
:1057100009E000BF394662480068FFF73BF9002600
:105720000A20287000BF00BF00205D49096881F889
:1057300030005B49096881F8310059490968C8613E
:105740005749096808624846FEF7DAFD304684E7A3
:105750002DE9F04104460F4615464FF00008207829
:10576000022804D0012028700020BDE8F081FEF757
:10577000C3FD8046A07A20B300267FB1012F0CD153
:1057800007E00223042200212046FFF718F9701CCD
:10579000C6B2A07A0028F4D109E000BF0223042297
:1057A00000212046FFF70BF9701CC6B200BF00BFF6
:1057B0004046FEF7A5FDFEF7A7FF0E2028703046F5
:1057C000D3E74046FEF79CFD0020287000BFCCE7E1
:1057D0002DE9F04105460E4600272878022802D020
:1057E0000120BDE8F081FEF787FD0746A87A60B189
:1057F0000023042231462846FFF7E1F83846FEF739
:105800007FFDFEF781FF0020EBE76C68E08AA18A4C
:10581000884204DB3846FEF773FD1E20E1E7E168AD
:10582000081DE0600E60E08A401CE082D4E90210AE
:10583000884201D16068E0603846FEF761FD0020D3
:10584000CFE72DE9F04105460E46002728780228CB
:1058500002D00120BDE8F081FEF74EFD0746A87A90
:1058600060B10023042231462846FFF7A8F83846E5
:10587000FEF746FDFEF748FF0020EBE76C68E08A84
:10588000A18A88420EDB3846FEF73AFD1E20E1E78A
:1058900075000020600000209C00002076000020A1
:1058A0008800002061682069884201D1A0682061D9
:1058B0002069001F206120690660E08A401CE082A8
:1058C0003846FEF71DFD0020C4E72DE9F0410546EE
:1058D0000F4616464FF000082878022802D0012013
:1058E000BDE8F081FEF708FD8046A87AE8B106F031
:1058F000010050B105E00023042239462846FFF795
:105900005EF8A87A0028F6D105E000230422394683
:105910002846FFF754F84046FEF7F2FC06F0040074
:1059200008B9FEF7F1FE0020DAE76C68E08AA18A88
:10593000884204DB4046FEF7E3FC1E20D0E706F079
:10594000020058B161682069884201D1A0682061D5
:105950002069001F20612069076009E0E168081DD7
:10596000E0600F60D4E90210884201D16068E06015
:10597000E08A401CE0824046FEF7C2FC0020AFE710
:105980002DE9F04705460C464FF0000A287802281A
:1059900002D00120BDE8F087FEF7AEFC8246A87A6F
:1059A000207405F10B0804F10809002705E018F838
:1059B000010B09F8010B781CC7B2082FF7D36E68EA
:1059C000F08A18B130690068206001E00020206092
:1059D000F08AA080B08AE0805046FEF791FC00205B
:1059E000D8E72DE9F04178211048FEF779FD002431
:1059F0000DE0601C86B204EB44000C4901EBC005CD
:105A000006EB460001EBC0072F60601C84B2042C3B
:105A1000EFD304EB4400054901EBC00500202860EA
:105A2000084603490860BDE8F0810000C82800204E
:105A30009C00002070B5044600262078032801D081
:105A4000002070BDFEF758FC0646258915B1208957
:105A5000401E20813046FEF753FC2846F1E770B522
:105A600005460026D248007808B1002070BDFEF738
:105A700043FC0646CF480468006820B1CD48006862
:105A80004068CC4908603046FEF73AFC3CB1032040
:105A900020702581002060602046FFF701F8204635
:105AA000E4E72DE9F0470446884615464FF0000923
:105AB0002078032804D0012028702046BDE8F08714
:105AC000BB48007818B10F2028702046F6E7FEF793
:105AD00013FC8146A07A08B1012700E00027B8F145
